{
  "contractName": "ColdStakingMain",
  "abi": [
    {
      "constant": true,
      "inputs": [],
      "name": "totalAmount",
      "outputs": [
        {
          "name": "",
          "type": "uint256"
        }
      ],
      "payable": false,
      "stateMutability": "view",
      "type": "function"
    },
    {
      "constant": true,
      "inputs": [],
      "name": "lastTotalReward",
      "outputs": [
        {
          "name": "",
          "type": "uint256"
        }
      ],
      "payable": false,
      "stateMutability": "view",
      "type": "function"
    },
    {
      "constant": true,
      "inputs": [],
      "name": "totalClaimedReward",
      "outputs": [
        {
          "name": "",
          "type": "uint256"
        }
      ],
      "payable": false,
      "stateMutability": "view",
      "type": "function"
    },
    {
      "constant": true,
      "inputs": [
        {
          "name": "",
          "type": "address"
        }
      ],
      "name": "subcontracts",
      "outputs": [
        {
          "name": "whitelisted",
          "type": "bool"
        },
        {
          "name": "stake",
          "type": "uint256"
        },
        {
          "name": "reward",
          "type": "uint256"
        },
        {
          "name": "lastWeightedBlockReward",
          "type": "uint256"
        }
      ],
      "payable": false,
      "stateMutability": "view",
      "type": "function"
    },
    {
      "constant": false,
      "inputs": [],
      "name": "renounceTreasurerOwnership",
      "outputs": [],
      "payable": false,
      "stateMutability": "nonpayable",
      "type": "function"
    },
    {
      "constant": true,
      "inputs": [],
      "name": "weightedBlockReward",
      "outputs": [
        {
          "name": "",
          "type": "uint256"
        }
      ],
      "payable": false,
      "stateMutability": "view",
      "type": "function"
    },
    {
      "constant": true,
      "inputs": [],
      "name": "treasuryAddress",
      "outputs": [
        {
          "name": "",
          "type": "address"
        }
      ],
      "payable": false,
      "stateMutability": "view",
      "type": "function"
    },
    {
      "constant": false,
      "inputs": [
        {
          "name": "newTreasurer",
          "type": "address"
        }
      ],
      "name": "transferTreasurerOwnership",
      "outputs": [],
      "payable": false,
      "stateMutability": "nonpayable",
      "type": "function"
    },
    {
      "constant": true,
      "inputs": [],
      "name": "treasurer",
      "outputs": [
        {
          "name": "",
          "type": "address"
        }
      ],
      "payable": false,
      "stateMutability": "view",
      "type": "function"
    },
    {
      "anonymous": false,
      "inputs": [
        {
          "indexed": true,
          "name": "previousOwner",
          "type": "address"
        },
        {
          "indexed": true,
          "name": "newOwner",
          "type": "address"
        }
      ],
      "name": "TreasurerOwnershipTransferred",
      "type": "event"
    },
    {
      "constant": false,
      "inputs": [
        {
          "name": "_addr",
          "type": "address"
        },
        {
          "name": "_whitelisted",
          "type": "bool"
        }
      ],
      "name": "setWhiteListedAddress",
      "outputs": [],
      "payable": false,
      "stateMutability": "nonpayable",
      "type": "function"
    },
    {
      "constant": false,
      "inputs": [],
      "name": "stake",
      "outputs": [],
      "payable": true,
      "stateMutability": "payable",
      "type": "function"
    },
    {
      "constant": false,
      "inputs": [
        {
          "name": "_addr",
          "type": "address"
        },
        {
          "name": "_amount",
          "type": "uint256"
        }
      ],
      "name": "withdraw",
      "outputs": [],
      "payable": false,
      "stateMutability": "nonpayable",
      "type": "function"
    },
    {
      "constant": false,
      "inputs": [
        {
          "name": "_addr",
          "type": "address"
        },
        {
          "name": "_reward",
          "type": "uint256"
        }
      ],
      "name": "claim",
      "outputs": [],
      "payable": false,
      "stateMutability": "nonpayable",
      "type": "function"
    },
    {
      "constant": false,
      "inputs": [
        {
          "name": "_addr",
          "type": "address"
        },
        {
          "name": "_amount",
          "type": "uint256"
        },
        {
          "name": "_reward",
          "type": "uint256"
        }
      ],
      "name": "withdrawAndClaim",
      "outputs": [],
      "payable": false,
      "stateMutability": "nonpayable",
      "type": "function"
    },
    {
      "constant": true,
      "inputs": [
        {
          "name": "_addr",
          "type": "address"
        }
      ],
      "name": "subContractReward",
      "outputs": [
        {
          "name": "_reward",
          "type": "uint256"
        }
      ],
      "payable": false,
      "stateMutability": "view",
      "type": "function"
    }
  ],
  "bytecode": "0x60806040819052600680546001600160a01b03199081167374682fc32007af0b6118f259cbe7bccc21641600179091556000805490911633178082556001600160a01b0316917f2da0f18c3d869cdc5baa95d5dfa6a6e8cb6db2bcd24c13c9410e1c686c9cb8ee908290a3611034806100796000396000f3fe6080604052600436106100e85760003560e01c8063aad3ec961161008a578063da84e29b11610059578063da84e29b146102a5578063dbca1b8f146102d8578063f3fef3a314610317578063fda49eb414610350576100e8565b8063aad3ec96146101eb578063c414af5914610224578063c5f956af14610239578063d7a6aeda1461026a576100e8565b80633a4b66f1116100c65780633a4b66f11461015c5780634fbdea4d146101665780637519a86a1461017b5780639932ce71146101d6576100e8565b80631a39d8ef146100ed57806321ce7daf146101145780632505b1bc14610147575b600080fd5b3480156100f957600080fd5b50610102610365565b60408051918252519081900360200190f35b34801561012057600080fd5b506101026004803603602081101561013757600080fd5b50356001600160a01b031661036b565b34801561015357600080fd5b506101026104b0565b6101646104b6565b005b34801561017257600080fd5b5061010261053b565b34801561018757600080fd5b506101ae6004803603602081101561019e57600080fd5b50356001600160a01b0316610541565b6040805194151585526020850193909352838301919091526060830152519081900360800190f35b3480156101e257600080fd5b5061016461056f565b3480156101f757600080fd5b506101646004803603604081101561020e57600080fd5b506001600160a01b03813516906020013561061d565b34801561023057600080fd5b506101026106d8565b34801561024557600080fd5b5061024e6106de565b604080516001600160a01b039092168252519081900360200190f35b34801561027657600080fd5b506101646004803603604081101561028d57600080fd5b506001600160a01b03813516906020013515156106ed565b3480156102b157600080fd5b50610164600480360360208110156102c857600080fd5b50356001600160a01b0316610782565b3480156102e457600080fd5b50610164600480360360608110156102fb57600080fd5b506001600160a01b038135169060208101359060400135610889565b34801561032357600080fd5b506101646004803603604081101561033a57600080fd5b506001600160a01b038135169060200135610922565b34801561035c57600080fd5b5061024e6109ab565b60025481565b60008061039f600254610393600454306001600160a01b0316316109ba90919063ffffffff16565b9063ffffffff610a0316565b905060006103b860055483610a0390919063ffffffff16565b90506103c2610f11565b506001600160a01b03841660009081526001602081815260408084208151608081018352815460ff1615158152938101549284019290925260028083015491840191909152600390910154606083015254909190156104a157600061045c61044d600254610441670de0b6b3a764000088610a4590919063ffffffff16565b9063ffffffff610a6a16565b6003549063ffffffff6109ba16565b90506000610477846060015183610a0390919063ffffffff16565b905061049c670de0b6b3a7640000610441838760200151610a4590919063ffffffff16565b925050505b60409091015101949350505050565b60055481565b336000908152600160205260409020805460ff1661050857604051600160e51b62461bcd028152600401808060200182810382526024815260200180610fe56024913960400191505060405180910390fd5b6105153460006001610aac565b61051e81610be7565b6001810154610533903463ffffffff6109ba16565b600190910155565b60045481565b6001602081905260009182526040909120805491810154600282015460039092015460ff9093169290919084565b6000546001600160a01b031633146105bb57604051600160e51b62461bcd028152600401808060200182810382526026815260200180610f976026913960400191505060405180910390fd5b600080546040516001600160a01b03909116907f2da0f18c3d869cdc5baa95d5dfa6a6e8cb6db2bcd24c13c9410e1c686c9cb8ee908390a3600080547fffffffffffffffffffffffff0000000000000000000000000000000000000000169055565b33600090815260016020819052604082209161063a918190610aac565b61064381610be7565b60408051808201909152601e81527f436f6c645374616b696e673a20726577617264206e6f7420656e6f75676800006020820152600282015461068d91849063ffffffff610c5116565b60028201556004546106a5908363ffffffff6109ba16565b6004556106d3826106be6001600160a01b038616610ceb565b6001600160a01b03169063ffffffff610cee16565b505050565b60035481565b6006546001600160a01b031681565b6000546001600160a01b0316331461073957604051600160e51b62461bcd028152600401808060200182810382526026815260200180610f976026913960400191505060405180910390fd5b6001600160a01b0391909116600090815260016020526040902080547fffffffffffffffffffffffffffffffffffffffffffffffffffffffffffffff0016911515919091179055565b6000546001600160a01b031633146107ce57604051600160e51b62461bcd028152600401808060200182810382526026815260200180610f976026913960400191505060405180910390fd5b6001600160a01b03811661081657604051600160e51b62461bcd028152600401808060200182810382526028815260200180610fbd6028913960400191505060405180910390fd5b600080546040516001600160a01b03808516939216917f2da0f18c3d869cdc5baa95d5dfa6a6e8cb6db2bcd24c13c9410e1c686c9cb8ee91a3600080547fffffffffffffffffffffffff0000000000000000000000000000000000000000166001600160a01b0392909216919091179055565b336000908152600160205260408120906108a4908481610aac565b6108ad81610be7565b60018101546108c2908463ffffffff610a0316565b600182015560028101546108dc908363ffffffff610a0316565b60028201556004546108f4908363ffffffff6109ba16565b60045561091c61090a848463ffffffff6109ba16565b6106be866001600160a01b0316610ceb565b50505050565b3360009081526001602052604081209061093d908381610aac565b61094681610be7565b60408051808201909152601d81527f436f6c645374616b696e673a207374616b65206e6f7420656e6f7567680000006020820152600182015461099091849063ffffffff610c5116565b60018201556106d3826106be6001600160a01b038616610ceb565b6000546001600160a01b031681565b60006109fc83836040518060400160405280601b81526020017f536166654d6174683a206164646974696f6e206f766572666c6f770000000000815250610dda565b9392505050565b60006109fc83836040518060400160405280601f81526020017f536166654d6174683a207375627472616374696f6e20756e646572666c6f7700815250610c51565b60006109fc8383604051806060016040528060218152602001610f7660219139610e3b565b60006109fc83836040518060400160405280601a81526020017f536166654d6174683a206469766973696f6e206279207a65726f000000000000815250610ea9565b6000610adb610ac6856002546109ba90919063ffffffff16565b6004546103939030319063ffffffff6109ba16565b90506000610af460055483610a0390919063ffffffff16565b600583905560025490915015610b2f57600254610b279061044d9061044184670de0b6b3a764000063ffffffff610a4516565b600355610b61565b600654610b4a9082906106be906001600160a01b0316610ceb565b600454610b5d908263ffffffff6109ba16565b6004555b828015610b6e5750600085115b15610b8e57600254610b86908663ffffffff6109ba16565b600255610be0565b8315610be05760408051808201909152601d81527f436f6c645374616b696e673a207374616b65206e6f7420656e6f7567680000006020820152600254610bdc91869063ffffffff610c5116565b6002555b5050505050565b6000610c028260030154600354610a0390919063ffffffff16565b90506000610c29670de0b6b3a7640000610441848660010154610a4590919063ffffffff16565b6002840154909150610c41908263ffffffff6109ba16565b6002840155505060038054910155565b60008184841115610ce357604051600160e51b62461bcd0281526004018080602001828103825283818151815260200191508051906020019080838360005b83811015610ca8578181015183820152602001610c90565b50505050905090810190601f168015610cd55780820380516001836020036101000a031916815260200191505b509250505060405180910390fd5b505050900390565b90565b3031811115610d475760408051600160e51b62461bcd02815260206004820152601d60248201527f416464726573733a20696e73756666696369656e742062616c616e6365000000604482015290519081900360640190fd5b6040516000906001600160a01b0384169083908381818185875af1925050503d8060008114610d92576040519150601f19603f3d011682016040523d82523d6000602084013e610d97565b606091505b50509050806106d357604051600160e51b62461bcd02815260040180806020018281038252603a815260200180610f3c603a913960400191505060405180910390fd5b60008383018285821015610e3257604051600160e51b62461bcd028152602060048201818152835160248401528351909283926044909101919085019080838360008315610ca8578181015183820152602001610c90565b50949350505050565b600083610e4a575060006109fc565b83830283858281610e5757fe5b04148390610e3257604051600160e51b62461bcd028152602060048201818152835160248401528351909283926044909101919085019080838360008315610ca8578181015183820152602001610c90565b60008183610efb57604051600160e51b62461bcd028152602060048201818152835160248401528351909283926044909101919085019080838360008315610ca8578181015183820152602001610c90565b506000838581610f0757fe5b0495945050505050565b6040518060800160405280600015158152602001600081526020016000815260200160008152509056fe416464726573733a20756e61626c6520746f2073656e642076616c75652c20726563697069656e74206d61792068617665207265766572746564536166654d6174683a206d756c7469706c69636174696f6e206f766572666c6f775472656173757265723a2063616c6c6572206973206e6f7420746865207472656173757265725472656173757265723a206e657720747265617375726572206973207a65726f2061646472657373436f6c645374616b696e673a2041646472657373206e6f742077686974656c6973746564a165627a7a7230582022a5a22b51e29c9a74559da7e121a111368a8aaa89402bc8eae40cf718566fd20029",
  "source": "pragma solidity ^0.5.8;\n\nimport \"./utils/SafeMath.sol\";\nimport \"./utils/Address.sol\";\nimport \"./interfaces/IColdStakingMain.sol\";\nimport \"./utils/Treasurer.sol\";\n\ncontract ColdStakingMain is IColdStakingMain, Treasurer\n{\n    using SafeMath for uint;\n    using Address for address;\n    using Address for address payable;\n\n    struct SubContract {\n        bool whitelisted;\n        uint stake;\n        uint reward;        \n        uint lastWeightedBlockReward;\n    }\n    \n    mapping(address => SubContract) public subcontracts;\n    \n    uint public totalAmount;\n    uint public weightedBlockReward;\n    uint public totalClaimedReward;\n    uint public lastTotalReward;\n    \n    address public treasuryAddress = 0x74682Fc32007aF0b6118F259cBe7bCCC21641600;\n    \n    function setWhiteListedAddress(address _addr, bool _whitelisted) onlyTreasurer public {\n        subcontracts[_addr].whitelisted = _whitelisted;\n    }\n\n    function stake_update(uint _deposit,uint _withdraw, bool _sign) internal {\n\n        uint newTotalReward = address(this).balance.add(totalClaimedReward).sub(totalAmount.add(_deposit));\n        uint intervalReward = newTotalReward.sub(lastTotalReward);\n\n        lastTotalReward = newTotalReward;\n\n        if (totalAmount!=0) weightedBlockReward = weightedBlockReward.add(intervalReward.mul(1 ether).div(totalAmount));\n        else {\n            treasuryAddress.toPayable().sendValue(intervalReward);\n            totalClaimedReward = totalClaimedReward.add(intervalReward);\n        }\n\n        if(_sign && _deposit > 0) totalAmount = totalAmount.add(_deposit);\n        else if(_withdraw > 0) totalAmount = totalAmount.sub(_withdraw,\"ColdStaking: stake not enough\");\n    }\n\n    function reward_update(SubContract storage subcontract) internal {\n\n        uint stakerIntervalWeightedBlockReward = weightedBlockReward.sub(subcontract.lastWeightedBlockReward);\n        uint _reward = subcontract.stake.mul(stakerIntervalWeightedBlockReward).div(1 ether);\n\n        subcontract.reward = subcontract.reward.add(_reward);\n        subcontract.lastWeightedBlockReward = weightedBlockReward;\n    }\n\n    function stake() public payable {\n        SubContract storage subcontract = subcontracts[msg.sender];\n        require(subcontract.whitelisted,\"ColdStaking: Address not whitelisted\");\n\n        stake_update(msg.value,0,true);\n        reward_update(subcontract); \n        subcontract.stake = subcontract.stake.add(msg.value); \n    }\n    \n    function withdraw(address _addr, uint _amount) public {\n        SubContract storage subcontract = subcontracts[msg.sender];\n        stake_update(0,_amount,false);\n        reward_update(subcontract);\n        subcontract.stake  = subcontract.stake.sub(_amount,\"ColdStaking: stake not enough\");\n        _addr.toPayable().sendValue(_amount);\n    }\n\n    function claim(address _addr, uint _reward) public {\n        SubContract storage subcontract = subcontracts[msg.sender];\n        stake_update(0,0,true);\n        reward_update(subcontract);\n        subcontract.reward  = subcontract.reward.sub(_reward,\"ColdStaking: reward not enough\");\n        totalClaimedReward = totalClaimedReward.add(_reward);\n        _addr.toPayable().sendValue(_reward);    \n    }\n\n    function withdrawAndClaim(address _addr, uint _amount, uint _reward) public {\n        SubContract storage subcontract = subcontracts[msg.sender];\n        stake_update(0,_amount,false);\n        reward_update(subcontract);\n        subcontract.stake  = subcontract.stake.sub(_amount);\n        subcontract.reward  = subcontract.reward.sub(_reward);\n        totalClaimedReward = totalClaimedReward.add(_reward);\n        _addr.toPayable().sendValue(_amount.add(_reward)); \n    }\n\n    function subContractReward(address _addr) public view returns(uint _reward) {   \n        uint newTotalReward = address(this).balance.add(totalClaimedReward).sub(totalAmount);\n        uint intervalReward = newTotalReward.sub(lastTotalReward);\n        SubContract memory subcontract = subcontracts[_addr];\n        uint reward;\n        if (totalAmount!=0) {\n            uint _weightedBlockReward = weightedBlockReward.add(intervalReward.mul(1 ether).div(totalAmount));\n            uint _stakerIntervalWeightedBlockReward = _weightedBlockReward.sub(subcontract.lastWeightedBlockReward);\n            reward = subcontract.stake.mul(_stakerIntervalWeightedBlockReward).div(1 ether);\n        }\n        _reward = subcontract.reward + reward;\n    }\n}\n",
  "sourcePath": "/home/faycal/Desktop/projects/callisto-contracts/contracts/ColdStakingMain.sol",
  "compiler": {
    "name": "solc",
    "version": "0.5.8+commit.23d335f2.Emscripten.clang"
  },
  "schemaVersion": "3.0.22",
  "updatedAt": "2020-02-23T11:15:40.243Z",
  "networkType": "ethereum",
  "devdoc": {
    "methods": {}
  },
  "userdoc": {
    "methods": {}
  }
}