{
  "contractName": "ColdStakingMainMock",
  "abi": [
    {
      "constant": true,
      "inputs": [],
      "name": "totalAmount",
      "outputs": [
        {
          "name": "",
          "type": "uint256"
        }
      ],
      "payable": false,
      "stateMutability": "view",
      "type": "function"
    },
    {
      "constant": true,
      "inputs": [
        {
          "name": "_addr",
          "type": "address"
        }
      ],
      "name": "subContractReward",
      "outputs": [
        {
          "name": "_reward",
          "type": "uint256"
        }
      ],
      "payable": false,
      "stateMutability": "view",
      "type": "function"
    },
    {
      "constant": true,
      "inputs": [],
      "name": "lastTotalReward",
      "outputs": [
        {
          "name": "",
          "type": "uint256"
        }
      ],
      "payable": false,
      "stateMutability": "view",
      "type": "function"
    },
    {
      "constant": false,
      "inputs": [],
      "name": "stake",
      "outputs": [],
      "payable": true,
      "stateMutability": "payable",
      "type": "function"
    },
    {
      "constant": true,
      "inputs": [],
      "name": "totalClaimedReward",
      "outputs": [
        {
          "name": "",
          "type": "uint256"
        }
      ],
      "payable": false,
      "stateMutability": "view",
      "type": "function"
    },
    {
      "constant": true,
      "inputs": [
        {
          "name": "",
          "type": "address"
        }
      ],
      "name": "subcontracts",
      "outputs": [
        {
          "name": "whitelisted",
          "type": "bool"
        },
        {
          "name": "stake",
          "type": "uint256"
        },
        {
          "name": "reward",
          "type": "uint256"
        },
        {
          "name": "lastWeightedBlockReward",
          "type": "uint256"
        }
      ],
      "payable": false,
      "stateMutability": "view",
      "type": "function"
    },
    {
      "constant": true,
      "inputs": [
        {
          "name": "_addr",
          "type": "address"
        }
      ],
      "name": "getStake",
      "outputs": [
        {
          "name": "",
          "type": "uint256"
        }
      ],
      "payable": false,
      "stateMutability": "view",
      "type": "function"
    },
    {
      "constant": false,
      "inputs": [],
      "name": "renounceTreasurerOwnership",
      "outputs": [],
      "payable": false,
      "stateMutability": "nonpayable",
      "type": "function"
    },
    {
      "constant": false,
      "inputs": [
        {
          "name": "_addr",
          "type": "address"
        },
        {
          "name": "_reward",
          "type": "uint256"
        }
      ],
      "name": "claim",
      "outputs": [],
      "payable": false,
      "stateMutability": "nonpayable",
      "type": "function"
    },
    {
      "constant": true,
      "inputs": [
        {
          "name": "_addr",
          "type": "address"
        }
      ],
      "name": "getReward",
      "outputs": [
        {
          "name": "",
          "type": "uint256"
        }
      ],
      "payable": false,
      "stateMutability": "view",
      "type": "function"
    },
    {
      "constant": true,
      "inputs": [],
      "name": "weightedBlockReward",
      "outputs": [
        {
          "name": "",
          "type": "uint256"
        }
      ],
      "payable": false,
      "stateMutability": "view",
      "type": "function"
    },
    {
      "constant": true,
      "inputs": [],
      "name": "treasuryAddress",
      "outputs": [
        {
          "name": "",
          "type": "address"
        }
      ],
      "payable": false,
      "stateMutability": "view",
      "type": "function"
    },
    {
      "constant": false,
      "inputs": [
        {
          "name": "_addr",
          "type": "address"
        },
        {
          "name": "_whitelisted",
          "type": "bool"
        }
      ],
      "name": "setWhiteListedAddress",
      "outputs": [],
      "payable": false,
      "stateMutability": "nonpayable",
      "type": "function"
    },
    {
      "constant": false,
      "inputs": [
        {
          "name": "newTreasurer",
          "type": "address"
        }
      ],
      "name": "transferTreasurerOwnership",
      "outputs": [],
      "payable": false,
      "stateMutability": "nonpayable",
      "type": "function"
    },
    {
      "constant": false,
      "inputs": [
        {
          "name": "_addr",
          "type": "address"
        },
        {
          "name": "_amount",
          "type": "uint256"
        },
        {
          "name": "_reward",
          "type": "uint256"
        }
      ],
      "name": "withdrawAndClaim",
      "outputs": [],
      "payable": false,
      "stateMutability": "nonpayable",
      "type": "function"
    },
    {
      "constant": false,
      "inputs": [
        {
          "name": "_addr",
          "type": "address"
        },
        {
          "name": "_amount",
          "type": "uint256"
        }
      ],
      "name": "withdraw",
      "outputs": [],
      "payable": false,
      "stateMutability": "nonpayable",
      "type": "function"
    },
    {
      "constant": true,
      "inputs": [],
      "name": "treasurer",
      "outputs": [
        {
          "name": "",
          "type": "address"
        }
      ],
      "payable": false,
      "stateMutability": "view",
      "type": "function"
    },
    {
      "anonymous": false,
      "inputs": [
        {
          "indexed": true,
          "name": "previousOwner",
          "type": "address"
        },
        {
          "indexed": true,
          "name": "newOwner",
          "type": "address"
        }
      ],
      "name": "TreasurerOwnershipTransferred",
      "type": "event"
    },
    {
      "constant": false,
      "inputs": [],
      "name": "simulateRewardDeposit",
      "outputs": [],
      "payable": true,
      "stateMutability": "payable",
      "type": "function"
    }
  ],
  "bytecode": "0x6080604081905260068054600160a060020a03199081167374682fc32007af0b6118f259cbe7bccc2164160017909155600080549091163317808255600160a060020a0316917f2da0f18c3d869cdc5baa95d5dfa6a6e8cb6db2bcd24c13c9410e1c686c9cb8ee908290a3611396806100796000396000f3fe608060405260043610610146576000357c010000000000000000000000000000000000000000000000000000000090048063aad3ec96116100c2578063d7a6aeda11610091578063dbca1b8f11610076578063dbca1b8f1461040c578063f3fef3a314610458578063fda49eb41461049e57610146565b8063d7a6aeda14610384578063da84e29b146103cc57610146565b8063aad3ec96146102ab578063c00007b0146102f1578063c414af5914610331578063c5f956af1461034657610146565b80633a4b66f1116101195780637519a86a116100fe5780637519a86a146101ee5780637a766460146102565780639932ce711461029657610146565b80633a4b66f1146101d15780634fbdea4d146101d957610146565b80631a39d8ef1461014b57806321ce7daf146101725780632505b1bc146101b2578063305d93df146101c7575b600080fd5b34801561015757600080fd5b506101606104b3565b60408051918252519081900360200190f35b34801561017e57600080fd5b506101606004803603602081101561019557600080fd5b503573ffffffffffffffffffffffffffffffffffffffff166104b9565b3480156101be57600080fd5b506101606105fb565b6101cf610601565b005b6101cf610603565b3480156101e557600080fd5b5061016061069f565b3480156101fa57600080fd5b5061022e6004803603602081101561021157600080fd5b503573ffffffffffffffffffffffffffffffffffffffff166106a5565b6040805194151585526020850193909352838301919091526060830152519081900360800190f35b34801561026257600080fd5b506101606004803603602081101561027957600080fd5b503573ffffffffffffffffffffffffffffffffffffffff166106d3565b3480156102a257600080fd5b506101cf6106ff565b3480156102b757600080fd5b506101cf600480360360408110156102ce57600080fd5b5073ffffffffffffffffffffffffffffffffffffffff81351690602001356107de565b3480156102fd57600080fd5b506101606004803603602081101561031457600080fd5b503573ffffffffffffffffffffffffffffffffffffffff166108b3565b34801561033d57600080fd5b506101606108de565b34801561035257600080fd5b5061035b6108e4565b6040805173ffffffffffffffffffffffffffffffffffffffff9092168252519081900360200190f35b34801561039057600080fd5b506101cf600480360360408110156103a757600080fd5b5073ffffffffffffffffffffffffffffffffffffffff81351690602001351515610900565b3480156103d857600080fd5b506101cf600480360360208110156103ef57600080fd5b503573ffffffffffffffffffffffffffffffffffffffff166109c6565b34801561041857600080fd5b506101cf6004803603606081101561042f57600080fd5b5073ffffffffffffffffffffffffffffffffffffffff8135169060208101359060400135610b2f565b34801561046457600080fd5b506101cf6004803603604081101561047b57600080fd5b5073ffffffffffffffffffffffffffffffffffffffff8135169060200135610bd5565b3480156104aa57600080fd5b5061035b610c6b565b60025481565b6002546004546000919082906104e99083906104dd9030319063ffffffff610c8716565b9063ffffffff610cd016565b9050600061050260055483610cd090919063ffffffff16565b905061050c611273565b5073ffffffffffffffffffffffffffffffffffffffff851660009081526001602081815260408084208151608081018352815460ff161515815293810154928401929092526002820154908301526003015460608201529084156105eb5760006105a66105978761058b87670de0b6b3a764000063ffffffff610d1216565b9063ffffffff610d3716565b6003549063ffffffff610c8716565b905060006105c1846060015183610cd090919063ffffffff16565b90506105e6670de0b6b3a764000061058b838760200151610d1290919063ffffffff16565b925050505b6040909101510195945050505050565b60055481565b565b336000908152600160205260409020805460ff1661066c576040517f08c379a00000000000000000000000000000000000000000000000000000000081526004018080602001828103825260248152602001806113476024913960400191505060405180910390fd5b6106793460006001610d79565b61068281610eb2565b6001810154610697903463ffffffff610c8716565b600190910155565b60045481565b6001602081905260009182526040909120805491810154600282015460039092015460ff9093169290919084565b73ffffffffffffffffffffffffffffffffffffffff166000908152600160208190526040909120015490565b60005473ffffffffffffffffffffffffffffffffffffffff16331461076f576040517f08c379a00000000000000000000000000000000000000000000000000000000081526004018080602001828103825260268152602001806112f96026913960400191505060405180910390fd5b6000805460405173ffffffffffffffffffffffffffffffffffffffff909116907f2da0f18c3d869cdc5baa95d5dfa6a6e8cb6db2bcd24c13c9410e1c686c9cb8ee908390a3600080547fffffffffffffffffffffffff0000000000000000000000000000000000000000169055565b3360009081526001602081905260408220916107fb918190610d79565b61080481610eb2565b60408051808201909152601e81527f436f6c645374616b696e673a20726577617264206e6f7420656e6f75676800006020820152600282015461084e91849063ffffffff610f1c16565b6002820155600454610866908363ffffffff610c8716565b6004556108ae8261088c73ffffffffffffffffffffffffffffffffffffffff8616610fcd565b73ffffffffffffffffffffffffffffffffffffffff169063ffffffff610fd016565b505050565b73ffffffffffffffffffffffffffffffffffffffff1660009081526001602052604090206002015490565b60035481565b60065473ffffffffffffffffffffffffffffffffffffffff1681565b60005473ffffffffffffffffffffffffffffffffffffffff163314610970576040517f08c379a00000000000000000000000000000000000000000000000000000000081526004018080602001828103825260268152602001806112f96026913960400191505060405180910390fd5b73ffffffffffffffffffffffffffffffffffffffff91909116600090815260016020526040902080547fffffffffffffffffffffffffffffffffffffffffffffffffffffffffffffff0016911515919091179055565b60005473ffffffffffffffffffffffffffffffffffffffff163314610a36576040517f08c379a00000000000000000000000000000000000000000000000000000000081526004018080602001828103825260268152602001806112f96026913960400191505060405180910390fd5b73ffffffffffffffffffffffffffffffffffffffff8116610aa2576040517f08c379a000000000000000000000000000000000000000000000000000000000815260040180806020018281038252602881526020018061131f6028913960400191505060405180910390fd5b6000805460405173ffffffffffffffffffffffffffffffffffffffff808516939216917f2da0f18c3d869cdc5baa95d5dfa6a6e8cb6db2bcd24c13c9410e1c686c9cb8ee91a3600080547fffffffffffffffffffffffff00000000000000000000000000000000000000001673ffffffffffffffffffffffffffffffffffffffff92909216919091179055565b33600090815260016020526040812090610b4a908481610d79565b610b5381610eb2565b6001810154610b68908463ffffffff610cd016565b60018201556002810154610b82908363ffffffff610cd016565b6002820155600454610b9a908363ffffffff610c8716565b600455610bcf610bb0848463ffffffff610c8716565b61088c8673ffffffffffffffffffffffffffffffffffffffff16610fcd565b50505050565b33600090815260016020526040812090610bf0908381610d79565b610bf981610eb2565b60408051808201909152601d81527f436f6c645374616b696e673a207374616b65206e6f7420656e6f75676800000060208201526001820154610c4391849063ffffffff610f1c16565b60018201556108ae8261088c73ffffffffffffffffffffffffffffffffffffffff8616610fcd565b60005473ffffffffffffffffffffffffffffffffffffffff1681565b6000610cc983836040518060400160405280601b81526020017f536166654d6174683a206164646974696f6e206f766572666c6f7700000000008152506110f7565b9392505050565b6000610cc983836040518060400160405280601f81526020017f536166654d6174683a207375627472616374696f6e20756e646572666c6f7700815250610f1c565b6000610cc983836040518060600160405280602181526020016112d86021913961116f565b6000610cc983836040518060400160405280601a81526020017f536166654d6174683a206469766973696f6e206279207a65726f0000000000008152506111f4565b6002546004546000610da5610d94848863ffffffff610c8716565b6104dd30318563ffffffff610c8716565b90506000610dbe60055483610cd090919063ffffffff16565b600583905590508315610df257610dea6105978561058b84670de0b6b3a764000063ffffffff610d1216565b600355610e2e565b600654610e1a90829061088c9073ffffffffffffffffffffffffffffffffffffffff16610fcd565b610e2a838263ffffffff610c8716565b6004555b848015610e3b5750600087115b15610e5857610e50848863ffffffff610c8716565b600255610ea9565b8515610ea95760408051808201909152601d81527f436f6c645374616b696e673a207374616b65206e6f7420656e6f7567680000006020820152610ea5908590889063ffffffff610f1c16565b6002555b50505050505050565b6003805490820154600090610ece90839063ffffffff610cd016565b90506000610ef5670de0b6b3a764000061058b848760010154610d1290919063ffffffff16565b6002850154909150610f0d908263ffffffff610c8716565b60028501555050600390910155565b60008184841115610fc5576040517f08c379a00000000000000000000000000000000000000000000000000000000081526004018080602001828103825283818151815260200191508051906020019080838360005b83811015610f8a578181015183820152602001610f72565b50505050905090810190601f168015610fb75780820380516001836020036101000a031916815260200191505b509250505060405180910390fd5b505050900390565b90565b303181111561104057604080517f08c379a000000000000000000000000000000000000000000000000000000000815260206004820152601d60248201527f416464726573733a20696e73756666696369656e742062616c616e6365000000604482015290519081900360640190fd5b60405160009073ffffffffffffffffffffffffffffffffffffffff84169083908381818185875af1925050503d8060008114611098576040519150601f19603f3d011682016040523d82523d6000602084013e61109d565b606091505b50509050806108ae576040517f08c379a000000000000000000000000000000000000000000000000000000000815260040180806020018281038252603a81526020018061129e603a913960400191505060405180910390fd5b60008383018285821015611166576040517f08c379a0000000000000000000000000000000000000000000000000000000008152602060048201818152835160248401528351909283926044909101919085019080838360008315610f8a578181015183820152602001610f72565b50949350505050565b60008361117e57506000610cc9565b8383028385828161118b57fe5b04148390611166576040517f08c379a0000000000000000000000000000000000000000000000000000000008152602060048201818152835160248401528351909283926044909101919085019080838360008315610f8a578181015183820152602001610f72565b6000818361125d576040517f08c379a0000000000000000000000000000000000000000000000000000000008152602060048201818152835160248401528351909283926044909101919085019080838360008315610f8a578181015183820152602001610f72565b50600083858161126957fe5b0495945050505050565b6040518060800160405280600015158152602001600081526020016000815260200160008152509056fe416464726573733a20756e61626c6520746f2073656e642076616c75652c20726563697069656e74206d61792068617665207265766572746564536166654d6174683a206d756c7469706c69636174696f6e206f766572666c6f775472656173757265723a2063616c6c6572206973206e6f7420746865207472656173757265725472656173757265723a206e657720747265617375726572206973207a65726f2061646472657373436f6c645374616b696e673a2041646472657373206e6f742077686974656c6973746564a165627a7a72305820342aea456ee2d2313b0a708b3b16a674ef8a313c5130282a7672fa6684593c450029",
  "source": "pragma solidity ^0.5.8;\n\nimport \"../ColdStakingMain.sol\";\nimport \"../utils/Address.sol\";\n\ncontract ColdStakingMainMock is ColdStakingMain  {\n    \n    function simulateRewardDeposit() public payable {\n    }\n}\n",
  "sourcePath": "/home/faycal/callisto-staking/contracts/mocks/ColdStakingMainMock.sol",
  "compiler": {
    "name": "solc",
    "version": "0.5.8+commit.23d335f2.Emscripten.clang"
  },
  "schemaVersion": "3.0.1",
  "updatedAt": "2020-03-06T15:43:30.728Z",
  "devdoc": {
    "methods": {}
  },
  "userdoc": {
    "methods": {}
  }
}