{
  "contractName": "ColdStakingVotingMock",
  "abi": [
    {
      "constant": false,
      "inputs": [
        {
          "name": "voter",
          "type": "address"
        },
        {
          "name": "_voteWithdrawalDeadline",
          "type": "uint256"
        }
      ],
      "name": "vote_casted",
      "outputs": [],
      "payable": false,
      "stateMutability": "nonpayable",
      "type": "function"
    },
    {
      "constant": false,
      "inputs": [
        {
          "name": "_governanceContract",
          "type": "address"
        }
      ],
      "name": "setGovernanceContract",
      "outputs": [],
      "payable": false,
      "stateMutability": "nonpayable",
      "type": "function"
    },
    {
      "constant": false,
      "inputs": [],
      "name": "start_staking",
      "outputs": [],
      "payable": true,
      "stateMutability": "payable",
      "type": "function"
    },
    {
      "constant": true,
      "inputs": [],
      "name": "lastTotalReward",
      "outputs": [
        {
          "name": "",
          "type": "uint256"
        }
      ],
      "payable": false,
      "stateMutability": "view",
      "type": "function"
    },
    {
      "constant": true,
      "inputs": [],
      "name": "claim_delay",
      "outputs": [
        {
          "name": "",
          "type": "uint256"
        }
      ],
      "payable": false,
      "stateMutability": "view",
      "type": "function"
    },
    {
      "constant": true,
      "inputs": [],
      "name": "stakedAmount",
      "outputs": [
        {
          "name": "",
          "type": "uint256"
        }
      ],
      "payable": false,
      "stateMutability": "view",
      "type": "function"
    },
    {
      "constant": false,
      "inputs": [],
      "name": "claim",
      "outputs": [],
      "payable": false,
      "stateMutability": "nonpayable",
      "type": "function"
    },
    {
      "constant": true,
      "inputs": [],
      "name": "totalClaimedReward",
      "outputs": [
        {
          "name": "",
          "type": "uint256"
        }
      ],
      "payable": false,
      "stateMutability": "view",
      "type": "function"
    },
    {
      "constant": true,
      "inputs": [
        {
          "name": "_addr",
          "type": "address"
        }
      ],
      "name": "getStake",
      "outputs": [
        {
          "name": "",
          "type": "uint256"
        }
      ],
      "payable": false,
      "stateMutability": "view",
      "type": "function"
    },
    {
      "constant": true,
      "inputs": [
        {
          "name": "",
          "type": "address"
        }
      ],
      "name": "staker",
      "outputs": [
        {
          "name": "stake",
          "type": "uint256"
        },
        {
          "name": "reward",
          "type": "uint256"
        },
        {
          "name": "lastClaim",
          "type": "uint256"
        },
        {
          "name": "lastWeightedBlockReward",
          "type": "uint256"
        },
        {
          "name": "voteWithdrawalDeadline",
          "type": "uint256"
        }
      ],
      "payable": false,
      "stateMutability": "view",
      "type": "function"
    },
    {
      "constant": true,
      "inputs": [
        {
          "name": "_addr",
          "type": "address"
        }
      ],
      "name": "getLastClaim",
      "outputs": [
        {
          "name": "",
          "type": "uint256"
        }
      ],
      "payable": false,
      "stateMutability": "view",
      "type": "function"
    },
    {
      "constant": true,
      "inputs": [],
      "name": "coldStakingMain",
      "outputs": [
        {
          "name": "",
          "type": "address"
        }
      ],
      "payable": false,
      "stateMutability": "view",
      "type": "function"
    },
    {
      "constant": false,
      "inputs": [],
      "name": "renounceTreasurerOwnership",
      "outputs": [],
      "payable": false,
      "stateMutability": "nonpayable",
      "type": "function"
    },
    {
      "constant": false,
      "inputs": [
        {
          "name": "_addr",
          "type": "address"
        }
      ],
      "name": "report_abuse",
      "outputs": [],
      "payable": false,
      "stateMutability": "nonpayable",
      "type": "function"
    },
    {
      "constant": true,
      "inputs": [],
      "name": "governanceContract",
      "outputs": [
        {
          "name": "",
          "type": "address"
        }
      ],
      "payable": false,
      "stateMutability": "view",
      "type": "function"
    },
    {
      "constant": true,
      "inputs": [
        {
          "name": "_addr",
          "type": "address"
        }
      ],
      "name": "getReward",
      "outputs": [
        {
          "name": "_reward",
          "type": "uint256"
        }
      ],
      "payable": false,
      "stateMutability": "view",
      "type": "function"
    },
    {
      "constant": true,
      "inputs": [],
      "name": "weightedBlockReward",
      "outputs": [
        {
          "name": "",
          "type": "uint256"
        }
      ],
      "payable": false,
      "stateMutability": "view",
      "type": "function"
    },
    {
      "constant": true,
      "inputs": [],
      "name": "treasuryAddress",
      "outputs": [
        {
          "name": "",
          "type": "address"
        }
      ],
      "payable": false,
      "stateMutability": "view",
      "type": "function"
    },
    {
      "constant": false,
      "inputs": [],
      "name": "withdraw_stake",
      "outputs": [],
      "payable": false,
      "stateMutability": "nonpayable",
      "type": "function"
    },
    {
      "constant": false,
      "inputs": [
        {
          "name": "newTreasurer",
          "type": "address"
        }
      ],
      "name": "transferTreasurerOwnership",
      "outputs": [],
      "payable": false,
      "stateMutability": "nonpayable",
      "type": "function"
    },
    {
      "constant": true,
      "inputs": [],
      "name": "max_delay",
      "outputs": [
        {
          "name": "",
          "type": "uint256"
        }
      ],
      "payable": false,
      "stateMutability": "view",
      "type": "function"
    },
    {
      "constant": true,
      "inputs": [],
      "name": "staker_info",
      "outputs": [
        {
          "name": "weight",
          "type": "uint256"
        },
        {
          "name": "init",
          "type": "uint256"
        },
        {
          "name": "actual_block",
          "type": "uint256"
        },
        {
          "name": "_reward",
          "type": "uint256"
        }
      ],
      "payable": false,
      "stateMutability": "view",
      "type": "function"
    },
    {
      "constant": true,
      "inputs": [],
      "name": "treasurer",
      "outputs": [
        {
          "name": "",
          "type": "address"
        }
      ],
      "payable": false,
      "stateMutability": "view",
      "type": "function"
    },
    {
      "inputs": [
        {
          "name": "_coldStakingMain",
          "type": "address"
        }
      ],
      "payable": false,
      "stateMutability": "nonpayable",
      "type": "constructor"
    },
    {
      "payable": true,
      "stateMutability": "payable",
      "type": "fallback"
    },
    {
      "anonymous": false,
      "inputs": [
        {
          "indexed": false,
          "name": "addr",
          "type": "address"
        },
        {
          "indexed": false,
          "name": "value",
          "type": "uint256"
        },
        {
          "indexed": false,
          "name": "amount",
          "type": "uint256"
        },
        {
          "indexed": false,
          "name": "time",
          "type": "uint256"
        }
      ],
      "name": "Staking",
      "type": "event"
    },
    {
      "anonymous": false,
      "inputs": [
        {
          "indexed": false,
          "name": "staker",
          "type": "address"
        },
        {
          "indexed": false,
          "name": "amount",
          "type": "uint256"
        },
        {
          "indexed": false,
          "name": "reward",
          "type": "uint256"
        }
      ],
      "name": "WithdrawStake",
      "type": "event"
    },
    {
      "anonymous": false,
      "inputs": [
        {
          "indexed": false,
          "name": "staker",
          "type": "address"
        },
        {
          "indexed": false,
          "name": "reward",
          "type": "uint256"
        }
      ],
      "name": "Claim",
      "type": "event"
    },
    {
      "anonymous": false,
      "inputs": [
        {
          "indexed": false,
          "name": "_address",
          "type": "address"
        },
        {
          "indexed": false,
          "name": "value",
          "type": "uint256"
        }
      ],
      "name": "DonationDeposited",
      "type": "event"
    },
    {
      "anonymous": false,
      "inputs": [
        {
          "indexed": false,
          "name": "_voter",
          "type": "address"
        },
        {
          "indexed": false,
          "name": "_time",
          "type": "uint256"
        }
      ],
      "name": "VoterWithrawlDeadlineUpdate",
      "type": "event"
    },
    {
      "anonymous": false,
      "inputs": [
        {
          "indexed": false,
          "name": "_addr",
          "type": "address"
        },
        {
          "indexed": false,
          "name": "value",
          "type": "uint256"
        }
      ],
      "name": "InactiveStaker",
      "type": "event"
    },
    {
      "anonymous": false,
      "inputs": [
        {
          "indexed": true,
          "name": "previousOwner",
          "type": "address"
        },
        {
          "indexed": true,
          "name": "newOwner",
          "type": "address"
        }
      ],
      "name": "TreasurerOwnershipTransferred",
      "type": "event"
    },
    {
      "constant": false,
      "inputs": [],
      "name": "simulateRewardDeposit",
      "outputs": [],
      "payable": true,
      "stateMutability": "payable",
      "type": "function"
    }
  ],
  "bytecode": "0x6080604052622398806006556303c26700600755600880546001600160a01b0319167374682fc32007af0b6118f259cbe7bccc2164160017905534801561004557600080fd5b506040516020806119ae8339810180604052602081101561006557600080fd5b5051600080546001600160a01b0319163317808255604051839283926001600160a01b0316917f2da0f18c3d869cdc5baa95d5dfa6a6e8cb6db2bcd24c13c9410e1c686c9cb8ee908290a3600980546001600160a01b039092166001600160a01b0319928316179055600080549091163317905550506118c4806100ea6000396000f3fe6080604052600436106101805760003560e01c806396e4afa6116100d6578063c5f956af1161007f578063e2d4056811610059578063e2d4056814610470578063fb225c6814610485578063fda49eb4146104c057610180565b8063c5f956af14610413578063cd94885514610428578063da84e29b1461043d57610180565b8063b172b222116100b0578063b172b222146103b6578063c00007b0146103cb578063c414af59146103fe57610180565b806396e4afa61461033d5780639932ce711461036e578063aaee69d91461038357610180565b8063373d6132116101385780637a766460116101125780637a7664601461027957806382e4eda4146102ac5780638778f4151461030a57610180565b8063373d61321461023a5780634e71d92d1461024f5780634fbdea4d1461026457610180565b80632505b1bc116101695780632505b1bc146101f65780632c981d711461021d578063305d93df1461023257610180565b80630c03ed521461018a5780631129753f146101c3575b6101886104d5565b005b34801561019657600080fd5b50610188600480360360408110156101ad57600080fd5b506001600160a01b0381351690602001356104e8565b3480156101cf57600080fd5b50610188600480360360208110156101e657600080fd5b50356001600160a01b031661057f565b34801561020257600080fd5b5061020b6105fa565b60408051918252519081900360200190f35b34801561022957600080fd5b5061020b610600565b6101886104e6565b34801561024657600080fd5b5061020b610606565b34801561025b57600080fd5b5061018861060c565b34801561027057600080fd5b5061020b610739565b34801561028557600080fd5b5061020b6004803603602081101561029c57600080fd5b50356001600160a01b031661073f565b3480156102b857600080fd5b506102df600480360360208110156102cf57600080fd5b50356001600160a01b031661075a565b6040805195865260208601949094528484019290925260608401526080830152519081900360a00190f35b34801561031657600080fd5b5061020b6004803603602081101561032d57600080fd5b50356001600160a01b0316610788565b34801561034957600080fd5b506103526107a6565b604080516001600160a01b039092168252519081900360200190f35b34801561037a57600080fd5b506101886107b5565b34801561038f57600080fd5b50610188600480360360208110156103a657600080fd5b50356001600160a01b0316610858565b3480156103c257600080fd5b50610352610894565b3480156103d757600080fd5b5061020b600480360360208110156103ee57600080fd5b50356001600160a01b03166108a3565b34801561040a57600080fd5b5061020b610a34565b34801561041f57600080fd5b50610352610a3a565b34801561043457600080fd5b50610188610a49565b34801561044957600080fd5b506101886004803603602081101561046057600080fd5b50356001600160a01b0316610a6f565b34801561047c57600080fd5b5061020b610b6b565b34801561049157600080fd5b5061049a610b71565b604080519485526020850193909352838301919091526060830152519081900360800190f35b3480156104cc57600080fd5b50610352610b9f565b6104dd610bae565b6104e633610ccc565b565b600a546001600160a01b031633146104ff57600080fd5b6001600160a01b03821660009081526001602052604090206004015481111561057b576001600160a01b0382166000818152600160209081526040918290206004018490558151928352820183905280517fb3be0789f20b5816f24d07ccca682cb2591e0027636cf0f8876677c1cc3caad39281900390910190a15b5050565b6000546001600160a01b031633146105cb57604051600160e51b62461bcd02815260040180806020018281038252602681526020018061181b6026913960400191505060405180910390fd5b600a805473ffffffffffffffffffffffffffffffffffffffff19166001600160a01b0392909216919091179055565b60055481565b60065481565b60025481565b60065433600090815260016020526040902060020154429101116104e6576106376000806000610df8565b61063f610f73565b3360009081526001602081905260408220908101805492905542600290910155600454610672908263ffffffff61101616565b6004908155600954604080517faad3ec96000000000000000000000000000000000000000000000000000000008152339381019390935260248301849052516001600160a01b039091169163aad3ec9691604480830192600092919082900301818387803b1580156106e357600080fd5b505af11580156106f7573d6000803e3d6000fd5b5050604080513381526020810185905281517f47cee97cb7acd717b3c0aa1435d004cd5b3c8c57d70dbceb4e4458bbd60e39d49450908190039091019150a150565b60045481565b6001600160a01b031660009081526001602052604090205490565b6001602081905260009182526040909120805491810154600282015460038301546004909301549192909185565b6001600160a01b031660009081526001602052604090206002015490565b6009546001600160a01b031681565b6000546001600160a01b0316331461080157604051600160e51b62461bcd02815260040180806020018281038252602681526020018061181b6026913960400191505060405180910390fd5b600080546040516001600160a01b03909116907f2da0f18c3d869cdc5baa95d5dfa6a6e8cb6db2bcd24c13c9410e1c686c9cb8ee908390a36000805473ffffffffffffffffffffffffffffffffffffffff19169055565b6001600160a01b038116600090815260016020526040902060040154421161087f57600080fd5b6108888161105f565b61089181610ccc565b50565b600a546001600160a01b031681565b60048054600954604080517f21ce7daf000000000000000000000000000000000000000000000000000000008152309481019490945251600093849361094e9390926001600160a01b03909116916321ce7daf916024808301926020929190829003018186803b15801561091657600080fd5b505afa15801561092a573d6000803e3d6000fd5b505050506040513d602081101561094057600080fd5b50519063ffffffff61101616565b60055460025491925082039015610a105760006109a0610991600254610985670de0b6b3a76400008661129390919063ffffffff16565b9063ffffffff6112b816565b6003549063ffffffff61101616565b6001600160a01b038616600090815260016020526040812060030154919250906109d190839063ffffffff6112fa16565b6001600160a01b038716600090815260016020526040902054909150610a0b90670de0b6b3a764000090610985908463ffffffff61129316565b945050505b50506001600160a01b03909116600090815260016020819052604090912001540190565b60035481565b6008546001600160a01b031681565b336000908152600160205260409020600401544211610a6757600080fd5b6104dd61133c565b6000546001600160a01b03163314610abb57604051600160e51b62461bcd02815260040180806020018281038252602681526020018061181b6026913960400191505060405180910390fd5b6001600160a01b038116610b0357604051600160e51b62461bcd0281526004018080602001828103825260288152602001806118716028913960400191505060405180910390fd5b600080546040516001600160a01b03808516939216917f2da0f18c3d869cdc5baa95d5dfa6a6e8cb6db2bcd24c13c9410e1c686c9cb8ee91a36000805473ffffffffffffffffffffffffffffffffffffffff19166001600160a01b0392909216919091179055565b60075481565b3360008181526001602052604081208054600290910154909290914391610b97906108a3565b905090919293565b6000546001600160a01b031681565b610bbb3460006001610df8565b610bc3610f73565b33600090815260016020526040902054610be3903463ffffffff61101616565b336000908152600160205260408082209283554260029093019290925560095482517f3a4b66f100000000000000000000000000000000000000000000000000000000815292516001600160a01b0390911692633a4b66f192349260048084019382900301818588803b158015610c5957600080fd5b505af1158015610c6d573d6000803e3d6000fd5b505033600081815260016020908152604091829020548251938452349184019190915282820152426060830152517f949a8db76845fd137ed692e4a5b8de95cd6038978523b30ea532d711a93fbfa794509081900360800192509050a1565b600a54604080517f573705a60000000000000000000000000000000000000000000000000000000081526001600160a01b0384811660048301529151919092169163573705a6916024808301926020929190829003018186803b158015610d3257600080fd5b505afa158015610d46573d6000803e3d6000fd5b505050506040513d6020811015610d5c57600080fd5b50511561089157600a546001600160a01b038281166000908152600160205260408082205481517f3e5f60e6000000000000000000000000000000000000000000000000000000008152336004820152602481019190915290519290931692633e5f60e6926044808301939282900301818387803b158015610ddd57600080fd5b505af1158015610df1573d6000803e3d6000fd5b5050505050565b60048054600954604080517f21ce7daf000000000000000000000000000000000000000000000000000000008152309481019490945251600093610e6793926001600160a01b0316916321ce7daf91602480820192602092909190829003018186803b15801561091657600080fd5b90506000610e80600554836112fa90919063ffffffff16565b600583905560025490915015610ebb57600254610eb3906109919061098584670de0b6b3a764000063ffffffff61129316565b600355610eee565b600854610ed7906001600160a01b03168263ffffffff6114d616565b600454610eea908263ffffffff61101616565b6004555b828015610efb5750600085115b15610f1b57600254610f13908663ffffffff61101616565b600255610df1565b8315610df15760408051808201909152601d81527f436f6c645374616b696e673a207374616b65206e6f7420656e6f7567680000006020820152600254610f6991869063ffffffff6115c716565b6002555050505050565b3360009081526001602052604081206003908101549054610f999163ffffffff6112fa16565b3360009081526001602052604081205491925090610fcb90670de0b6b3a764000090610985908563ffffffff61129316565b3360009081526001602081905260409091200154909150610ff2908263ffffffff61101616565b33600090815260016020819052604090912090810191909155600380549101555050565b600061105883836040518060400160405280601b81526020017f536166654d6174683a206164646974696f6e206f766572666c6f770000000000815250611661565b9392505050565b6001600160a01b03811660009081526001602052604090205461108157600080fd5b6007546001600160a01b03821660009081526001602052604090206002015442916110b2919063ffffffff61101616565b106110f157604051600160e51b62461bcd0281526004018080602001828103825260278152602001806117d36027913960400191505060405180910390fd5b6001600160a01b038116600090815260016020526040812054611115919081610df8565b61111d610f73565b6001600160a01b03808216600081815260016020819052604080832091820180548354918590559284905560095482517ff3fef3a300000000000000000000000000000000000000000000000000000000815260048101969096526024860182905291519295909491169263f3fef3a39260448084019382900301818387803b1580156111a957600080fd5b505af11580156111bd573d6000803e3d6000fd5b5050600954600854604080517faad3ec960000000000000000000000000000000000000000000000000000000081526001600160a01b03928316600482015260248101889052905191909216935063aad3ec969250604480830192600092919082900301818387803b15801561123257600080fd5b505af1158015611246573d6000803e3d6000fd5b5050604080516001600160a01b03871681526020810185905281517f5a63f1ba543dd75fd2aa8dbd9da86cc185e5983fb3256c78c31b05e44203e1e69450908190039091019150a1505050565b600061105883836040518060600160405280602181526020016117fa602191396116c2565b600061105883836040518060400160405280601a81526020017f536166654d6174683a206469766973696f6e206279207a65726f000000000000815250611730565b600061105883836040518060400160405280601f81526020017f536166654d6174683a207375627472616374696f6e20756e646572666c6f77008152506115c7565b600654336000908152600160205260409020600201544291611364919063ffffffff61101616565b106113a357604051600160e51b62461bcd0281526004018080602001828103825260308152602001806118416030913960400191505060405180910390fd5b336000908152600160205260408120546113be919081610df8565b6113c6610f73565b33600090815260016020819052604082208054918101805484835593905542600290910155600454909190611401908263ffffffff61101616565b6004908155600954604080517fdbca1b8f00000000000000000000000000000000000000000000000000000000815233938101939093526024830185905260448301849052516001600160a01b039091169163dbca1b8f91606480830192600092919082900301818387803b15801561147957600080fd5b505af115801561148d573d6000803e3d6000fd5b5050604080513381526020810186905280820185905290517f5f808ed47938c2c6ffcf1784b8a3171a0e8cb25d277b291b26475b303473bbb09350908190036060019150a15050565b303181111561152f5760408051600160e51b62461bcd02815260206004820152601d60248201527f416464726573733a20696e73756666696369656e742062616c616e6365000000604482015290519081900360640190fd5b6040516000906001600160a01b0384169083908381818185875af1925050503d806000811461157a576040519150601f19603f3d011682016040523d82523d6000602084013e61157f565b606091505b50509050806115c257604051600160e51b62461bcd02815260040180806020018281038252603a815260200180611799603a913960400191505060405180910390fd5b505050565b6000818484111561165957604051600160e51b62461bcd0281526004018080602001828103825283818151815260200191508051906020019080838360005b8381101561161e578181015183820152602001611606565b50505050905090810190601f16801561164b5780820380516001836020036101000a031916815260200191505b509250505060405180910390fd5b505050900390565b600083830182858210156116b957604051600160e51b62461bcd02815260206004820181815283516024840152835190928392604490910191908501908083836000831561161e578181015183820152602001611606565b50949350505050565b6000836116d157506000611058565b838302838582816116de57fe5b041483906116b957604051600160e51b62461bcd02815260206004820181815283516024840152835190928392604490910191908501908083836000831561161e578181015183820152602001611606565b6000818361178257604051600160e51b62461bcd02815260206004820181815283516024840152835190928392604490910191908501908083836000831561161e578181015183820152602001611606565b50600083858161178e57fe5b049594505050505056fe416464726573733a20756e61626c6520746f2073656e642076616c75652c20726563697069656e74206d61792068617665207265766572746564436f6c645374616b696e675375623a2064656c6179206c657373207468616e2032207965617273536166654d6174683a206d756c7469706c69636174696f6e206f766572666c6f775472656173757265723a2063616c6c6572206973206e6f742074686520747265617375726572436f6c645374616b696e675375623a206d696e696d756d207374616b696e672074696d65206e6f7420726561636865645472656173757265723a206e657720747265617375726572206973207a65726f2061646472657373a165627a7a723058203d8be3a95a5389bc98e83090d190017123e89733a445eb32f7b8012acdb5671d0029",
  "source": "pragma solidity ^0.5.8;\n\nimport \"../ColdStakingVoting.sol\";\n\ncontract ColdStakingVotingMock is ColdStakingVoting  {\n    \n    constructor(address _coldStakingMain) ColdStakingVoting(_coldStakingMain) public {\n    }\n\n    function simulateRewardDeposit() public payable {\n    }\n}",
  "sourcePath": "/home/faycal/Desktop/projects/callisto-contracts/contracts/mocks/ColdStakingVotingMock.sol",
  "compiler": {
    "name": "solc",
    "version": "0.5.8+commit.23d335f2.Emscripten.clang"
  },
  "schemaVersion": "3.0.22",
  "updatedAt": "2020-02-23T11:15:40.091Z",
  "networkType": "ethereum",
  "devdoc": {
    "methods": {}
  },
  "userdoc": {
    "methods": {}
  }
}