{
  "contractName": "ColdStakingSub",
  "abi": [
    {
      "constant": true,
      "inputs": [],
      "name": "lastTotalReward",
      "outputs": [
        {
          "name": "",
          "type": "uint256"
        }
      ],
      "payable": false,
      "stateMutability": "view",
      "type": "function"
    },
    {
      "constant": true,
      "inputs": [],
      "name": "claim_delay",
      "outputs": [
        {
          "name": "",
          "type": "uint256"
        }
      ],
      "payable": false,
      "stateMutability": "view",
      "type": "function"
    },
    {
      "constant": true,
      "inputs": [],
      "name": "stakedAmount",
      "outputs": [
        {
          "name": "",
          "type": "uint256"
        }
      ],
      "payable": false,
      "stateMutability": "view",
      "type": "function"
    },
    {
      "constant": true,
      "inputs": [],
      "name": "totalClaimedReward",
      "outputs": [
        {
          "name": "",
          "type": "uint256"
        }
      ],
      "payable": false,
      "stateMutability": "view",
      "type": "function"
    },
    {
      "constant": true,
      "inputs": [
        {
          "name": "",
          "type": "address"
        }
      ],
      "name": "stakers",
      "outputs": [
        {
          "name": "stake",
          "type": "uint256"
        },
        {
          "name": "reward",
          "type": "uint256"
        },
        {
          "name": "lastClaim",
          "type": "uint256"
        },
        {
          "name": "lastWeightedBlockReward",
          "type": "uint256"
        },
        {
          "name": "voteWithdrawalDeadline",
          "type": "uint256"
        }
      ],
      "payable": false,
      "stateMutability": "view",
      "type": "function"
    },
    {
      "constant": true,
      "inputs": [],
      "name": "coldStakingMain",
      "outputs": [
        {
          "name": "",
          "type": "address"
        }
      ],
      "payable": false,
      "stateMutability": "view",
      "type": "function"
    },
    {
      "constant": false,
      "inputs": [],
      "name": "renounceTreasurerOwnership",
      "outputs": [],
      "payable": false,
      "stateMutability": "nonpayable",
      "type": "function"
    },
    {
      "constant": true,
      "inputs": [],
      "name": "weightedBlockReward",
      "outputs": [
        {
          "name": "",
          "type": "uint256"
        }
      ],
      "payable": false,
      "stateMutability": "view",
      "type": "function"
    },
    {
      "constant": true,
      "inputs": [],
      "name": "treasuryAddress",
      "outputs": [
        {
          "name": "",
          "type": "address"
        }
      ],
      "payable": false,
      "stateMutability": "view",
      "type": "function"
    },
    {
      "constant": false,
      "inputs": [
        {
          "name": "newTreasurer",
          "type": "address"
        }
      ],
      "name": "transferTreasurerOwnership",
      "outputs": [],
      "payable": false,
      "stateMutability": "nonpayable",
      "type": "function"
    },
    {
      "constant": true,
      "inputs": [],
      "name": "max_delay",
      "outputs": [
        {
          "name": "",
          "type": "uint256"
        }
      ],
      "payable": false,
      "stateMutability": "view",
      "type": "function"
    },
    {
      "constant": true,
      "inputs": [],
      "name": "treasurer",
      "outputs": [
        {
          "name": "",
          "type": "address"
        }
      ],
      "payable": false,
      "stateMutability": "view",
      "type": "function"
    },
    {
      "inputs": [
        {
          "name": "_coldStakingMain",
          "type": "address"
        }
      ],
      "payable": false,
      "stateMutability": "nonpayable",
      "type": "constructor"
    },
    {
      "payable": true,
      "stateMutability": "payable",
      "type": "fallback"
    },
    {
      "anonymous": false,
      "inputs": [
        {
          "indexed": false,
          "name": "addr",
          "type": "address"
        },
        {
          "indexed": false,
          "name": "value",
          "type": "uint256"
        },
        {
          "indexed": false,
          "name": "amount",
          "type": "uint256"
        },
        {
          "indexed": false,
          "name": "time",
          "type": "uint256"
        }
      ],
      "name": "Staking",
      "type": "event"
    },
    {
      "anonymous": false,
      "inputs": [
        {
          "indexed": false,
          "name": "staker",
          "type": "address"
        },
        {
          "indexed": false,
          "name": "amount",
          "type": "uint256"
        },
        {
          "indexed": false,
          "name": "reward",
          "type": "uint256"
        }
      ],
      "name": "WithdrawStake",
      "type": "event"
    },
    {
      "anonymous": false,
      "inputs": [
        {
          "indexed": false,
          "name": "staker",
          "type": "address"
        },
        {
          "indexed": false,
          "name": "reward",
          "type": "uint256"
        }
      ],
      "name": "Claim",
      "type": "event"
    },
    {
      "anonymous": false,
      "inputs": [
        {
          "indexed": false,
          "name": "_address",
          "type": "address"
        },
        {
          "indexed": false,
          "name": "value",
          "type": "uint256"
        }
      ],
      "name": "DonationDeposited",
      "type": "event"
    },
    {
      "anonymous": false,
      "inputs": [
        {
          "indexed": false,
          "name": "_voter",
          "type": "address"
        },
        {
          "indexed": false,
          "name": "_time",
          "type": "uint256"
        }
      ],
      "name": "VoterWithrawlDeadlineUpdate",
      "type": "event"
    },
    {
      "anonymous": false,
      "inputs": [
        {
          "indexed": false,
          "name": "_addr",
          "type": "address"
        },
        {
          "indexed": false,
          "name": "value",
          "type": "uint256"
        }
      ],
      "name": "InactiveStaker",
      "type": "event"
    },
    {
      "anonymous": false,
      "inputs": [
        {
          "indexed": true,
          "name": "previousOwner",
          "type": "address"
        },
        {
          "indexed": true,
          "name": "newOwner",
          "type": "address"
        }
      ],
      "name": "TreasurerOwnershipTransferred",
      "type": "event"
    },
    {
      "constant": false,
      "inputs": [],
      "name": "start_staking",
      "outputs": [],
      "payable": true,
      "stateMutability": "payable",
      "type": "function"
    },
    {
      "constant": false,
      "inputs": [],
      "name": "withdraw_stake",
      "outputs": [],
      "payable": false,
      "stateMutability": "nonpayable",
      "type": "function"
    },
    {
      "constant": false,
      "inputs": [],
      "name": "claim",
      "outputs": [],
      "payable": false,
      "stateMutability": "nonpayable",
      "type": "function"
    },
    {
      "constant": true,
      "inputs": [],
      "name": "staker_info",
      "outputs": [
        {
          "name": "weight",
          "type": "uint256"
        },
        {
          "name": "init",
          "type": "uint256"
        },
        {
          "name": "actual_block",
          "type": "uint256"
        },
        {
          "name": "_reward",
          "type": "uint256"
        }
      ],
      "payable": false,
      "stateMutability": "view",
      "type": "function"
    },
    {
      "constant": false,
      "inputs": [
        {
          "name": "_addr",
          "type": "address"
        }
      ],
      "name": "report_abuse",
      "outputs": [],
      "payable": false,
      "stateMutability": "nonpayable",
      "type": "function"
    },
    {
      "constant": true,
      "inputs": [
        {
          "name": "_addr",
          "type": "address"
        }
      ],
      "name": "getReward",
      "outputs": [
        {
          "name": "_reward",
          "type": "uint256"
        }
      ],
      "payable": false,
      "stateMutability": "view",
      "type": "function"
    },
    {
      "constant": true,
      "inputs": [
        {
          "name": "_addr",
          "type": "address"
        }
      ],
      "name": "getLastClaim",
      "outputs": [
        {
          "name": "",
          "type": "uint256"
        }
      ],
      "payable": false,
      "stateMutability": "view",
      "type": "function"
    },
    {
      "constant": true,
      "inputs": [
        {
          "name": "_addr",
          "type": "address"
        }
      ],
      "name": "getStake",
      "outputs": [
        {
          "name": "",
          "type": "uint256"
        }
      ],
      "payable": false,
      "stateMutability": "view",
      "type": "function"
    }
  ],
  "bytecode": "0x6080604052622398806006556303c2670060075560088054600160a060020a0319167374682fc32007af0b6118f259cbe7bccc2164160017905534801561004557600080fd5b506040516020806118ac8339810180604052602081101561006557600080fd5b505160008054600160a060020a0319163317808255604051600160a060020a039190911691907f2da0f18c3d869cdc5baa95d5dfa6a6e8cb6db2bcd24c13c9410e1c686c9cb8ee908290a360098054600160a060020a031916600160a060020a03929092169190911790556117cd806100df6000396000f3fe60806040526004361061017c576000357c0100000000000000000000000000000000000000000000000000000000900480639932ce71116100dd578063cd94885511610091578063e2d4056811610076578063e2d405681461043e578063fb225c6814610453578063fda49eb41461048e5761017c565b8063cd948855146103e9578063da84e29b146103fe5761017c565b8063c00007b0116100c2578063c00007b01461037f578063c414af59146103bf578063c5f956af146103d45761017c565b80639932ce711461032a578063aaee69d91461033f5761017c565b80634fbdea4d116101345780638778f415116101195780638778f415146102415780639168ae721461028157806396e4afa6146102ec5761017c565b80634fbdea4d146101ec5780637a766460146102015761017c565b80632c981d71116101655780632c981d71146101ad578063373d6132146101c25780634e71d92d146101d75761017c565b80631f288efb1461017c5780632505b1bc14610186575b6101846104a3565b005b34801561019257600080fd5b5061019b6105b6565b60408051918252519081900360200190f35b3480156101b957600080fd5b5061019b6105bc565b3480156101ce57600080fd5b5061019b6105c2565b3480156101e357600080fd5b506101846105c8565b3480156101f857600080fd5b5061019b610748565b34801561020d57600080fd5b5061019b6004803603602081101561022457600080fd5b503573ffffffffffffffffffffffffffffffffffffffff1661074e565b34801561024d57600080fd5b5061019b6004803603602081101561026457600080fd5b503573ffffffffffffffffffffffffffffffffffffffff16610776565b34801561028d57600080fd5b506102c1600480360360208110156102a457600080fd5b503573ffffffffffffffffffffffffffffffffffffffff166107a1565b6040805195865260208601949094528484019290925260608401526080830152519081900360a00190f35b3480156102f857600080fd5b506103016107cf565b6040805173ffffffffffffffffffffffffffffffffffffffff9092168252519081900360200190f35b34801561033657600080fd5b506101846107eb565b34801561034b57600080fd5b506101846004803603602081101561036257600080fd5b503573ffffffffffffffffffffffffffffffffffffffff166108ca565b34801561038b57600080fd5b5061019b600480360360208110156103a257600080fd5b503573ffffffffffffffffffffffffffffffffffffffff16610b15565b3480156103cb57600080fd5b5061019b610cda565b3480156103e057600080fd5b50610301610ce0565b3480156103f557600080fd5b50610184610cfc565b34801561040a57600080fd5b506101846004803603602081101561042157600080fd5b503573ffffffffffffffffffffffffffffffffffffffff16610ea1565b34801561044a57600080fd5b5061019b61100a565b34801561045f57600080fd5b50610468611010565b604080519485526020850193909352838301919091526060830152519081900360800190f35b34801561049a57600080fd5b5061030161103e565b3360009081526001602081905260408220916104c19134919061105a565b6104ca816111ec565b80546104dc903463ffffffff61125616565b8155426002820155600954604080517f3a4b66f1000000000000000000000000000000000000000000000000000000008152905173ffffffffffffffffffffffffffffffffffffffff90921691633a4b66f1913491600480830192600092919082900301818588803b15801561055157600080fd5b505af1158015610565573d6000803e3d6000fd5b505083546040805133815234602082015280820192909252426060830152517f949a8db76845fd137ed692e4a5b8de95cd6038978523b30ea532d711a93fbfa794509081900360800192509050a150565b60055481565b60065481565b60025481565b33600090815260016020526040902060065460028201544291011115610639576040517f08c379a000000000000000000000000000000000000000000000000000000000815260040180806020018281038252603081526020018061174a6030913960400191505060405180910390fd5b610646600080600061105a565b61064f816111ec565b6001810180546000909155426002830155600454610673908263ffffffff61125616565b6004908155600954604080517faad3ec960000000000000000000000000000000000000000000000000000000081523393810193909352602483018490525173ffffffffffffffffffffffffffffffffffffffff9091169163aad3ec9691604480830192600092919082900301818387803b1580156106f157600080fd5b505af1158015610705573d6000803e3d6000fd5b5050604080513381526020810185905281517f47cee97cb7acd717b3c0aa1435d004cd5b3c8c57d70dbceb4e4458bbd60e39d49450908190039091019150a15050565b60045481565b73ffffffffffffffffffffffffffffffffffffffff1660009081526001602052604090205490565b73ffffffffffffffffffffffffffffffffffffffff1660009081526001602052604090206002015490565b6001602081905260009182526040909120805491810154600282015460038301546004909301549192909185565b60095473ffffffffffffffffffffffffffffffffffffffff1681565b60005473ffffffffffffffffffffffffffffffffffffffff16331461085b576040517f08c379a00000000000000000000000000000000000000000000000000000000081526004018080602001828103825260268152602001806117246026913960400191505060405180910390fd5b6000805460405173ffffffffffffffffffffffffffffffffffffffff909116907f2da0f18c3d869cdc5baa95d5dfa6a6e8cb6db2bcd24c13c9410e1c686c9cb8ee908390a3600080547fffffffffffffffffffffffff0000000000000000000000000000000000000000169055565b73ffffffffffffffffffffffffffffffffffffffff8116600090815260016020526040902080546108fa57600080fd5b42610914600754836002015461125690919063ffffffff16565b1061096a576040517f08c379a00000000000000000000000000000000000000000000000000000000081526004018080602001828103825260278152602001806116dc6027913960400191505060405180910390fd5b61097b60008260000154600061105a565b610984816111ec565b6001810180548254600092839055828455600954604080517ff3fef3a300000000000000000000000000000000000000000000000000000000815273ffffffffffffffffffffffffffffffffffffffff888116600483015260248201859052915194959394919092169263f3fef3a3926044808201939182900301818387803b158015610a1057600080fd5b505af1158015610a24573d6000803e3d6000fd5b5050600954600854604080517faad3ec9600000000000000000000000000000000000000000000000000000000815273ffffffffffffffffffffffffffffffffffffffff928316600482015260248101889052905191909216935063aad3ec969250604480830192600092919082900301818387803b158015610aa657600080fd5b505af1158015610aba573d6000803e3d6000fd5b50506040805173ffffffffffffffffffffffffffffffffffffffff881681526020810185905281517f5a63f1ba543dd75fd2aa8dbd9da86cc185e5983fb3256c78c31b05e44203e1e69450908190039091019150a150505050565b60048054600954604080517f21ce7daf0000000000000000000000000000000000000000000000000000000081523094810194909452516000938493610bcd93909273ffffffffffffffffffffffffffffffffffffffff909116916321ce7daf916024808301926020929190829003018186803b158015610b9557600080fd5b505afa158015610ba9573d6000803e3d6000fd5b505050506040513d6020811015610bbf57600080fd5b50519063ffffffff61125616565b60055460025491925082039015610ca9576000610c1f610c10600254610c04670de0b6b3a76400008661129f90919063ffffffff16565b9063ffffffff6112c416565b6003549063ffffffff61125616565b73ffffffffffffffffffffffffffffffffffffffff861660009081526001602052604081206003015491925090610c5d90839063ffffffff61130616565b73ffffffffffffffffffffffffffffffffffffffff8716600090815260016020526040902054909150610ca490670de0b6b3a764000090610c04908463ffffffff61129f16565b945050505b505073ffffffffffffffffffffffffffffffffffffffff909116600090815260016020819052604090912001540190565b60035481565b60085473ffffffffffffffffffffffffffffffffffffffff1681565b33600090815260016020526040902060065460028201544291610d25919063ffffffff61125616565b10610d7b576040517f08c379a000000000000000000000000000000000000000000000000000000000815260040180806020018281038252603081526020018061174a6030913960400191505060405180910390fd5b610d8c60008260000154600061105a565b610d95816111ec565b80546001820180546000808555909155426002840155600454610dbe908263ffffffff61125616565b6004908155600954604080517fdbca1b8f000000000000000000000000000000000000000000000000000000008152339381019390935260248301859052604483018490525173ffffffffffffffffffffffffffffffffffffffff9091169163dbca1b8f91606480830192600092919082900301818387803b158015610e4357600080fd5b505af1158015610e57573d6000803e3d6000fd5b5050604080513381526020810186905280820185905290517f5f808ed47938c2c6ffcf1784b8a3171a0e8cb25d277b291b26475b303473bbb09350908190036060019150a1505050565b60005473ffffffffffffffffffffffffffffffffffffffff163314610f11576040517f08c379a00000000000000000000000000000000000000000000000000000000081526004018080602001828103825260268152602001806117246026913960400191505060405180910390fd5b73ffffffffffffffffffffffffffffffffffffffff8116610f7d576040517f08c379a000000000000000000000000000000000000000000000000000000000815260040180806020018281038252602881526020018061177a6028913960400191505060405180910390fd5b6000805460405173ffffffffffffffffffffffffffffffffffffffff808516939216917f2da0f18c3d869cdc5baa95d5dfa6a6e8cb6db2bcd24c13c9410e1c686c9cb8ee91a3600080547fffffffffffffffffffffffff00000000000000000000000000000000000000001673ffffffffffffffffffffffffffffffffffffffff92909216919091179055565b60075481565b336000818152600160205260408120805460029091015490929091439161103690610b15565b905090919293565b60005473ffffffffffffffffffffffffffffffffffffffff1681565b60025460048054600954604080517f21ce7daf00000000000000000000000000000000000000000000000000000000815230948101949094525191926000926110de92859273ffffffffffffffffffffffffffffffffffffffff909116916321ce7daf91602480820192602092909190829003018186803b158015610b9557600080fd5b905060006110f76005548361130690919063ffffffff16565b60058390559050831561112b57611123610c1085610c0484670de0b6b3a764000063ffffffff61129f16565b600355611168565b6008546111549073ffffffffffffffffffffffffffffffffffffffff168263ffffffff61134816565b611164838263ffffffff61125616565b6004555b8480156111755750600087115b156111925761118a848863ffffffff61125616565b6002556111e3565b85156111e35760408051808201909152601d81527f436f6c645374616b696e673a207374616b65206e6f7420656e6f75676800000060208201526111df908590889063ffffffff61147416565b6002555b50505050505050565b600380549082015460009061120890839063ffffffff61130616565b9050600061122f670de0b6b3a7640000610c0484876000015461129f90919063ffffffff16565b6001850154909150611247908263ffffffff61125616565b60018501555050600390910155565b600061129883836040518060400160405280601b81526020017f536166654d6174683a206164646974696f6e206f766572666c6f770000000000815250611525565b9392505050565b600061129883836040518060600160405280602181526020016117036021913961159d565b600061129883836040518060400160405280601a81526020017f536166654d6174683a206469766973696f6e206279207a65726f000000000000815250611622565b600061129883836040518060400160405280601f81526020017f536166654d6174683a207375627472616374696f6e20756e646572666c6f7700815250611474565b30318111156113b857604080517f08c379a000000000000000000000000000000000000000000000000000000000815260206004820152601d60248201527f416464726573733a20696e73756666696369656e742062616c616e6365000000604482015290519081900360640190fd5b60405160009073ffffffffffffffffffffffffffffffffffffffff84169083908381818185875af1925050503d8060008114611410576040519150601f19603f3d011682016040523d82523d6000602084013e611415565b606091505b505090508061146f576040517f08c379a000000000000000000000000000000000000000000000000000000000815260040180806020018281038252603a8152602001806116a2603a913960400191505060405180910390fd5b505050565b6000818484111561151d576040517f08c379a00000000000000000000000000000000000000000000000000000000081526004018080602001828103825283818151815260200191508051906020019080838360005b838110156114e25781810151838201526020016114ca565b50505050905090810190601f16801561150f5780820380516001836020036101000a031916815260200191505b509250505060405180910390fd5b505050900390565b60008383018285821015611594576040517f08c379a00000000000000000000000000000000000000000000000000000000081526020600482018181528351602484015283519092839260449091019190850190808383600083156114e25781810151838201526020016114ca565b50949350505050565b6000836115ac57506000611298565b838302838582816115b957fe5b04148390611594576040517f08c379a00000000000000000000000000000000000000000000000000000000081526020600482018181528351602484015283519092839260449091019190850190808383600083156114e25781810151838201526020016114ca565b6000818361168b576040517f08c379a00000000000000000000000000000000000000000000000000000000081526020600482018181528351602484015283519092839260449091019190850190808383600083156114e25781810151838201526020016114ca565b50600083858161169757fe5b049594505050505056fe416464726573733a20756e61626c6520746f2073656e642076616c75652c20726563697069656e74206d61792068617665207265766572746564436f6c645374616b696e675375623a2064656c6179206c657373207468616e2032207965617273536166654d6174683a206d756c7469706c69636174696f6e206f766572666c6f775472656173757265723a2063616c6c6572206973206e6f742074686520747265617375726572436f6c645374616b696e675375623a206d696e696d756d207374616b696e672074696d65206e6f7420726561636865645472656173757265723a206e657720747265617375726572206973207a65726f2061646472657373a165627a7a7230582021621155044270862cdfa54874f60899bcf170ac38441c1cd4158f30739072690029",
  "source": "pragma solidity ^0.5.8;\n\nimport \"./utils/SafeMath.sol\";\nimport \"./utils/Address.sol\";\nimport \"./interfaces/IColdStakingMain.sol\";\nimport \"./interfaces/IColdStakingSub.sol\";\nimport \"./utils/Treasurer.sol\";\n\ncontract ColdStakingSub is Treasurer, IColdStakingSub\n{\n    using SafeMath for uint;\n    using Address for address;\n    using Address for address payable;\n\n    struct Staker {\n        uint stake;\n        uint reward;        \n        uint lastClaim;\n        uint lastWeightedBlockReward;\n        uint voteWithdrawalDeadline;\n    }\n    \n    mapping(address => Staker) public stakers;\n    \n    \n    uint public stakedAmount;\n    uint public weightedBlockReward;\n    uint public totalClaimedReward;\n    uint public lastTotalReward;\n \n    uint public claim_delay = 27 days;\n    uint public max_delay = 365 * 2 days; \n\n    address payable public treasuryAddress = 0x74682Fc32007aF0b6118F259cBe7bCCC21641600;\n    \n    IColdStakingMain public coldStakingMain;\n\n    constructor(address _coldStakingMain) public {\n        coldStakingMain = IColdStakingMain(_coldStakingMain);\n    }\n    \n    function() external payable {\n        start_staking();\n    }\n\n    function stake_update(uint _deposit,uint _withdraw, bool _sign) internal {\n\n        uint m_stakedAmount = stakedAmount;\n        uint m_totalClaimedReward = totalClaimedReward;\n\n        uint newTotalReward = coldStakingMain.subContractReward(address(this)).add(m_totalClaimedReward);\n        uint intervalReward = newTotalReward.sub(lastTotalReward);\n        \n        lastTotalReward = newTotalReward;\n\n        if (m_stakedAmount!=0) weightedBlockReward = weightedBlockReward.add(intervalReward.mul(1 ether).div(m_stakedAmount));\n        else {\n            treasuryAddress.sendValue(intervalReward);\n            totalClaimedReward = m_totalClaimedReward.add(intervalReward);\n        }\n\n        if(_sign && _deposit > 0) stakedAmount = m_stakedAmount.add(_deposit);\n        else if(_withdraw > 0) stakedAmount = m_stakedAmount.sub(_withdraw,\"ColdStaking: stake not enough\");\n\n    }\n\n    function reward_update(Staker storage staker) internal {\n        uint m_weightedBlockReward = weightedBlockReward;\n        uint stakerIntervalWeightedBlockReward = m_weightedBlockReward.sub(staker.lastWeightedBlockReward);\n        uint _reward = staker.stake.mul(stakerIntervalWeightedBlockReward).div(1 ether);\n        \n        staker.reward = staker.reward.add(_reward);\n        staker.lastWeightedBlockReward = m_weightedBlockReward;\n    }\n\n    function start_staking() public payable {\n        Staker storage staker = stakers[msg.sender];\n        stake_update(msg.value,0,true);\n        reward_update(staker); \n        \n        staker.stake =  staker.stake.add(msg.value);\n        staker.lastClaim = block.timestamp;\n        \n        coldStakingMain.stake.value(msg.value)();\n        emit Staking(msg.sender,msg.value,staker.stake,block.timestamp);\n    }\n\n    function withdraw_stake() public \n    {   Staker storage staker = stakers[msg.sender];\n        require(staker.lastClaim.add(claim_delay) < block.timestamp,\"ColdStakingSub: minimum staking time not reached\");\n            \n        stake_update(0,staker.stake,false);\n        reward_update(staker);\n        \n        uint _stake = staker.stake;\n        uint _reward = staker.reward;\n\n        staker.stake = 0;\n        staker.reward = 0;\n        staker.lastClaim = block.timestamp;\n\n        totalClaimedReward = totalClaimedReward.add(_reward); \n        coldStakingMain.withdrawAndClaim(msg.sender,_stake,_reward);\n        emit WithdrawStake(msg.sender,_stake,_reward);\n    }\n\n    function claim() public {\n        Staker storage staker = stakers[msg.sender];\n        require(staker.lastClaim + claim_delay <= block.timestamp,\"ColdStakingSub: minimum staking time not reached\");\n        \n        stake_update(0,0,false);\n        reward_update(staker);\n        \n        uint _reward = staker.reward;\n            \n        staker.reward = 0;\n        staker.lastClaim = block.timestamp;\n\n        totalClaimedReward = totalClaimedReward.add(_reward);\n        coldStakingMain.claim(msg.sender,_reward);\n        emit Claim(msg.sender, _reward);\n    }\n\n    function staker_info() public view returns(uint256 weight, uint256 init, uint256 actual_block,uint256 _reward)\n    {\n        weight = stakers[msg.sender].stake;\n        init = stakers[msg.sender].lastClaim;\n        actual_block = block.number;\n        _reward = getReward(msg.sender);\n\n    }\n    \n    function report_abuse(address _addr) public\n    {\n        Staker storage staker = stakers[_addr];\n        require(staker.stake > 0);\n        require(staker.lastClaim.add(max_delay) < block.timestamp,\"ColdStakingSub: delay less than 2 years\");\n        \n        stake_update(0,staker.stake,false);\n        reward_update(staker);\n\n        uint _reward = staker.reward;\n        uint _stake = staker.stake; \n\n        staker.reward = 0;\n        staker.stake = 0;\n\n        coldStakingMain.withdraw(_addr,_stake);\n        coldStakingMain.claim(address(treasuryAddress),_reward);\n        emit InactiveStaker(_addr,_stake);\n    }\n\n    function getReward(address _addr) public view returns(uint _reward) {\n        uint newTotalReward = coldStakingMain.subContractReward(address(this)).add(totalClaimedReward);\n        uint intervalReward = newTotalReward - lastTotalReward;\n\n        if (stakedAmount!=0) {\n            uint _weightedBlockReward = weightedBlockReward.add(intervalReward.mul(1 ether).div(stakedAmount));\n            uint _stakerIntervalWeightedBlockReward = _weightedBlockReward.sub(stakers[_addr].lastWeightedBlockReward);\n            _reward = stakers[_addr].stake.mul(_stakerIntervalWeightedBlockReward).div(1 ether);\n        } \n        _reward = stakers[_addr].reward + _reward;\n    }\n    \n    function getLastClaim(address _addr) public view returns(uint) {\n        return stakers[_addr].lastClaim;\n    }\n\n    function getStake(address _addr) public view returns(uint) {\n        return stakers[_addr].stake;\n    }\n}\n",
  "sourcePath": "/home/faycal/callisto-staking/contracts/ColdStakingSub.sol",
  "compiler": {
    "name": "solc",
    "version": "0.5.8+commit.23d335f2.Emscripten.clang"
  },
  "schemaVersion": "3.0.1",
  "updatedAt": "2020-03-06T15:43:30.723Z",
  "devdoc": {
    "methods": {}
  },
  "userdoc": {
    "methods": {}
  }
}