{
  "contractName": "ColdStakingMainMock",
  "abi": [
    {
      "constant": true,
      "inputs": [],
      "name": "totalAmount",
      "outputs": [
        {
          "name": "",
          "type": "uint256"
        }
      ],
      "payable": false,
      "stateMutability": "view",
      "type": "function"
    },
    {
      "constant": true,
      "inputs": [
        {
          "name": "_addr",
          "type": "address"
        }
      ],
      "name": "subContractReward",
      "outputs": [
        {
          "name": "_reward",
          "type": "uint256"
        }
      ],
      "payable": false,
      "stateMutability": "view",
      "type": "function"
    },
    {
      "constant": true,
      "inputs": [],
      "name": "lastTotalReward",
      "outputs": [
        {
          "name": "",
          "type": "uint256"
        }
      ],
      "payable": false,
      "stateMutability": "view",
      "type": "function"
    },
    {
      "constant": false,
      "inputs": [],
      "name": "stake",
      "outputs": [],
      "payable": true,
      "stateMutability": "payable",
      "type": "function"
    },
    {
      "constant": true,
      "inputs": [],
      "name": "totalClaimedReward",
      "outputs": [
        {
          "name": "",
          "type": "uint256"
        }
      ],
      "payable": false,
      "stateMutability": "view",
      "type": "function"
    },
    {
      "constant": true,
      "inputs": [
        {
          "name": "",
          "type": "address"
        }
      ],
      "name": "subcontracts",
      "outputs": [
        {
          "name": "whitelisted",
          "type": "bool"
        },
        {
          "name": "stake",
          "type": "uint256"
        },
        {
          "name": "reward",
          "type": "uint256"
        },
        {
          "name": "lastWeightedBlockReward",
          "type": "uint256"
        }
      ],
      "payable": false,
      "stateMutability": "view",
      "type": "function"
    },
    {
      "constant": false,
      "inputs": [],
      "name": "renounceTreasurerOwnership",
      "outputs": [],
      "payable": false,
      "stateMutability": "nonpayable",
      "type": "function"
    },
    {
      "constant": false,
      "inputs": [
        {
          "name": "_addr",
          "type": "address"
        },
        {
          "name": "_reward",
          "type": "uint256"
        }
      ],
      "name": "claim",
      "outputs": [],
      "payable": false,
      "stateMutability": "nonpayable",
      "type": "function"
    },
    {
      "constant": true,
      "inputs": [],
      "name": "weightedBlockReward",
      "outputs": [
        {
          "name": "",
          "type": "uint256"
        }
      ],
      "payable": false,
      "stateMutability": "view",
      "type": "function"
    },
    {
      "constant": true,
      "inputs": [],
      "name": "treasuryAddress",
      "outputs": [
        {
          "name": "",
          "type": "address"
        }
      ],
      "payable": false,
      "stateMutability": "view",
      "type": "function"
    },
    {
      "constant": false,
      "inputs": [
        {
          "name": "_addr",
          "type": "address"
        },
        {
          "name": "_whitelisted",
          "type": "bool"
        }
      ],
      "name": "setWhiteListedAddress",
      "outputs": [],
      "payable": false,
      "stateMutability": "nonpayable",
      "type": "function"
    },
    {
      "constant": false,
      "inputs": [
        {
          "name": "newTreasurer",
          "type": "address"
        }
      ],
      "name": "transferTreasurerOwnership",
      "outputs": [],
      "payable": false,
      "stateMutability": "nonpayable",
      "type": "function"
    },
    {
      "constant": false,
      "inputs": [
        {
          "name": "_addr",
          "type": "address"
        },
        {
          "name": "_amount",
          "type": "uint256"
        },
        {
          "name": "_reward",
          "type": "uint256"
        }
      ],
      "name": "withdrawAndClaim",
      "outputs": [],
      "payable": false,
      "stateMutability": "nonpayable",
      "type": "function"
    },
    {
      "constant": false,
      "inputs": [
        {
          "name": "_addr",
          "type": "address"
        },
        {
          "name": "_amount",
          "type": "uint256"
        }
      ],
      "name": "withdraw",
      "outputs": [],
      "payable": false,
      "stateMutability": "nonpayable",
      "type": "function"
    },
    {
      "constant": true,
      "inputs": [],
      "name": "treasurer",
      "outputs": [
        {
          "name": "",
          "type": "address"
        }
      ],
      "payable": false,
      "stateMutability": "view",
      "type": "function"
    },
    {
      "anonymous": false,
      "inputs": [
        {
          "indexed": true,
          "name": "previousOwner",
          "type": "address"
        },
        {
          "indexed": true,
          "name": "newOwner",
          "type": "address"
        }
      ],
      "name": "TreasurerOwnershipTransferred",
      "type": "event"
    },
    {
      "constant": false,
      "inputs": [],
      "name": "simulateRewardDeposit",
      "outputs": [],
      "payable": true,
      "stateMutability": "payable",
      "type": "function"
    },
    {
      "constant": true,
      "inputs": [
        {
          "name": "_addr",
          "type": "address"
        }
      ],
      "name": "getStake",
      "outputs": [
        {
          "name": "",
          "type": "uint256"
        }
      ],
      "payable": false,
      "stateMutability": "view",
      "type": "function"
    },
    {
      "constant": true,
      "inputs": [
        {
          "name": "_addr",
          "type": "address"
        }
      ],
      "name": "getReward",
      "outputs": [
        {
          "name": "",
          "type": "uint256"
        }
      ],
      "payable": false,
      "stateMutability": "view",
      "type": "function"
    }
  ],
  "bytecode": "0x60806040819052600680546001600160a01b03199081167374682fc32007af0b6118f259cbe7bccc21641600179091556000805490911633178082556001600160a01b0316917f2da0f18c3d869cdc5baa95d5dfa6a6e8cb6db2bcd24c13c9410e1c686c9cb8ee908290a3611122806100796000396000f3fe6080604052600436106101295760003560e01c8063aad3ec96116100a5578063d7a6aeda11610074578063dbca1b8f11610059578063dbca1b8f14610387578063f3fef3a3146103c6578063fda49eb4146103ff57610129565b8063d7a6aeda14610319578063da84e29b1461035457610129565b8063aad3ec9614610267578063c00007b0146102a0578063c414af59146102d3578063c5f956af146102e857610129565b80633a4b66f1116100fc5780637519a86a116100e15780637519a86a146101c45780637a7664601461021f5780639932ce711461025257610129565b80633a4b66f1146101a75780634fbdea4d146101af57610129565b80631a39d8ef1461012e57806321ce7daf146101555780632505b1bc14610188578063305d93df1461019d575b600080fd5b34801561013a57600080fd5b50610143610414565b60408051918252519081900360200190f35b34801561016157600080fd5b506101436004803603602081101561017857600080fd5b50356001600160a01b031661041a565b34801561019457600080fd5b5061014361055f565b6101a5610565565b005b6101a5610567565b3480156101bb57600080fd5b506101436105ec565b3480156101d057600080fd5b506101f7600480360360208110156101e757600080fd5b50356001600160a01b03166105f2565b6040805194151585526020850193909352838301919091526060830152519081900360800190f35b34801561022b57600080fd5b506101436004803603602081101561024257600080fd5b50356001600160a01b0316610620565b34801561025e57600080fd5b506101a561063f565b34801561027357600080fd5b506101a56004803603604081101561028a57600080fd5b506001600160a01b0381351690602001356106ed565b3480156102ac57600080fd5b50610143600480360360208110156102c357600080fd5b50356001600160a01b03166107a8565b3480156102df57600080fd5b506101436107c6565b3480156102f457600080fd5b506102fd6107cc565b604080516001600160a01b039092168252519081900360200190f35b34801561032557600080fd5b506101a56004803603604081101561033c57600080fd5b506001600160a01b03813516906020013515156107db565b34801561036057600080fd5b506101a56004803603602081101561037757600080fd5b50356001600160a01b0316610870565b34801561039357600080fd5b506101a5600480360360608110156103aa57600080fd5b506001600160a01b038135169060208101359060400135610977565b3480156103d257600080fd5b506101a5600480360360408110156103e957600080fd5b506001600160a01b038135169060200135610a10565b34801561040b57600080fd5b506102fd610a99565b60025481565b60008061044e600254610442600454306001600160a01b031631610aa890919063ffffffff16565b9063ffffffff610af116565b9050600061046760055483610af190919063ffffffff16565b9050610471610fff565b506001600160a01b03841660009081526001602081815260408084208151608081018352815460ff16151581529381015492840192909252600280830154918401919091526003909101546060830152549091901561055057600061050b6104fc6002546104f0670de0b6b3a764000088610b3390919063ffffffff16565b9063ffffffff610b5816565b6003549063ffffffff610aa816565b90506000610526846060015183610af190919063ffffffff16565b905061054b670de0b6b3a76400006104f0838760200151610b3390919063ffffffff16565b925050505b60409091015101949350505050565b60055481565b565b336000908152600160205260409020805460ff166105b957604051600160e51b62461bcd0281526004018080602001828103825260248152602001806110d36024913960400191505060405180910390fd5b6105c63460006001610b9a565b6105cf81610cd5565b60018101546105e4903463ffffffff610aa816565b600190910155565b60045481565b6001602081905260009182526040909120805491810154600282015460039092015460ff9093169290919084565b6001600160a01b03166000908152600160208190526040909120015490565b6000546001600160a01b0316331461068b57604051600160e51b62461bcd0281526004018080602001828103825260268152602001806110856026913960400191505060405180910390fd5b600080546040516001600160a01b03909116907f2da0f18c3d869cdc5baa95d5dfa6a6e8cb6db2bcd24c13c9410e1c686c9cb8ee908390a3600080547fffffffffffffffffffffffff0000000000000000000000000000000000000000169055565b33600090815260016020819052604082209161070a918190610b9a565b61071381610cd5565b60408051808201909152601e81527f436f6c645374616b696e673a20726577617264206e6f7420656e6f75676800006020820152600282015461075d91849063ffffffff610d3f16565b6002820155600454610775908363ffffffff610aa816565b6004556107a38261078e6001600160a01b038616610dd9565b6001600160a01b03169063ffffffff610ddc16565b505050565b6001600160a01b031660009081526001602052604090206002015490565b60035481565b6006546001600160a01b031681565b6000546001600160a01b0316331461082757604051600160e51b62461bcd0281526004018080602001828103825260268152602001806110856026913960400191505060405180910390fd5b6001600160a01b0391909116600090815260016020526040902080547fffffffffffffffffffffffffffffffffffffffffffffffffffffffffffffff0016911515919091179055565b6000546001600160a01b031633146108bc57604051600160e51b62461bcd0281526004018080602001828103825260268152602001806110856026913960400191505060405180910390fd5b6001600160a01b03811661090457604051600160e51b62461bcd0281526004018080602001828103825260288152602001806110ab6028913960400191505060405180910390fd5b600080546040516001600160a01b03808516939216917f2da0f18c3d869cdc5baa95d5dfa6a6e8cb6db2bcd24c13c9410e1c686c9cb8ee91a3600080547fffffffffffffffffffffffff0000000000000000000000000000000000000000166001600160a01b0392909216919091179055565b33600090815260016020526040812090610992908481610b9a565b61099b81610cd5565b60018101546109b0908463ffffffff610af116565b600182015560028101546109ca908363ffffffff610af116565b60028201556004546109e2908363ffffffff610aa816565b600455610a0a6109f8848463ffffffff610aa816565b61078e866001600160a01b0316610dd9565b50505050565b33600090815260016020526040812090610a2b908381610b9a565b610a3481610cd5565b60408051808201909152601d81527f436f6c645374616b696e673a207374616b65206e6f7420656e6f75676800000060208201526001820154610a7e91849063ffffffff610d3f16565b60018201556107a38261078e6001600160a01b038616610dd9565b6000546001600160a01b031681565b6000610aea83836040518060400160405280601b81526020017f536166654d6174683a206164646974696f6e206f766572666c6f770000000000815250610ec8565b9392505050565b6000610aea83836040518060400160405280601f81526020017f536166654d6174683a207375627472616374696f6e20756e646572666c6f7700815250610d3f565b6000610aea838360405180606001604052806021815260200161106460219139610f29565b6000610aea83836040518060400160405280601a81526020017f536166654d6174683a206469766973696f6e206279207a65726f000000000000815250610f97565b6000610bc9610bb485600254610aa890919063ffffffff16565b6004546104429030319063ffffffff610aa816565b90506000610be260055483610af190919063ffffffff16565b600583905560025490915015610c1d57600254610c15906104fc906104f084670de0b6b3a764000063ffffffff610b3316565b600355610c4f565b600654610c3890829061078e906001600160a01b0316610dd9565b600454610c4b908263ffffffff610aa816565b6004555b828015610c5c5750600085115b15610c7c57600254610c74908663ffffffff610aa816565b600255610cce565b8315610cce5760408051808201909152601d81527f436f6c645374616b696e673a207374616b65206e6f7420656e6f7567680000006020820152600254610cca91869063ffffffff610d3f16565b6002555b5050505050565b6000610cf08260030154600354610af190919063ffffffff16565b90506000610d17670de0b6b3a76400006104f0848660010154610b3390919063ffffffff16565b6002840154909150610d2f908263ffffffff610aa816565b6002840155505060038054910155565b60008184841115610dd157604051600160e51b62461bcd0281526004018080602001828103825283818151815260200191508051906020019080838360005b83811015610d96578181015183820152602001610d7e565b50505050905090810190601f168015610dc35780820380516001836020036101000a031916815260200191505b509250505060405180910390fd5b505050900390565b90565b3031811115610e355760408051600160e51b62461bcd02815260206004820152601d60248201527f416464726573733a20696e73756666696369656e742062616c616e6365000000604482015290519081900360640190fd5b6040516000906001600160a01b0384169083908381818185875af1925050503d8060008114610e80576040519150601f19603f3d011682016040523d82523d6000602084013e610e85565b606091505b50509050806107a357604051600160e51b62461bcd02815260040180806020018281038252603a81526020018061102a603a913960400191505060405180910390fd5b60008383018285821015610f2057604051600160e51b62461bcd028152602060048201818152835160248401528351909283926044909101919085019080838360008315610d96578181015183820152602001610d7e565b50949350505050565b600083610f3857506000610aea565b83830283858281610f4557fe5b04148390610f2057604051600160e51b62461bcd028152602060048201818152835160248401528351909283926044909101919085019080838360008315610d96578181015183820152602001610d7e565b60008183610fe957604051600160e51b62461bcd028152602060048201818152835160248401528351909283926044909101919085019080838360008315610d96578181015183820152602001610d7e565b506000838581610ff557fe5b0495945050505050565b6040518060800160405280600015158152602001600081526020016000815260200160008152509056fe416464726573733a20756e61626c6520746f2073656e642076616c75652c20726563697069656e74206d61792068617665207265766572746564536166654d6174683a206d756c7469706c69636174696f6e206f766572666c6f775472656173757265723a2063616c6c6572206973206e6f7420746865207472656173757265725472656173757265723a206e657720747265617375726572206973207a65726f2061646472657373436f6c645374616b696e673a2041646472657373206e6f742077686974656c6973746564a165627a7a72305820a12d592f9744c569c93c67cea5ed29a97be495b9b6e5685709930cda2e4bf55b0029",
  "source": "pragma solidity ^0.5.8;\n\nimport \"../ColdStakingMain.sol\";\nimport \"../utils/Address.sol\";\n\ncontract ColdStakingMainMock is ColdStakingMain  {\n\n    using Address for address;\n    \n    function simulateRewardDeposit() public payable {\n    }\n\n    function getStake(address _addr) public view returns(uint) {\n    \treturn subcontracts[_addr].stake;\n    }\n\n    function getReward(address _addr) public view returns(uint) {\n    \treturn subcontracts[_addr].reward;\n    }\n}\n",
  "sourcePath": "/home/faycal/Desktop/projects/callisto-contracts/contracts/mocks/ColdStakingMainMock.sol",
  "compiler": {
    "name": "solc",
    "version": "0.5.8+commit.23d335f2.Emscripten.clang"
  },
  "schemaVersion": "3.0.22",
  "updatedAt": "2020-02-23T11:15:40.087Z",
  "networkType": "ethereum",
  "devdoc": {
    "methods": {}
  },
  "userdoc": {
    "methods": {}
  }
}