{
  "contractName": "ColdStakingVoting",
  "abi": [
    {
      "constant": true,
      "inputs": [],
      "name": "lastTotalReward",
      "outputs": [
        {
          "name": "",
          "type": "uint256"
        }
      ],
      "payable": false,
      "stateMutability": "view",
      "type": "function"
    },
    {
      "constant": true,
      "inputs": [],
      "name": "claim_delay",
      "outputs": [
        {
          "name": "",
          "type": "uint256"
        }
      ],
      "payable": false,
      "stateMutability": "view",
      "type": "function"
    },
    {
      "constant": true,
      "inputs": [],
      "name": "stakedAmount",
      "outputs": [
        {
          "name": "",
          "type": "uint256"
        }
      ],
      "payable": false,
      "stateMutability": "view",
      "type": "function"
    },
    {
      "constant": false,
      "inputs": [],
      "name": "claim",
      "outputs": [],
      "payable": false,
      "stateMutability": "nonpayable",
      "type": "function"
    },
    {
      "constant": true,
      "inputs": [],
      "name": "totalClaimedReward",
      "outputs": [
        {
          "name": "",
          "type": "uint256"
        }
      ],
      "payable": false,
      "stateMutability": "view",
      "type": "function"
    },
    {
      "constant": true,
      "inputs": [
        {
          "name": "",
          "type": "address"
        }
      ],
      "name": "staker",
      "outputs": [
        {
          "name": "stake",
          "type": "uint256"
        },
        {
          "name": "reward",
          "type": "uint256"
        },
        {
          "name": "lastClaim",
          "type": "uint256"
        },
        {
          "name": "lastWeightedBlockReward",
          "type": "uint256"
        },
        {
          "name": "voteWithdrawalDeadline",
          "type": "uint256"
        }
      ],
      "payable": false,
      "stateMutability": "view",
      "type": "function"
    },
    {
      "constant": true,
      "inputs": [
        {
          "name": "_addr",
          "type": "address"
        }
      ],
      "name": "getLastClaim",
      "outputs": [
        {
          "name": "",
          "type": "uint256"
        }
      ],
      "payable": false,
      "stateMutability": "view",
      "type": "function"
    },
    {
      "constant": true,
      "inputs": [],
      "name": "coldStakingMain",
      "outputs": [
        {
          "name": "",
          "type": "address"
        }
      ],
      "payable": false,
      "stateMutability": "view",
      "type": "function"
    },
    {
      "constant": false,
      "inputs": [],
      "name": "renounceTreasurerOwnership",
      "outputs": [],
      "payable": false,
      "stateMutability": "nonpayable",
      "type": "function"
    },
    {
      "constant": true,
      "inputs": [],
      "name": "governanceContract",
      "outputs": [
        {
          "name": "",
          "type": "address"
        }
      ],
      "payable": false,
      "stateMutability": "view",
      "type": "function"
    },
    {
      "constant": true,
      "inputs": [
        {
          "name": "_addr",
          "type": "address"
        }
      ],
      "name": "getReward",
      "outputs": [
        {
          "name": "_reward",
          "type": "uint256"
        }
      ],
      "payable": false,
      "stateMutability": "view",
      "type": "function"
    },
    {
      "constant": true,
      "inputs": [],
      "name": "weightedBlockReward",
      "outputs": [
        {
          "name": "",
          "type": "uint256"
        }
      ],
      "payable": false,
      "stateMutability": "view",
      "type": "function"
    },
    {
      "constant": true,
      "inputs": [],
      "name": "treasuryAddress",
      "outputs": [
        {
          "name": "",
          "type": "address"
        }
      ],
      "payable": false,
      "stateMutability": "view",
      "type": "function"
    },
    {
      "constant": false,
      "inputs": [
        {
          "name": "newTreasurer",
          "type": "address"
        }
      ],
      "name": "transferTreasurerOwnership",
      "outputs": [],
      "payable": false,
      "stateMutability": "nonpayable",
      "type": "function"
    },
    {
      "constant": true,
      "inputs": [],
      "name": "max_delay",
      "outputs": [
        {
          "name": "",
          "type": "uint256"
        }
      ],
      "payable": false,
      "stateMutability": "view",
      "type": "function"
    },
    {
      "constant": true,
      "inputs": [],
      "name": "staker_info",
      "outputs": [
        {
          "name": "weight",
          "type": "uint256"
        },
        {
          "name": "init",
          "type": "uint256"
        },
        {
          "name": "actual_block",
          "type": "uint256"
        },
        {
          "name": "_reward",
          "type": "uint256"
        }
      ],
      "payable": false,
      "stateMutability": "view",
      "type": "function"
    },
    {
      "constant": true,
      "inputs": [],
      "name": "treasurer",
      "outputs": [
        {
          "name": "",
          "type": "address"
        }
      ],
      "payable": false,
      "stateMutability": "view",
      "type": "function"
    },
    {
      "inputs": [
        {
          "name": "_coldStakingMain",
          "type": "address"
        }
      ],
      "payable": false,
      "stateMutability": "nonpayable",
      "type": "constructor"
    },
    {
      "payable": true,
      "stateMutability": "payable",
      "type": "fallback"
    },
    {
      "anonymous": false,
      "inputs": [
        {
          "indexed": false,
          "name": "addr",
          "type": "address"
        },
        {
          "indexed": false,
          "name": "value",
          "type": "uint256"
        },
        {
          "indexed": false,
          "name": "amount",
          "type": "uint256"
        },
        {
          "indexed": false,
          "name": "time",
          "type": "uint256"
        }
      ],
      "name": "Staking",
      "type": "event"
    },
    {
      "anonymous": false,
      "inputs": [
        {
          "indexed": false,
          "name": "staker",
          "type": "address"
        },
        {
          "indexed": false,
          "name": "amount",
          "type": "uint256"
        },
        {
          "indexed": false,
          "name": "reward",
          "type": "uint256"
        }
      ],
      "name": "WithdrawStake",
      "type": "event"
    },
    {
      "anonymous": false,
      "inputs": [
        {
          "indexed": false,
          "name": "staker",
          "type": "address"
        },
        {
          "indexed": false,
          "name": "reward",
          "type": "uint256"
        }
      ],
      "name": "Claim",
      "type": "event"
    },
    {
      "anonymous": false,
      "inputs": [
        {
          "indexed": false,
          "name": "_address",
          "type": "address"
        },
        {
          "indexed": false,
          "name": "value",
          "type": "uint256"
        }
      ],
      "name": "DonationDeposited",
      "type": "event"
    },
    {
      "anonymous": false,
      "inputs": [
        {
          "indexed": false,
          "name": "_voter",
          "type": "address"
        },
        {
          "indexed": false,
          "name": "_time",
          "type": "uint256"
        }
      ],
      "name": "VoterWithrawlDeadlineUpdate",
      "type": "event"
    },
    {
      "anonymous": false,
      "inputs": [
        {
          "indexed": false,
          "name": "_addr",
          "type": "address"
        },
        {
          "indexed": false,
          "name": "value",
          "type": "uint256"
        }
      ],
      "name": "InactiveStaker",
      "type": "event"
    },
    {
      "anonymous": false,
      "inputs": [
        {
          "indexed": true,
          "name": "previousOwner",
          "type": "address"
        },
        {
          "indexed": true,
          "name": "newOwner",
          "type": "address"
        }
      ],
      "name": "TreasurerOwnershipTransferred",
      "type": "event"
    },
    {
      "constant": false,
      "inputs": [
        {
          "name": "_governanceContract",
          "type": "address"
        }
      ],
      "name": "setGovernanceContract",
      "outputs": [],
      "payable": false,
      "stateMutability": "nonpayable",
      "type": "function"
    },
    {
      "constant": false,
      "inputs": [],
      "name": "start_staking",
      "outputs": [],
      "payable": true,
      "stateMutability": "payable",
      "type": "function"
    },
    {
      "constant": false,
      "inputs": [],
      "name": "withdraw_stake",
      "outputs": [],
      "payable": false,
      "stateMutability": "nonpayable",
      "type": "function"
    },
    {
      "constant": false,
      "inputs": [
        {
          "name": "_addr",
          "type": "address"
        }
      ],
      "name": "report_abuse",
      "outputs": [],
      "payable": false,
      "stateMutability": "nonpayable",
      "type": "function"
    },
    {
      "constant": false,
      "inputs": [
        {
          "name": "voter",
          "type": "address"
        },
        {
          "name": "_voteWithdrawalDeadline",
          "type": "uint256"
        }
      ],
      "name": "vote_casted",
      "outputs": [],
      "payable": false,
      "stateMutability": "nonpayable",
      "type": "function"
    },
    {
      "constant": true,
      "inputs": [
        {
          "name": "_addr",
          "type": "address"
        }
      ],
      "name": "getStake",
      "outputs": [
        {
          "name": "",
          "type": "uint256"
        }
      ],
      "payable": false,
      "stateMutability": "view",
      "type": "function"
    }
  ],
  "bytecode": "0x6080604052622398806006556303c26700600755600880546001600160a01b0319167374682fc32007af0b6118f259cbe7bccc2164160017905534801561004557600080fd5b506040516020806119a78339810180604052602081101561006557600080fd5b5051600080546001600160a01b031916331780825560405183926001600160a01b039290921691907f2da0f18c3d869cdc5baa95d5dfa6a6e8cb6db2bcd24c13c9410e1c686c9cb8ee908290a3600980546001600160a01b039092166001600160a01b03199283161790556000805490911633179055506118bc806100eb6000396000f3fe6080604052600436106101805760003560e01c806396e4afa6116100d6578063c5f956af1161007f578063e2d4056811610059578063e2d4056814610468578063fb225c681461047d578063fda49eb4146104b857610180565b8063c5f956af1461040b578063cd94885514610420578063da84e29b1461043557610180565b8063b172b222116100b0578063b172b222146103ae578063c00007b0146103c3578063c414af59146103f657610180565b806396e4afa6146103355780639932ce7114610366578063aaee69d91461037b57610180565b8063373d6132116101385780637a766460116101125780637a7664601461027157806382e4eda4146102a45780638778f4151461030257610180565b8063373d6132146102325780634e71d92d146102475780634fbdea4d1461025c57610180565b80631f288efb116101695780631f288efb146101805780632505b1bc146101f65780632c981d711461021d57610180565b80630c03ed521461018a5780631129753f146101c3575b6101886104cd565b005b34801561019657600080fd5b50610188600480360360408110156101ad57600080fd5b506001600160a01b0381351690602001356104e0565b3480156101cf57600080fd5b50610188600480360360208110156101e657600080fd5b50356001600160a01b0316610577565b34801561020257600080fd5b5061020b6105f2565b60408051918252519081900360200190f35b34801561022957600080fd5b5061020b6105f8565b34801561023e57600080fd5b5061020b6105fe565b34801561025357600080fd5b50610188610604565b34801561026857600080fd5b5061020b610731565b34801561027d57600080fd5b5061020b6004803603602081101561029457600080fd5b50356001600160a01b0316610737565b3480156102b057600080fd5b506102d7600480360360208110156102c757600080fd5b50356001600160a01b0316610752565b6040805195865260208601949094528484019290925260608401526080830152519081900360a00190f35b34801561030e57600080fd5b5061020b6004803603602081101561032557600080fd5b50356001600160a01b0316610780565b34801561034157600080fd5b5061034a61079e565b604080516001600160a01b039092168252519081900360200190f35b34801561037257600080fd5b506101886107ad565b34801561038757600080fd5b506101886004803603602081101561039e57600080fd5b50356001600160a01b0316610850565b3480156103ba57600080fd5b5061034a61088c565b3480156103cf57600080fd5b5061020b600480360360208110156103e657600080fd5b50356001600160a01b031661089b565b34801561040257600080fd5b5061020b610a2c565b34801561041757600080fd5b5061034a610a32565b34801561042c57600080fd5b50610188610a41565b34801561044157600080fd5b506101886004803603602081101561045857600080fd5b50356001600160a01b0316610a67565b34801561047457600080fd5b5061020b610b63565b34801561048957600080fd5b50610492610b69565b604080519485526020850193909352838301919091526060830152519081900360800190f35b3480156104c457600080fd5b5061034a610b97565b6104d5610ba6565b6104de33610cc4565b565b600a546001600160a01b031633146104f757600080fd5b6001600160a01b038216600090815260016020526040902060040154811115610573576001600160a01b0382166000818152600160209081526040918290206004018490558151928352820183905280517fb3be0789f20b5816f24d07ccca682cb2591e0027636cf0f8876677c1cc3caad39281900390910190a15b5050565b6000546001600160a01b031633146105c357604051600160e51b62461bcd0281526004018080602001828103825260268152602001806118136026913960400191505060405180910390fd5b600a805473ffffffffffffffffffffffffffffffffffffffff19166001600160a01b0392909216919091179055565b60055481565b60065481565b60025481565b60065433600090815260016020526040902060020154429101116104de5761062f6000806000610df0565b610637610f6b565b336000908152600160208190526040822090810180549290554260029091015560045461066a908263ffffffff61100e16565b6004908155600954604080517faad3ec96000000000000000000000000000000000000000000000000000000008152339381019390935260248301849052516001600160a01b039091169163aad3ec9691604480830192600092919082900301818387803b1580156106db57600080fd5b505af11580156106ef573d6000803e3d6000fd5b5050604080513381526020810185905281517f47cee97cb7acd717b3c0aa1435d004cd5b3c8c57d70dbceb4e4458bbd60e39d49450908190039091019150a150565b60045481565b6001600160a01b031660009081526001602052604090205490565b6001602081905260009182526040909120805491810154600282015460038301546004909301549192909185565b6001600160a01b031660009081526001602052604090206002015490565b6009546001600160a01b031681565b6000546001600160a01b031633146107f957604051600160e51b62461bcd0281526004018080602001828103825260268152602001806118136026913960400191505060405180910390fd5b600080546040516001600160a01b03909116907f2da0f18c3d869cdc5baa95d5dfa6a6e8cb6db2bcd24c13c9410e1c686c9cb8ee908390a36000805473ffffffffffffffffffffffffffffffffffffffff19169055565b6001600160a01b038116600090815260016020526040902060040154421161087757600080fd5b61088081611057565b61088981610cc4565b50565b600a546001600160a01b031681565b60048054600954604080517f21ce7daf00000000000000000000000000000000000000000000000000000000815230948101949094525160009384936109469390926001600160a01b03909116916321ce7daf916024808301926020929190829003018186803b15801561090e57600080fd5b505afa158015610922573d6000803e3d6000fd5b505050506040513d602081101561093857600080fd5b50519063ffffffff61100e16565b60055460025491925082039015610a0857600061099861098960025461097d670de0b6b3a76400008661128b90919063ffffffff16565b9063ffffffff6112b016565b6003549063ffffffff61100e16565b6001600160a01b038616600090815260016020526040812060030154919250906109c990839063ffffffff6112f216565b6001600160a01b038716600090815260016020526040902054909150610a0390670de0b6b3a76400009061097d908463ffffffff61128b16565b945050505b50506001600160a01b03909116600090815260016020819052604090912001540190565b60035481565b6008546001600160a01b031681565b336000908152600160205260409020600401544211610a5f57600080fd5b6104d5611334565b6000546001600160a01b03163314610ab357604051600160e51b62461bcd0281526004018080602001828103825260268152602001806118136026913960400191505060405180910390fd5b6001600160a01b038116610afb57604051600160e51b62461bcd0281526004018080602001828103825260288152602001806118696028913960400191505060405180910390fd5b600080546040516001600160a01b03808516939216917f2da0f18c3d869cdc5baa95d5dfa6a6e8cb6db2bcd24c13c9410e1c686c9cb8ee91a36000805473ffffffffffffffffffffffffffffffffffffffff19166001600160a01b0392909216919091179055565b60075481565b3360008181526001602052604081208054600290910154909290914391610b8f9061089b565b905090919293565b6000546001600160a01b031681565b610bb33460006001610df0565b610bbb610f6b565b33600090815260016020526040902054610bdb903463ffffffff61100e16565b336000908152600160205260408082209283554260029093019290925560095482517f3a4b66f100000000000000000000000000000000000000000000000000000000815292516001600160a01b0390911692633a4b66f192349260048084019382900301818588803b158015610c5157600080fd5b505af1158015610c65573d6000803e3d6000fd5b505033600081815260016020908152604091829020548251938452349184019190915282820152426060830152517f949a8db76845fd137ed692e4a5b8de95cd6038978523b30ea532d711a93fbfa794509081900360800192509050a1565b600a54604080517f573705a60000000000000000000000000000000000000000000000000000000081526001600160a01b0384811660048301529151919092169163573705a6916024808301926020929190829003018186803b158015610d2a57600080fd5b505afa158015610d3e573d6000803e3d6000fd5b505050506040513d6020811015610d5457600080fd5b50511561088957600a546001600160a01b038281166000908152600160205260408082205481517f3e5f60e6000000000000000000000000000000000000000000000000000000008152336004820152602481019190915290519290931692633e5f60e6926044808301939282900301818387803b158015610dd557600080fd5b505af1158015610de9573d6000803e3d6000fd5b5050505050565b60048054600954604080517f21ce7daf000000000000000000000000000000000000000000000000000000008152309481019490945251600093610e5f93926001600160a01b0316916321ce7daf91602480820192602092909190829003018186803b15801561090e57600080fd5b90506000610e78600554836112f290919063ffffffff16565b600583905560025490915015610eb357600254610eab906109899061097d84670de0b6b3a764000063ffffffff61128b16565b600355610ee6565b600854610ecf906001600160a01b03168263ffffffff6114ce16565b600454610ee2908263ffffffff61100e16565b6004555b828015610ef35750600085115b15610f1357600254610f0b908663ffffffff61100e16565b600255610de9565b8315610de95760408051808201909152601d81527f436f6c645374616b696e673a207374616b65206e6f7420656e6f7567680000006020820152600254610f6191869063ffffffff6115bf16565b6002555050505050565b3360009081526001602052604081206003908101549054610f919163ffffffff6112f216565b3360009081526001602052604081205491925090610fc390670de0b6b3a76400009061097d908563ffffffff61128b16565b3360009081526001602081905260409091200154909150610fea908263ffffffff61100e16565b33600090815260016020819052604090912090810191909155600380549101555050565b600061105083836040518060400160405280601b81526020017f536166654d6174683a206164646974696f6e206f766572666c6f770000000000815250611659565b9392505050565b6001600160a01b03811660009081526001602052604090205461107957600080fd5b6007546001600160a01b03821660009081526001602052604090206002015442916110aa919063ffffffff61100e16565b106110e957604051600160e51b62461bcd0281526004018080602001828103825260278152602001806117cb6027913960400191505060405180910390fd5b6001600160a01b03811660009081526001602052604081205461110d919081610df0565b611115610f6b565b6001600160a01b03808216600081815260016020819052604080832091820180548354918590559284905560095482517ff3fef3a300000000000000000000000000000000000000000000000000000000815260048101969096526024860182905291519295909491169263f3fef3a39260448084019382900301818387803b1580156111a157600080fd5b505af11580156111b5573d6000803e3d6000fd5b5050600954600854604080517faad3ec960000000000000000000000000000000000000000000000000000000081526001600160a01b03928316600482015260248101889052905191909216935063aad3ec969250604480830192600092919082900301818387803b15801561122a57600080fd5b505af115801561123e573d6000803e3d6000fd5b5050604080516001600160a01b03871681526020810185905281517f5a63f1ba543dd75fd2aa8dbd9da86cc185e5983fb3256c78c31b05e44203e1e69450908190039091019150a1505050565b600061105083836040518060600160405280602181526020016117f2602191396116ba565b600061105083836040518060400160405280601a81526020017f536166654d6174683a206469766973696f6e206279207a65726f000000000000815250611728565b600061105083836040518060400160405280601f81526020017f536166654d6174683a207375627472616374696f6e20756e646572666c6f77008152506115bf565b60065433600090815260016020526040902060020154429161135c919063ffffffff61100e16565b1061139b57604051600160e51b62461bcd0281526004018080602001828103825260308152602001806118396030913960400191505060405180910390fd5b336000908152600160205260408120546113b6919081610df0565b6113be610f6b565b336000908152600160208190526040822080549181018054848355939055426002909101556004549091906113f9908263ffffffff61100e16565b6004908155600954604080517fdbca1b8f00000000000000000000000000000000000000000000000000000000815233938101939093526024830185905260448301849052516001600160a01b039091169163dbca1b8f91606480830192600092919082900301818387803b15801561147157600080fd5b505af1158015611485573d6000803e3d6000fd5b5050604080513381526020810186905280820185905290517f5f808ed47938c2c6ffcf1784b8a3171a0e8cb25d277b291b26475b303473bbb09350908190036060019150a15050565b30318111156115275760408051600160e51b62461bcd02815260206004820152601d60248201527f416464726573733a20696e73756666696369656e742062616c616e6365000000604482015290519081900360640190fd5b6040516000906001600160a01b0384169083908381818185875af1925050503d8060008114611572576040519150601f19603f3d011682016040523d82523d6000602084013e611577565b606091505b50509050806115ba57604051600160e51b62461bcd02815260040180806020018281038252603a815260200180611791603a913960400191505060405180910390fd5b505050565b6000818484111561165157604051600160e51b62461bcd0281526004018080602001828103825283818151815260200191508051906020019080838360005b838110156116165781810151838201526020016115fe565b50505050905090810190601f1680156116435780820380516001836020036101000a031916815260200191505b509250505060405180910390fd5b505050900390565b600083830182858210156116b157604051600160e51b62461bcd0281526020600482018181528351602484015283519092839260449091019190850190808383600083156116165781810151838201526020016115fe565b50949350505050565b6000836116c957506000611050565b838302838582816116d657fe5b041483906116b157604051600160e51b62461bcd0281526020600482018181528351602484015283519092839260449091019190850190808383600083156116165781810151838201526020016115fe565b6000818361177a57604051600160e51b62461bcd0281526020600482018181528351602484015283519092839260449091019190850190808383600083156116165781810151838201526020016115fe565b50600083858161178657fe5b049594505050505056fe416464726573733a20756e61626c6520746f2073656e642076616c75652c20726563697069656e74206d61792068617665207265766572746564436f6c645374616b696e675375623a2064656c6179206c657373207468616e2032207965617273536166654d6174683a206d756c7469706c69636174696f6e206f766572666c6f775472656173757265723a2063616c6c6572206973206e6f742074686520747265617375726572436f6c645374616b696e675375623a206d696e696d756d207374616b696e672074696d65206e6f7420726561636865645472656173757265723a206e657720747265617375726572206973207a65726f2061646472657373a165627a7a72305820d6eb8a8f23d21d31c66838e7bdf1600cef14e7e80f15296d1b0c2bd407fd9d430029",
  "source": "pragma solidity ^0.5.8;\n\nimport \"./interfaces/ITreasuryVoting.sol\";\nimport \"./ColdStakingSub.sol\";\nimport \"./interfaces/IColdStakingVoting.sol\";\n\ncontract ColdStakingVoting is  IColdStakingVoting , ColdStakingSub\n{\n\n \taddress public governanceContract;\n\n    function setGovernanceContract(address _governanceContract) public onlyTreasurer {\n        governanceContract = _governanceContract;\n    }\n\n    modifier onlyGovernanceContract {\n        require(msg.sender == governanceContract);\n        _;\n    }\n\n    constructor(address _coldStakingMain) ColdStakingSub(_coldStakingMain) public {\n        treasurer = address(msg.sender);\n    }\n\n\tfunction vote_update(address _addr) internal {\n\t    if( ITreasuryVoting(governanceContract).is_voter(_addr) )\n            ITreasuryVoting(governanceContract).update_voter(msg.sender,staker[_addr].stake);    \n    }\n\n    function start_staking() public payable {\n    \tsuper.start_staking();\n    \tvote_update(msg.sender);\n    }\n\n    function withdraw_stake() public {\n    \trequire(staker[msg.sender].voteWithdrawalDeadline < block.timestamp);\n    \tsuper.withdraw_stake();\n    \tvote_update(msg.sender);\n    }\n    function report_abuse(address _addr) public {\n    \trequire(staker[_addr].voteWithdrawalDeadline < block.timestamp);\n    \tsuper.report_abuse(_addr);\n    \tvote_update(_addr);\n    }\n\n    function vote_casted(address voter, uint _voteWithdrawalDeadline) public onlyGovernanceContract\n    {\n        if(_voteWithdrawalDeadline >  staker[voter].voteWithdrawalDeadline)\n        {\n            staker[voter].voteWithdrawalDeadline = _voteWithdrawalDeadline;\n            emit VoterWithrawlDeadlineUpdate(voter,_voteWithdrawalDeadline);\n        }\n    }\n\n    function getStake(address _addr) public view returns(uint) {\n        return staker[_addr].stake;\n    }\n}",
  "sourcePath": "/home/faycal/Desktop/projects/callisto-contracts/contracts/ColdStakingVoting.sol",
  "compiler": {
    "name": "solc",
    "version": "0.5.8+commit.23d335f2.Emscripten.clang"
  },
  "schemaVersion": "3.0.22",
  "updatedAt": "2020-02-23T11:15:40.249Z",
  "networkType": "ethereum",
  "devdoc": {
    "methods": {}
  },
  "userdoc": {
    "methods": {}
  }
}