{
  "contractName": "ColdStakingVoting",
  "abi": [
    {
      "constant": true,
      "inputs": [],
      "name": "lastTotalReward",
      "outputs": [
        {
          "name": "",
          "type": "uint256"
        }
      ],
      "payable": false,
      "stateMutability": "view",
      "type": "function"
    },
    {
      "constant": true,
      "inputs": [],
      "name": "claim_delay",
      "outputs": [
        {
          "name": "",
          "type": "uint256"
        }
      ],
      "payable": false,
      "stateMutability": "view",
      "type": "function"
    },
    {
      "constant": true,
      "inputs": [],
      "name": "stakedAmount",
      "outputs": [
        {
          "name": "",
          "type": "uint256"
        }
      ],
      "payable": false,
      "stateMutability": "view",
      "type": "function"
    },
    {
      "constant": false,
      "inputs": [],
      "name": "claim",
      "outputs": [],
      "payable": false,
      "stateMutability": "nonpayable",
      "type": "function"
    },
    {
      "constant": true,
      "inputs": [],
      "name": "totalClaimedReward",
      "outputs": [
        {
          "name": "",
          "type": "uint256"
        }
      ],
      "payable": false,
      "stateMutability": "view",
      "type": "function"
    },
    {
      "constant": true,
      "inputs": [
        {
          "name": "_addr",
          "type": "address"
        }
      ],
      "name": "getLastClaim",
      "outputs": [
        {
          "name": "",
          "type": "uint256"
        }
      ],
      "payable": false,
      "stateMutability": "view",
      "type": "function"
    },
    {
      "constant": true,
      "inputs": [
        {
          "name": "",
          "type": "address"
        }
      ],
      "name": "stakers",
      "outputs": [
        {
          "name": "stake",
          "type": "uint256"
        },
        {
          "name": "reward",
          "type": "uint256"
        },
        {
          "name": "lastClaim",
          "type": "uint256"
        },
        {
          "name": "lastWeightedBlockReward",
          "type": "uint256"
        },
        {
          "name": "voteWithdrawalDeadline",
          "type": "uint256"
        }
      ],
      "payable": false,
      "stateMutability": "view",
      "type": "function"
    },
    {
      "constant": true,
      "inputs": [],
      "name": "coldStakingMain",
      "outputs": [
        {
          "name": "",
          "type": "address"
        }
      ],
      "payable": false,
      "stateMutability": "view",
      "type": "function"
    },
    {
      "constant": false,
      "inputs": [],
      "name": "renounceTreasurerOwnership",
      "outputs": [],
      "payable": false,
      "stateMutability": "nonpayable",
      "type": "function"
    },
    {
      "constant": true,
      "inputs": [],
      "name": "governanceContract",
      "outputs": [
        {
          "name": "",
          "type": "address"
        }
      ],
      "payable": false,
      "stateMutability": "view",
      "type": "function"
    },
    {
      "constant": true,
      "inputs": [
        {
          "name": "_addr",
          "type": "address"
        }
      ],
      "name": "getReward",
      "outputs": [
        {
          "name": "_reward",
          "type": "uint256"
        }
      ],
      "payable": false,
      "stateMutability": "view",
      "type": "function"
    },
    {
      "constant": true,
      "inputs": [],
      "name": "weightedBlockReward",
      "outputs": [
        {
          "name": "",
          "type": "uint256"
        }
      ],
      "payable": false,
      "stateMutability": "view",
      "type": "function"
    },
    {
      "constant": true,
      "inputs": [],
      "name": "treasuryAddress",
      "outputs": [
        {
          "name": "",
          "type": "address"
        }
      ],
      "payable": false,
      "stateMutability": "view",
      "type": "function"
    },
    {
      "constant": false,
      "inputs": [
        {
          "name": "newTreasurer",
          "type": "address"
        }
      ],
      "name": "transferTreasurerOwnership",
      "outputs": [],
      "payable": false,
      "stateMutability": "nonpayable",
      "type": "function"
    },
    {
      "constant": true,
      "inputs": [],
      "name": "max_delay",
      "outputs": [
        {
          "name": "",
          "type": "uint256"
        }
      ],
      "payable": false,
      "stateMutability": "view",
      "type": "function"
    },
    {
      "constant": true,
      "inputs": [],
      "name": "staker_info",
      "outputs": [
        {
          "name": "weight",
          "type": "uint256"
        },
        {
          "name": "init",
          "type": "uint256"
        },
        {
          "name": "actual_block",
          "type": "uint256"
        },
        {
          "name": "_reward",
          "type": "uint256"
        }
      ],
      "payable": false,
      "stateMutability": "view",
      "type": "function"
    },
    {
      "constant": true,
      "inputs": [],
      "name": "treasurer",
      "outputs": [
        {
          "name": "",
          "type": "address"
        }
      ],
      "payable": false,
      "stateMutability": "view",
      "type": "function"
    },
    {
      "inputs": [
        {
          "name": "_coldStakingMain",
          "type": "address"
        }
      ],
      "payable": false,
      "stateMutability": "nonpayable",
      "type": "constructor"
    },
    {
      "payable": true,
      "stateMutability": "payable",
      "type": "fallback"
    },
    {
      "anonymous": false,
      "inputs": [
        {
          "indexed": false,
          "name": "addr",
          "type": "address"
        },
        {
          "indexed": false,
          "name": "value",
          "type": "uint256"
        },
        {
          "indexed": false,
          "name": "amount",
          "type": "uint256"
        },
        {
          "indexed": false,
          "name": "time",
          "type": "uint256"
        }
      ],
      "name": "Staking",
      "type": "event"
    },
    {
      "anonymous": false,
      "inputs": [
        {
          "indexed": false,
          "name": "staker",
          "type": "address"
        },
        {
          "indexed": false,
          "name": "amount",
          "type": "uint256"
        },
        {
          "indexed": false,
          "name": "reward",
          "type": "uint256"
        }
      ],
      "name": "WithdrawStake",
      "type": "event"
    },
    {
      "anonymous": false,
      "inputs": [
        {
          "indexed": false,
          "name": "staker",
          "type": "address"
        },
        {
          "indexed": false,
          "name": "reward",
          "type": "uint256"
        }
      ],
      "name": "Claim",
      "type": "event"
    },
    {
      "anonymous": false,
      "inputs": [
        {
          "indexed": false,
          "name": "_address",
          "type": "address"
        },
        {
          "indexed": false,
          "name": "value",
          "type": "uint256"
        }
      ],
      "name": "DonationDeposited",
      "type": "event"
    },
    {
      "anonymous": false,
      "inputs": [
        {
          "indexed": false,
          "name": "_voter",
          "type": "address"
        },
        {
          "indexed": false,
          "name": "_time",
          "type": "uint256"
        }
      ],
      "name": "VoterWithrawlDeadlineUpdate",
      "type": "event"
    },
    {
      "anonymous": false,
      "inputs": [
        {
          "indexed": false,
          "name": "_addr",
          "type": "address"
        },
        {
          "indexed": false,
          "name": "value",
          "type": "uint256"
        }
      ],
      "name": "InactiveStaker",
      "type": "event"
    },
    {
      "anonymous": false,
      "inputs": [
        {
          "indexed": true,
          "name": "previousOwner",
          "type": "address"
        },
        {
          "indexed": true,
          "name": "newOwner",
          "type": "address"
        }
      ],
      "name": "TreasurerOwnershipTransferred",
      "type": "event"
    },
    {
      "constant": false,
      "inputs": [
        {
          "name": "_governanceContract",
          "type": "address"
        }
      ],
      "name": "setGovernanceContract",
      "outputs": [],
      "payable": false,
      "stateMutability": "nonpayable",
      "type": "function"
    },
    {
      "constant": false,
      "inputs": [],
      "name": "start_staking",
      "outputs": [],
      "payable": true,
      "stateMutability": "payable",
      "type": "function"
    },
    {
      "constant": false,
      "inputs": [],
      "name": "withdraw_stake",
      "outputs": [],
      "payable": false,
      "stateMutability": "nonpayable",
      "type": "function"
    },
    {
      "constant": false,
      "inputs": [
        {
          "name": "_addr",
          "type": "address"
        }
      ],
      "name": "report_abuse",
      "outputs": [],
      "payable": false,
      "stateMutability": "nonpayable",
      "type": "function"
    },
    {
      "constant": false,
      "inputs": [
        {
          "name": "voter",
          "type": "address"
        },
        {
          "name": "_voteWithdrawalDeadline",
          "type": "uint256"
        }
      ],
      "name": "vote_casted",
      "outputs": [],
      "payable": false,
      "stateMutability": "nonpayable",
      "type": "function"
    },
    {
      "constant": true,
      "inputs": [
        {
          "name": "_addr",
          "type": "address"
        }
      ],
      "name": "getStake",
      "outputs": [
        {
          "name": "",
          "type": "uint256"
        }
      ],
      "payable": false,
      "stateMutability": "view",
      "type": "function"
    }
  ],
  "bytecode": "0x6080604052622398806006556303c2670060075560088054600160a060020a0319167374682fc32007af0b6118f259cbe7bccc2164160017905534801561004557600080fd5b50604051602080611cac8339810180604052602081101561006557600080fd5b505160008054600160a060020a03191633178082556040518392600160a060020a039290921691907f2da0f18c3d869cdc5baa95d5dfa6a6e8cb6db2bcd24c13c9410e1c686c9cb8ee908290a360098054600160a060020a03909216600160a060020a0319928316179055600080549091163317905550611bc1806100eb6000396000f3fe60806040526004361061019d576000357c01000000000000000000000000000000000000000000000000000000009004806396e4afa6116100f3578063c5f956af1161009c578063e2d4056811610076578063e2d40568146104fa578063fb225c681461050f578063fda49eb41461054a5761019d565b8063c5f956af14610490578063cd948855146104a5578063da84e29b146104ba5761019d565b8063b172b222116100cd578063b172b22214610426578063c00007b01461043b578063c414af591461047b5761019d565b806396e4afa6146103935780639932ce71146103d1578063aaee69d9146103e65761019d565b8063373d6132116101555780637a7664601161012f5780637a766460146102a85780638778f415146102e85780639168ae72146103285761019d565b8063373d6132146102695780634e71d92d1461027e5780634fbdea4d146102935761019d565b80631f288efb116101865780631f288efb1461019d5780632505b1bc1461022d5780632c981d71146102545761019d565b80630c03ed52146101a75780631129753f146101ed575b6101a561055f565b005b3480156101b357600080fd5b506101a5600480360360408110156101ca57600080fd5b5073ffffffffffffffffffffffffffffffffffffffff8135169060200135610572565b3480156101f957600080fd5b506101a56004803603602081101561021057600080fd5b503573ffffffffffffffffffffffffffffffffffffffff16610630565b34801561023957600080fd5b506102426106dc565b60408051918252519081900360200190f35b34801561026057600080fd5b506102426106e2565b34801561027557600080fd5b506102426106e8565b34801561028a57600080fd5b506101a56106ee565b34801561029f57600080fd5b5061024261086e565b3480156102b457600080fd5b50610242600480360360208110156102cb57600080fd5b503573ffffffffffffffffffffffffffffffffffffffff16610874565b3480156102f457600080fd5b506102426004803603602081101561030b57600080fd5b503573ffffffffffffffffffffffffffffffffffffffff1661089c565b34801561033457600080fd5b506103686004803603602081101561034b57600080fd5b503573ffffffffffffffffffffffffffffffffffffffff166108c7565b6040805195865260208601949094528484019290925260608401526080830152519081900360a00190f35b34801561039f57600080fd5b506103a86108f5565b6040805173ffffffffffffffffffffffffffffffffffffffff9092168252519081900360200190f35b3480156103dd57600080fd5b506101a5610911565b3480156103f257600080fd5b506101a56004803603602081101561040957600080fd5b503573ffffffffffffffffffffffffffffffffffffffff166109e5565b34801561043257600080fd5b506103a8610a2e565b34801561044757600080fd5b506102426004803603602081101561045e57600080fd5b503573ffffffffffffffffffffffffffffffffffffffff16610a4a565b34801561048757600080fd5b50610242610c0f565b34801561049c57600080fd5b506103a8610c15565b3480156104b157600080fd5b506101a5610c31565b3480156104c657600080fd5b506101a5600480360360208110156104dd57600080fd5b503573ffffffffffffffffffffffffffffffffffffffff16610c57565b34801561050657600080fd5b50610242610db5565b34801561051b57600080fd5b50610524610dbb565b604080519485526020850193909352838301919091526060830152519081900360800190f35b34801561055657600080fd5b506103a8610de9565b610567610e05565b61057033610f18565b565b600a5473ffffffffffffffffffffffffffffffffffffffff16331461059657600080fd5b73ffffffffffffffffffffffffffffffffffffffff821660009081526001602052604090206004015481111561062c5773ffffffffffffffffffffffffffffffffffffffff82166000818152600160209081526040918290206004018490558151928352820183905280517fb3be0789f20b5816f24d07ccca682cb2591e0027636cf0f8876677c1cc3caad39281900390910190a15b5050565b60005473ffffffffffffffffffffffffffffffffffffffff1633146106a0576040517f08c379a0000000000000000000000000000000000000000000000000000000008152600401808060200182810382526026815260200180611b186026913960400191505060405180910390fd5b600a805473ffffffffffffffffffffffffffffffffffffffff191673ffffffffffffffffffffffffffffffffffffffff92909216919091179055565b60055481565b60065481565b60025481565b3360009081526001602052604090206006546002820154429101111561075f576040517f08c379a0000000000000000000000000000000000000000000000000000000008152600401808060200182810382526030815260200180611b3e6030913960400191505060405180910390fd5b61076c600080600061105e565b610775816111f0565b6001810180546000909155426002830155600454610799908263ffffffff61125a16565b6004908155600954604080517faad3ec960000000000000000000000000000000000000000000000000000000081523393810193909352602483018490525173ffffffffffffffffffffffffffffffffffffffff9091169163aad3ec9691604480830192600092919082900301818387803b15801561081757600080fd5b505af115801561082b573d6000803e3d6000fd5b5050604080513381526020810185905281517f47cee97cb7acd717b3c0aa1435d004cd5b3c8c57d70dbceb4e4458bbd60e39d49450908190039091019150a15050565b60045481565b73ffffffffffffffffffffffffffffffffffffffff1660009081526001602052604090205490565b73ffffffffffffffffffffffffffffffffffffffff1660009081526001602052604090206002015490565b6001602081905260009182526040909120805491810154600282015460038301546004909301549192909185565b60095473ffffffffffffffffffffffffffffffffffffffff1681565b60005473ffffffffffffffffffffffffffffffffffffffff163314610981576040517f08c379a0000000000000000000000000000000000000000000000000000000008152600401808060200182810382526026815260200180611b186026913960400191505060405180910390fd5b6000805460405173ffffffffffffffffffffffffffffffffffffffff909116907f2da0f18c3d869cdc5baa95d5dfa6a6e8cb6db2bcd24c13c9410e1c686c9cb8ee908390a36000805473ffffffffffffffffffffffffffffffffffffffff19169055565b73ffffffffffffffffffffffffffffffffffffffff81166000908152600160205260409020600401544211610a1957600080fd5b610a22816112a3565b610a2b81610f18565b50565b600a5473ffffffffffffffffffffffffffffffffffffffff1681565b60048054600954604080517f21ce7daf0000000000000000000000000000000000000000000000000000000081523094810194909452516000938493610b0293909273ffffffffffffffffffffffffffffffffffffffff909116916321ce7daf916024808301926020929190829003018186803b158015610aca57600080fd5b505afa158015610ade573d6000803e3d6000fd5b505050506040513d6020811015610af457600080fd5b50519063ffffffff61125a16565b60055460025491925082039015610bde576000610b54610b45600254610b39670de0b6b3a7640000866114ee90919063ffffffff16565b9063ffffffff61151316565b6003549063ffffffff61125a16565b73ffffffffffffffffffffffffffffffffffffffff861660009081526001602052604081206003015491925090610b9290839063ffffffff61155516565b73ffffffffffffffffffffffffffffffffffffffff8716600090815260016020526040902054909150610bd990670de0b6b3a764000090610b39908463ffffffff6114ee16565b945050505b505073ffffffffffffffffffffffffffffffffffffffff909116600090815260016020819052604090912001540190565b60035481565b60085473ffffffffffffffffffffffffffffffffffffffff1681565b336000908152600160205260409020600401544211610c4f57600080fd5b610567611597565b60005473ffffffffffffffffffffffffffffffffffffffff163314610cc7576040517f08c379a0000000000000000000000000000000000000000000000000000000008152600401808060200182810382526026815260200180611b186026913960400191505060405180910390fd5b73ffffffffffffffffffffffffffffffffffffffff8116610d33576040517f08c379a0000000000000000000000000000000000000000000000000000000008152600401808060200182810382526028815260200180611b6e6028913960400191505060405180910390fd5b6000805460405173ffffffffffffffffffffffffffffffffffffffff808516939216917f2da0f18c3d869cdc5baa95d5dfa6a6e8cb6db2bcd24c13c9410e1c686c9cb8ee91a36000805473ffffffffffffffffffffffffffffffffffffffff191673ffffffffffffffffffffffffffffffffffffffff92909216919091179055565b60075481565b3360008181526001602052604081208054600290910154909290914391610de190610a4a565b905090919293565b60005473ffffffffffffffffffffffffffffffffffffffff1681565b336000908152600160208190526040822091610e239134919061105e565b610e2c816111f0565b8054610e3e903463ffffffff61125a16565b8155426002820155600954604080517f3a4b66f1000000000000000000000000000000000000000000000000000000008152905173ffffffffffffffffffffffffffffffffffffffff90921691633a4b66f1913491600480830192600092919082900301818588803b158015610eb357600080fd5b505af1158015610ec7573d6000803e3d6000fd5b505083546040805133815234602082015280820192909252426060830152517f949a8db76845fd137ed692e4a5b8de95cd6038978523b30ea532d711a93fbfa794509081900360800192509050a150565b600a54604080517f573705a600000000000000000000000000000000000000000000000000000000815273ffffffffffffffffffffffffffffffffffffffff84811660048301529151919092169163573705a6916024808301926020929190829003018186803b158015610f8b57600080fd5b505afa158015610f9f573d6000803e3d6000fd5b505050506040513d6020811015610fb557600080fd5b505115610a2b57600a5473ffffffffffffffffffffffffffffffffffffffff8281166000908152600160205260408082205481517f3e5f60e6000000000000000000000000000000000000000000000000000000008152336004820152602481019190915290519290931692633e5f60e6926044808301939282900301818387803b15801561104357600080fd5b505af1158015611057573d6000803e3d6000fd5b5050505050565b60025460048054600954604080517f21ce7daf00000000000000000000000000000000000000000000000000000000815230948101949094525191926000926110e292859273ffffffffffffffffffffffffffffffffffffffff909116916321ce7daf91602480820192602092909190829003018186803b158015610aca57600080fd5b905060006110fb6005548361155590919063ffffffff16565b60058390559050831561112f57611127610b4585610b3984670de0b6b3a764000063ffffffff6114ee16565b60035561116c565b6008546111589073ffffffffffffffffffffffffffffffffffffffff168263ffffffff61173c16565b611168838263ffffffff61125a16565b6004555b8480156111795750600087115b156111965761118e848863ffffffff61125a16565b6002556111e7565b85156111e75760408051808201909152601d81527f436f6c645374616b696e673a207374616b65206e6f7420656e6f75676800000060208201526111e3908590889063ffffffff61186816565b6002555b50505050505050565b600380549082015460009061120c90839063ffffffff61155516565b90506000611233670de0b6b3a7640000610b398487600001546114ee90919063ffffffff16565b600185015490915061124b908263ffffffff61125a16565b60018501555050600390910155565b600061129c83836040518060400160405280601b81526020017f536166654d6174683a206164646974696f6e206f766572666c6f770000000000815250611919565b9392505050565b73ffffffffffffffffffffffffffffffffffffffff8116600090815260016020526040902080546112d357600080fd5b426112ed600754836002015461125a90919063ffffffff16565b10611343576040517f08c379a0000000000000000000000000000000000000000000000000000000008152600401808060200182810382526027815260200180611ad06027913960400191505060405180910390fd5b61135460008260000154600061105e565b61135d816111f0565b6001810180548254600092839055828455600954604080517ff3fef3a300000000000000000000000000000000000000000000000000000000815273ffffffffffffffffffffffffffffffffffffffff888116600483015260248201859052915194959394919092169263f3fef3a3926044808201939182900301818387803b1580156113e957600080fd5b505af11580156113fd573d6000803e3d6000fd5b5050600954600854604080517faad3ec9600000000000000000000000000000000000000000000000000000000815273ffffffffffffffffffffffffffffffffffffffff928316600482015260248101889052905191909216935063aad3ec969250604480830192600092919082900301818387803b15801561147f57600080fd5b505af1158015611493573d6000803e3d6000fd5b50506040805173ffffffffffffffffffffffffffffffffffffffff881681526020810185905281517f5a63f1ba543dd75fd2aa8dbd9da86cc185e5983fb3256c78c31b05e44203e1e69450908190039091019150a150505050565b600061129c8383604051806060016040528060218152602001611af760219139611991565b600061129c83836040518060400160405280601a81526020017f536166654d6174683a206469766973696f6e206279207a65726f000000000000815250611a16565b600061129c83836040518060400160405280601f81526020017f536166654d6174683a207375627472616374696f6e20756e646572666c6f7700815250611868565b336000908152600160205260409020600654600282015442916115c0919063ffffffff61125a16565b10611616576040517f08c379a0000000000000000000000000000000000000000000000000000000008152600401808060200182810382526030815260200180611b3e6030913960400191505060405180910390fd5b61162760008260000154600061105e565b611630816111f0565b80546001820180546000808555909155426002840155600454611659908263ffffffff61125a16565b6004908155600954604080517fdbca1b8f000000000000000000000000000000000000000000000000000000008152339381019390935260248301859052604483018490525173ffffffffffffffffffffffffffffffffffffffff9091169163dbca1b8f91606480830192600092919082900301818387803b1580156116de57600080fd5b505af11580156116f2573d6000803e3d6000fd5b5050604080513381526020810186905280820185905290517f5f808ed47938c2c6ffcf1784b8a3171a0e8cb25d277b291b26475b303473bbb09350908190036060019150a1505050565b30318111156117ac57604080517f08c379a000000000000000000000000000000000000000000000000000000000815260206004820152601d60248201527f416464726573733a20696e73756666696369656e742062616c616e6365000000604482015290519081900360640190fd5b60405160009073ffffffffffffffffffffffffffffffffffffffff84169083908381818185875af1925050503d8060008114611804576040519150601f19603f3d011682016040523d82523d6000602084013e611809565b606091505b5050905080611863576040517f08c379a000000000000000000000000000000000000000000000000000000000815260040180806020018281038252603a815260200180611a96603a913960400191505060405180910390fd5b505050565b60008184841115611911576040517f08c379a00000000000000000000000000000000000000000000000000000000081526004018080602001828103825283818151815260200191508051906020019080838360005b838110156118d65781810151838201526020016118be565b50505050905090810190601f1680156119035780820380516001836020036101000a031916815260200191505b509250505060405180910390fd5b505050900390565b60008383018285821015611988576040517f08c379a00000000000000000000000000000000000000000000000000000000081526020600482018181528351602484015283519092839260449091019190850190808383600083156118d65781810151838201526020016118be565b50949350505050565b6000836119a05750600061129c565b838302838582816119ad57fe5b04148390611988576040517f08c379a00000000000000000000000000000000000000000000000000000000081526020600482018181528351602484015283519092839260449091019190850190808383600083156118d65781810151838201526020016118be565b60008183611a7f576040517f08c379a00000000000000000000000000000000000000000000000000000000081526020600482018181528351602484015283519092839260449091019190850190808383600083156118d65781810151838201526020016118be565b506000838581611a8b57fe5b049594505050505056fe416464726573733a20756e61626c6520746f2073656e642076616c75652c20726563697069656e74206d61792068617665207265766572746564436f6c645374616b696e675375623a2064656c6179206c657373207468616e2032207965617273536166654d6174683a206d756c7469706c69636174696f6e206f766572666c6f775472656173757265723a2063616c6c6572206973206e6f742074686520747265617375726572436f6c645374616b696e675375623a206d696e696d756d207374616b696e672074696d65206e6f7420726561636865645472656173757265723a206e657720747265617375726572206973207a65726f2061646472657373a165627a7a72305820d9ea014657b6c0a9c2cc7884de383d1fee6a2b66e7050cc7a96ea20731b0a9400029",
  "source": "pragma solidity ^0.5.8;\n\nimport \"./interfaces/ITreasuryVoting.sol\";\nimport \"./ColdStakingSub.sol\";\nimport \"./interfaces/IColdStakingVoting.sol\";\n\ncontract ColdStakingVoting is  IColdStakingVoting , ColdStakingSub\n{\n\n \taddress public governanceContract;\n\n    function setGovernanceContract(address _governanceContract) public onlyTreasurer {\n        governanceContract = _governanceContract;\n    }\n\n    modifier onlyGovernanceContract {\n        require(msg.sender == governanceContract);\n        _;\n    }\n\n    constructor(address _coldStakingMain) ColdStakingSub(_coldStakingMain) public {\n        treasurer = address(msg.sender);\n    }\n\n\tfunction vote_update(address _addr) internal {\n\t    if( ITreasuryVoting(governanceContract).is_voter(_addr) )\n            ITreasuryVoting(governanceContract).update_voter(msg.sender,stakers[_addr].stake);    \n    }\n\n    function start_staking() public payable {\n    \tsuper.start_staking();\n    \tvote_update(msg.sender);\n    }\n\n    function withdraw_stake() public {\n    \trequire(stakers[msg.sender].voteWithdrawalDeadline < block.timestamp);\n    \tsuper.withdraw_stake();\n    \tvote_update(msg.sender);\n    }\n    function report_abuse(address _addr) public {\n    \trequire(stakers[_addr].voteWithdrawalDeadline < block.timestamp);\n    \tsuper.report_abuse(_addr);\n    \tvote_update(_addr);\n    }\n\n    function vote_casted(address voter, uint _voteWithdrawalDeadline) public onlyGovernanceContract\n    {\n        if(_voteWithdrawalDeadline >  stakers[voter].voteWithdrawalDeadline)\n        {\n            stakers[voter].voteWithdrawalDeadline = _voteWithdrawalDeadline;\n            emit VoterWithrawlDeadlineUpdate(voter,_voteWithdrawalDeadline);\n        }\n    }\n\n    function getStake(address _addr) public view returns(uint) {\n        return stakers[_addr].stake;\n    }\n}\n",
  "sourcePath": "/home/faycal/callisto-staking/contracts/ColdStakingVoting.sol",
  "compiler": {
    "name": "solc",
    "version": "0.5.8+commit.23d335f2.Emscripten.clang"
  },
  "schemaVersion": "3.0.1",
  "updatedAt": "2020-03-06T15:43:30.726Z",
  "devdoc": {
    "methods": {}
  },
  "userdoc": {
    "methods": {}
  }
}