{
  "contractName": "ColdStakingMain",
  "abi": [
    {
      "constant": true,
      "inputs": [],
      "name": "totalAmount",
      "outputs": [
        {
          "name": "",
          "type": "uint256"
        }
      ],
      "payable": false,
      "stateMutability": "view",
      "type": "function"
    },
    {
      "constant": true,
      "inputs": [],
      "name": "lastTotalReward",
      "outputs": [
        {
          "name": "",
          "type": "uint256"
        }
      ],
      "payable": false,
      "stateMutability": "view",
      "type": "function"
    },
    {
      "constant": true,
      "inputs": [],
      "name": "totalClaimedReward",
      "outputs": [
        {
          "name": "",
          "type": "uint256"
        }
      ],
      "payable": false,
      "stateMutability": "view",
      "type": "function"
    },
    {
      "constant": true,
      "inputs": [
        {
          "name": "",
          "type": "address"
        }
      ],
      "name": "subcontracts",
      "outputs": [
        {
          "name": "whitelisted",
          "type": "bool"
        },
        {
          "name": "stake",
          "type": "uint256"
        },
        {
          "name": "reward",
          "type": "uint256"
        },
        {
          "name": "lastWeightedBlockReward",
          "type": "uint256"
        }
      ],
      "payable": false,
      "stateMutability": "view",
      "type": "function"
    },
    {
      "constant": false,
      "inputs": [],
      "name": "renounceTreasurerOwnership",
      "outputs": [],
      "payable": false,
      "stateMutability": "nonpayable",
      "type": "function"
    },
    {
      "constant": true,
      "inputs": [],
      "name": "weightedBlockReward",
      "outputs": [
        {
          "name": "",
          "type": "uint256"
        }
      ],
      "payable": false,
      "stateMutability": "view",
      "type": "function"
    },
    {
      "constant": true,
      "inputs": [],
      "name": "treasuryAddress",
      "outputs": [
        {
          "name": "",
          "type": "address"
        }
      ],
      "payable": false,
      "stateMutability": "view",
      "type": "function"
    },
    {
      "constant": false,
      "inputs": [
        {
          "name": "newTreasurer",
          "type": "address"
        }
      ],
      "name": "transferTreasurerOwnership",
      "outputs": [],
      "payable": false,
      "stateMutability": "nonpayable",
      "type": "function"
    },
    {
      "constant": true,
      "inputs": [],
      "name": "treasurer",
      "outputs": [
        {
          "name": "",
          "type": "address"
        }
      ],
      "payable": false,
      "stateMutability": "view",
      "type": "function"
    },
    {
      "anonymous": false,
      "inputs": [
        {
          "indexed": true,
          "name": "previousOwner",
          "type": "address"
        },
        {
          "indexed": true,
          "name": "newOwner",
          "type": "address"
        }
      ],
      "name": "TreasurerOwnershipTransferred",
      "type": "event"
    },
    {
      "constant": false,
      "inputs": [
        {
          "name": "_addr",
          "type": "address"
        },
        {
          "name": "_whitelisted",
          "type": "bool"
        }
      ],
      "name": "setWhiteListedAddress",
      "outputs": [],
      "payable": false,
      "stateMutability": "nonpayable",
      "type": "function"
    },
    {
      "constant": false,
      "inputs": [],
      "name": "stake",
      "outputs": [],
      "payable": true,
      "stateMutability": "payable",
      "type": "function"
    },
    {
      "constant": false,
      "inputs": [
        {
          "name": "_addr",
          "type": "address"
        },
        {
          "name": "_amount",
          "type": "uint256"
        }
      ],
      "name": "withdraw",
      "outputs": [],
      "payable": false,
      "stateMutability": "nonpayable",
      "type": "function"
    },
    {
      "constant": false,
      "inputs": [
        {
          "name": "_addr",
          "type": "address"
        },
        {
          "name": "_reward",
          "type": "uint256"
        }
      ],
      "name": "claim",
      "outputs": [],
      "payable": false,
      "stateMutability": "nonpayable",
      "type": "function"
    },
    {
      "constant": false,
      "inputs": [
        {
          "name": "_addr",
          "type": "address"
        },
        {
          "name": "_amount",
          "type": "uint256"
        },
        {
          "name": "_reward",
          "type": "uint256"
        }
      ],
      "name": "withdrawAndClaim",
      "outputs": [],
      "payable": false,
      "stateMutability": "nonpayable",
      "type": "function"
    },
    {
      "constant": true,
      "inputs": [
        {
          "name": "_addr",
          "type": "address"
        }
      ],
      "name": "subContractReward",
      "outputs": [
        {
          "name": "_reward",
          "type": "uint256"
        }
      ],
      "payable": false,
      "stateMutability": "view",
      "type": "function"
    },
    {
      "constant": true,
      "inputs": [
        {
          "name": "_addr",
          "type": "address"
        }
      ],
      "name": "getStake",
      "outputs": [
        {
          "name": "",
          "type": "uint256"
        }
      ],
      "payable": false,
      "stateMutability": "view",
      "type": "function"
    },
    {
      "constant": true,
      "inputs": [
        {
          "name": "_addr",
          "type": "address"
        }
      ],
      "name": "getReward",
      "outputs": [
        {
          "name": "",
          "type": "uint256"
        }
      ],
      "payable": false,
      "stateMutability": "view",
      "type": "function"
    }
  ],
  "bytecode": "0x6080604081905260068054600160a060020a03199081167374682fc32007af0b6118f259cbe7bccc2164160017909155600080549091163317808255600160a060020a0316917f2da0f18c3d869cdc5baa95d5dfa6a6e8cb6db2bcd24c13c9410e1c686c9cb8ee908290a3611371806100796000396000f3fe60806040526004361061012b576000357c010000000000000000000000000000000000000000000000000000000090048063aad3ec96116100c2578063d7a6aeda11610091578063dbca1b8f11610076578063dbca1b8f146103e9578063f3fef3a314610435578063fda49eb41461047b5761012b565b8063d7a6aeda14610361578063da84e29b146103a95761012b565b8063aad3ec9614610288578063c00007b0146102ce578063c414af591461030e578063c5f956af146103235761012b565b80634fbdea4d116100fe5780634fbdea4d146101b65780637519a86a146101cb5780637a766460146102335780639932ce71146102735761012b565b80631a39d8ef1461013057806321ce7daf146101575780632505b1bc146101975780633a4b66f1146101ac575b600080fd5b34801561013c57600080fd5b50610145610490565b60408051918252519081900360200190f35b34801561016357600080fd5b506101456004803603602081101561017a57600080fd5b503573ffffffffffffffffffffffffffffffffffffffff16610496565b3480156101a357600080fd5b506101456105d8565b6101b46105de565b005b3480156101c257600080fd5b5061014561067a565b3480156101d757600080fd5b5061020b600480360360208110156101ee57600080fd5b503573ffffffffffffffffffffffffffffffffffffffff16610680565b6040805194151585526020850193909352838301919091526060830152519081900360800190f35b34801561023f57600080fd5b506101456004803603602081101561025657600080fd5b503573ffffffffffffffffffffffffffffffffffffffff166106ae565b34801561027f57600080fd5b506101b46106da565b34801561029457600080fd5b506101b4600480360360408110156102ab57600080fd5b5073ffffffffffffffffffffffffffffffffffffffff81351690602001356107b9565b3480156102da57600080fd5b50610145600480360360208110156102f157600080fd5b503573ffffffffffffffffffffffffffffffffffffffff1661088e565b34801561031a57600080fd5b506101456108b9565b34801561032f57600080fd5b506103386108bf565b6040805173ffffffffffffffffffffffffffffffffffffffff9092168252519081900360200190f35b34801561036d57600080fd5b506101b46004803603604081101561038457600080fd5b5073ffffffffffffffffffffffffffffffffffffffff813516906020013515156108db565b3480156103b557600080fd5b506101b4600480360360208110156103cc57600080fd5b503573ffffffffffffffffffffffffffffffffffffffff166109a1565b3480156103f557600080fd5b506101b46004803603606081101561040c57600080fd5b5073ffffffffffffffffffffffffffffffffffffffff8135169060208101359060400135610b0a565b34801561044157600080fd5b506101b46004803603604081101561045857600080fd5b5073ffffffffffffffffffffffffffffffffffffffff8135169060200135610bb0565b34801561048757600080fd5b50610338610c46565b60025481565b6002546004546000919082906104c69083906104ba9030319063ffffffff610c6216565b9063ffffffff610cab16565b905060006104df60055483610cab90919063ffffffff16565b90506104e961124e565b5073ffffffffffffffffffffffffffffffffffffffff851660009081526001602081815260408084208151608081018352815460ff161515815293810154928401929092526002820154908301526003015460608201529084156105c85760006105836105748761056887670de0b6b3a764000063ffffffff610ced16565b9063ffffffff610d1216565b6003549063ffffffff610c6216565b9050600061059e846060015183610cab90919063ffffffff16565b90506105c3670de0b6b3a7640000610568838760200151610ced90919063ffffffff16565b925050505b6040909101510195945050505050565b60055481565b336000908152600160205260409020805460ff16610647576040517f08c379a00000000000000000000000000000000000000000000000000000000081526004018080602001828103825260248152602001806113226024913960400191505060405180910390fd5b6106543460006001610d54565b61065d81610e8d565b6001810154610672903463ffffffff610c6216565b600190910155565b60045481565b6001602081905260009182526040909120805491810154600282015460039092015460ff9093169290919084565b73ffffffffffffffffffffffffffffffffffffffff166000908152600160208190526040909120015490565b60005473ffffffffffffffffffffffffffffffffffffffff16331461074a576040517f08c379a00000000000000000000000000000000000000000000000000000000081526004018080602001828103825260268152602001806112d46026913960400191505060405180910390fd5b6000805460405173ffffffffffffffffffffffffffffffffffffffff909116907f2da0f18c3d869cdc5baa95d5dfa6a6e8cb6db2bcd24c13c9410e1c686c9cb8ee908390a3600080547fffffffffffffffffffffffff0000000000000000000000000000000000000000169055565b3360009081526001602081905260408220916107d6918190610d54565b6107df81610e8d565b60408051808201909152601e81527f436f6c645374616b696e673a20726577617264206e6f7420656e6f75676800006020820152600282015461082991849063ffffffff610ef716565b6002820155600454610841908363ffffffff610c6216565b6004556108898261086773ffffffffffffffffffffffffffffffffffffffff8616610fa8565b73ffffffffffffffffffffffffffffffffffffffff169063ffffffff610fab16565b505050565b73ffffffffffffffffffffffffffffffffffffffff1660009081526001602052604090206002015490565b60035481565b60065473ffffffffffffffffffffffffffffffffffffffff1681565b60005473ffffffffffffffffffffffffffffffffffffffff16331461094b576040517f08c379a00000000000000000000000000000000000000000000000000000000081526004018080602001828103825260268152602001806112d46026913960400191505060405180910390fd5b73ffffffffffffffffffffffffffffffffffffffff91909116600090815260016020526040902080547fffffffffffffffffffffffffffffffffffffffffffffffffffffffffffffff0016911515919091179055565b60005473ffffffffffffffffffffffffffffffffffffffff163314610a11576040517f08c379a00000000000000000000000000000000000000000000000000000000081526004018080602001828103825260268152602001806112d46026913960400191505060405180910390fd5b73ffffffffffffffffffffffffffffffffffffffff8116610a7d576040517f08c379a00000000000000000000000000000000000000000000000000000000081526004018080602001828103825260288152602001806112fa6028913960400191505060405180910390fd5b6000805460405173ffffffffffffffffffffffffffffffffffffffff808516939216917f2da0f18c3d869cdc5baa95d5dfa6a6e8cb6db2bcd24c13c9410e1c686c9cb8ee91a3600080547fffffffffffffffffffffffff00000000000000000000000000000000000000001673ffffffffffffffffffffffffffffffffffffffff92909216919091179055565b33600090815260016020526040812090610b25908481610d54565b610b2e81610e8d565b6001810154610b43908463ffffffff610cab16565b60018201556002810154610b5d908363ffffffff610cab16565b6002820155600454610b75908363ffffffff610c6216565b600455610baa610b8b848463ffffffff610c6216565b6108678673ffffffffffffffffffffffffffffffffffffffff16610fa8565b50505050565b33600090815260016020526040812090610bcb908381610d54565b610bd481610e8d565b60408051808201909152601d81527f436f6c645374616b696e673a207374616b65206e6f7420656e6f75676800000060208201526001820154610c1e91849063ffffffff610ef716565b60018201556108898261086773ffffffffffffffffffffffffffffffffffffffff8616610fa8565b60005473ffffffffffffffffffffffffffffffffffffffff1681565b6000610ca483836040518060400160405280601b81526020017f536166654d6174683a206164646974696f6e206f766572666c6f7700000000008152506110d2565b9392505050565b6000610ca483836040518060400160405280601f81526020017f536166654d6174683a207375627472616374696f6e20756e646572666c6f7700815250610ef7565b6000610ca483836040518060600160405280602181526020016112b36021913961114a565b6000610ca483836040518060400160405280601a81526020017f536166654d6174683a206469766973696f6e206279207a65726f0000000000008152506111cf565b6002546004546000610d80610d6f848863ffffffff610c6216565b6104ba30318563ffffffff610c6216565b90506000610d9960055483610cab90919063ffffffff16565b600583905590508315610dcd57610dc56105748561056884670de0b6b3a764000063ffffffff610ced16565b600355610e09565b600654610df59082906108679073ffffffffffffffffffffffffffffffffffffffff16610fa8565b610e05838263ffffffff610c6216565b6004555b848015610e165750600087115b15610e3357610e2b848863ffffffff610c6216565b600255610e84565b8515610e845760408051808201909152601d81527f436f6c645374616b696e673a207374616b65206e6f7420656e6f7567680000006020820152610e80908590889063ffffffff610ef716565b6002555b50505050505050565b6003805490820154600090610ea990839063ffffffff610cab16565b90506000610ed0670de0b6b3a7640000610568848760010154610ced90919063ffffffff16565b6002850154909150610ee8908263ffffffff610c6216565b60028501555050600390910155565b60008184841115610fa0576040517f08c379a00000000000000000000000000000000000000000000000000000000081526004018080602001828103825283818151815260200191508051906020019080838360005b83811015610f65578181015183820152602001610f4d565b50505050905090810190601f168015610f925780820380516001836020036101000a031916815260200191505b509250505060405180910390fd5b505050900390565b90565b303181111561101b57604080517f08c379a000000000000000000000000000000000000000000000000000000000815260206004820152601d60248201527f416464726573733a20696e73756666696369656e742062616c616e6365000000604482015290519081900360640190fd5b60405160009073ffffffffffffffffffffffffffffffffffffffff84169083908381818185875af1925050503d8060008114611073576040519150601f19603f3d011682016040523d82523d6000602084013e611078565b606091505b5050905080610889576040517f08c379a000000000000000000000000000000000000000000000000000000000815260040180806020018281038252603a815260200180611279603a913960400191505060405180910390fd5b60008383018285821015611141576040517f08c379a0000000000000000000000000000000000000000000000000000000008152602060048201818152835160248401528351909283926044909101919085019080838360008315610f65578181015183820152602001610f4d565b50949350505050565b60008361115957506000610ca4565b8383028385828161116657fe5b04148390611141576040517f08c379a0000000000000000000000000000000000000000000000000000000008152602060048201818152835160248401528351909283926044909101919085019080838360008315610f65578181015183820152602001610f4d565b60008183611238576040517f08c379a0000000000000000000000000000000000000000000000000000000008152602060048201818152835160248401528351909283926044909101919085019080838360008315610f65578181015183820152602001610f4d565b50600083858161124457fe5b0495945050505050565b6040518060800160405280600015158152602001600081526020016000815260200160008152509056fe416464726573733a20756e61626c6520746f2073656e642076616c75652c20726563697069656e74206d61792068617665207265766572746564536166654d6174683a206d756c7469706c69636174696f6e206f766572666c6f775472656173757265723a2063616c6c6572206973206e6f7420746865207472656173757265725472656173757265723a206e657720747265617375726572206973207a65726f2061646472657373436f6c645374616b696e673a2041646472657373206e6f742077686974656c6973746564a165627a7a723058204866de50a0ff1cd82ffb9ee3894a004be2a058d010633b34c48a790cd09591940029",
  "source": "pragma solidity ^0.5.8;\n\nimport \"./utils/SafeMath.sol\";\nimport \"./utils/Address.sol\";\nimport \"./interfaces/IColdStakingMain.sol\";\nimport \"./utils/Treasurer.sol\";\n\ncontract ColdStakingMain is IColdStakingMain, Treasurer\n{\n    using SafeMath for uint;\n    using Address for address;\n    using Address for address payable;\n\n    struct SubContract {\n        bool whitelisted;\n        uint stake;\n        uint reward;        \n        uint lastWeightedBlockReward;\n    }\n    \n    mapping(address => SubContract) public subcontracts;\n    \n    uint public totalAmount;\n    uint public weightedBlockReward;\n    uint public totalClaimedReward;\n    uint public lastTotalReward;\n    \n    address public treasuryAddress = 0x74682Fc32007aF0b6118F259cBe7bCCC21641600;\n    \n    function setWhiteListedAddress(address _addr, bool _whitelisted) onlyTreasurer public {\n        subcontracts[_addr].whitelisted = _whitelisted;\n    }\n\n    function stake_update(uint _deposit,uint _withdraw, bool _sign) internal {\n        uint m_totalAmount = totalAmount;\n        uint m_totalClaimedReward = totalClaimedReward;\n\n        uint newTotalReward = address(this).balance.add(m_totalClaimedReward).sub(m_totalAmount.add(_deposit));\n        uint intervalReward = newTotalReward.sub(lastTotalReward);\n\n        lastTotalReward = newTotalReward;\n\n        if (m_totalAmount!=0) weightedBlockReward = weightedBlockReward.add(intervalReward.mul(1 ether).div(m_totalAmount));\n        else {\n            treasuryAddress.toPayable().sendValue(intervalReward);\n            totalClaimedReward = m_totalClaimedReward.add(intervalReward);\n        }\n\n        if(_sign && _deposit > 0) totalAmount = m_totalAmount.add(_deposit);\n        else if(_withdraw > 0) totalAmount = m_totalAmount.sub(_withdraw,\"ColdStaking: stake not enough\");\n    }\n\n    function reward_update(SubContract storage subcontract) internal {\n        uint m_weightedBlockReward = weightedBlockReward;\n        uint stakerIntervalWeightedBlockReward = m_weightedBlockReward.sub(subcontract.lastWeightedBlockReward);\n        uint _reward = subcontract.stake.mul(stakerIntervalWeightedBlockReward).div(1 ether);\n\n        subcontract.reward = subcontract.reward.add(_reward);\n        subcontract.lastWeightedBlockReward = m_weightedBlockReward;\n    }\n\n    function stake() public payable {\n        SubContract storage subcontract = subcontracts[msg.sender];\n        require(subcontract.whitelisted,\"ColdStaking: Address not whitelisted\");\n\n        stake_update(msg.value,0,true);\n        reward_update(subcontract); \n        subcontract.stake = subcontract.stake.add(msg.value); \n    }\n    \n    function withdraw(address _addr, uint _amount) public {\n        SubContract storage subcontract = subcontracts[msg.sender];\n        stake_update(0,_amount,false);\n        reward_update(subcontract);\n        subcontract.stake  = subcontract.stake.sub(_amount,\"ColdStaking: stake not enough\");\n        _addr.toPayable().sendValue(_amount);\n    }\n\n    function claim(address _addr, uint _reward) public {\n        SubContract storage subcontract = subcontracts[msg.sender];\n\n        stake_update(0,0,true);\n        reward_update(subcontract);\n\n        subcontract.reward  = subcontract.reward.sub(_reward,\"ColdStaking: reward not enough\");\n        totalClaimedReward = totalClaimedReward.add(_reward);\n        _addr.toPayable().sendValue(_reward);    \n    }\n\n    function withdrawAndClaim(address _addr, uint _amount, uint _reward) public {\n        SubContract storage subcontract = subcontracts[msg.sender];\n\n        stake_update(0,_amount,false);\n        reward_update(subcontract);\n        \n        subcontract.stake  = subcontract.stake.sub(_amount);\n        subcontract.reward  = subcontract.reward.sub(_reward);\n        totalClaimedReward = totalClaimedReward.add(_reward);\n        _addr.toPayable().sendValue(_amount.add(_reward)); \n    }\n\n    function subContractReward(address _addr) public view returns(uint _reward) {\n        uint m_totalAmount = totalAmount;\n        uint newTotalReward = address(this).balance.add(totalClaimedReward).sub(m_totalAmount);\n        uint intervalReward = newTotalReward.sub(lastTotalReward);\n        SubContract memory subcontract = subcontracts[_addr];\n        uint reward;\n        if (m_totalAmount!=0) {\n            uint m_weightedBlockReward = weightedBlockReward.add(intervalReward.mul(1 ether).div(m_totalAmount));\n            uint m_stakerIntervalWeightedBlockReward = m_weightedBlockReward.sub(subcontract.lastWeightedBlockReward);\n            reward = subcontract.stake.mul(m_stakerIntervalWeightedBlockReward).div(1 ether);\n        }\n        _reward = subcontract.reward + reward;\n    }\n\n    function getStake(address _addr) public view returns(uint) {\n        return subcontracts[_addr].stake;\n    }\n\n    function getReward(address _addr) public view returns(uint) {\n        return subcontracts[_addr].reward;\n    }\n}\n",
  "sourcePath": "/home/faycal/callisto-staking/contracts/ColdStakingMain.sol",
  "compiler": {
    "name": "solc",
    "version": "0.5.8+commit.23d335f2.Emscripten.clang"
  },
  "schemaVersion": "3.0.1",
  "updatedAt": "2020-03-06T15:43:30.720Z",
  "devdoc": {
    "methods": {}
  },
  "userdoc": {
    "methods": {}
  }
}