{
  "contractName": "ColdStakingSub",
  "abi": [
    {
      "constant": true,
      "inputs": [],
      "name": "lastTotalReward",
      "outputs": [
        {
          "name": "",
          "type": "uint256"
        }
      ],
      "payable": false,
      "stateMutability": "view",
      "type": "function"
    },
    {
      "constant": true,
      "inputs": [],
      "name": "claim_delay",
      "outputs": [
        {
          "name": "",
          "type": "uint256"
        }
      ],
      "payable": false,
      "stateMutability": "view",
      "type": "function"
    },
    {
      "constant": true,
      "inputs": [],
      "name": "stakedAmount",
      "outputs": [
        {
          "name": "",
          "type": "uint256"
        }
      ],
      "payable": false,
      "stateMutability": "view",
      "type": "function"
    },
    {
      "constant": true,
      "inputs": [],
      "name": "totalClaimedReward",
      "outputs": [
        {
          "name": "",
          "type": "uint256"
        }
      ],
      "payable": false,
      "stateMutability": "view",
      "type": "function"
    },
    {
      "constant": true,
      "inputs": [
        {
          "name": "",
          "type": "address"
        }
      ],
      "name": "staker",
      "outputs": [
        {
          "name": "stake",
          "type": "uint256"
        },
        {
          "name": "reward",
          "type": "uint256"
        },
        {
          "name": "lastClaim",
          "type": "uint256"
        },
        {
          "name": "lastWeightedBlockReward",
          "type": "uint256"
        },
        {
          "name": "voteWithdrawalDeadline",
          "type": "uint256"
        }
      ],
      "payable": false,
      "stateMutability": "view",
      "type": "function"
    },
    {
      "constant": true,
      "inputs": [],
      "name": "coldStakingMain",
      "outputs": [
        {
          "name": "",
          "type": "address"
        }
      ],
      "payable": false,
      "stateMutability": "view",
      "type": "function"
    },
    {
      "constant": false,
      "inputs": [],
      "name": "renounceTreasurerOwnership",
      "outputs": [],
      "payable": false,
      "stateMutability": "nonpayable",
      "type": "function"
    },
    {
      "constant": true,
      "inputs": [],
      "name": "weightedBlockReward",
      "outputs": [
        {
          "name": "",
          "type": "uint256"
        }
      ],
      "payable": false,
      "stateMutability": "view",
      "type": "function"
    },
    {
      "constant": true,
      "inputs": [],
      "name": "treasuryAddress",
      "outputs": [
        {
          "name": "",
          "type": "address"
        }
      ],
      "payable": false,
      "stateMutability": "view",
      "type": "function"
    },
    {
      "constant": false,
      "inputs": [
        {
          "name": "newTreasurer",
          "type": "address"
        }
      ],
      "name": "transferTreasurerOwnership",
      "outputs": [],
      "payable": false,
      "stateMutability": "nonpayable",
      "type": "function"
    },
    {
      "constant": true,
      "inputs": [],
      "name": "max_delay",
      "outputs": [
        {
          "name": "",
          "type": "uint256"
        }
      ],
      "payable": false,
      "stateMutability": "view",
      "type": "function"
    },
    {
      "constant": true,
      "inputs": [],
      "name": "treasurer",
      "outputs": [
        {
          "name": "",
          "type": "address"
        }
      ],
      "payable": false,
      "stateMutability": "view",
      "type": "function"
    },
    {
      "inputs": [
        {
          "name": "_coldStakingMain",
          "type": "address"
        }
      ],
      "payable": false,
      "stateMutability": "nonpayable",
      "type": "constructor"
    },
    {
      "payable": true,
      "stateMutability": "payable",
      "type": "fallback"
    },
    {
      "anonymous": false,
      "inputs": [
        {
          "indexed": false,
          "name": "addr",
          "type": "address"
        },
        {
          "indexed": false,
          "name": "value",
          "type": "uint256"
        },
        {
          "indexed": false,
          "name": "amount",
          "type": "uint256"
        },
        {
          "indexed": false,
          "name": "time",
          "type": "uint256"
        }
      ],
      "name": "Staking",
      "type": "event"
    },
    {
      "anonymous": false,
      "inputs": [
        {
          "indexed": false,
          "name": "staker",
          "type": "address"
        },
        {
          "indexed": false,
          "name": "amount",
          "type": "uint256"
        },
        {
          "indexed": false,
          "name": "reward",
          "type": "uint256"
        }
      ],
      "name": "WithdrawStake",
      "type": "event"
    },
    {
      "anonymous": false,
      "inputs": [
        {
          "indexed": false,
          "name": "staker",
          "type": "address"
        },
        {
          "indexed": false,
          "name": "reward",
          "type": "uint256"
        }
      ],
      "name": "Claim",
      "type": "event"
    },
    {
      "anonymous": false,
      "inputs": [
        {
          "indexed": false,
          "name": "_address",
          "type": "address"
        },
        {
          "indexed": false,
          "name": "value",
          "type": "uint256"
        }
      ],
      "name": "DonationDeposited",
      "type": "event"
    },
    {
      "anonymous": false,
      "inputs": [
        {
          "indexed": false,
          "name": "_voter",
          "type": "address"
        },
        {
          "indexed": false,
          "name": "_time",
          "type": "uint256"
        }
      ],
      "name": "VoterWithrawlDeadlineUpdate",
      "type": "event"
    },
    {
      "anonymous": false,
      "inputs": [
        {
          "indexed": false,
          "name": "_addr",
          "type": "address"
        },
        {
          "indexed": false,
          "name": "value",
          "type": "uint256"
        }
      ],
      "name": "InactiveStaker",
      "type": "event"
    },
    {
      "anonymous": false,
      "inputs": [
        {
          "indexed": true,
          "name": "previousOwner",
          "type": "address"
        },
        {
          "indexed": true,
          "name": "newOwner",
          "type": "address"
        }
      ],
      "name": "TreasurerOwnershipTransferred",
      "type": "event"
    },
    {
      "constant": false,
      "inputs": [],
      "name": "start_staking",
      "outputs": [],
      "payable": true,
      "stateMutability": "payable",
      "type": "function"
    },
    {
      "constant": false,
      "inputs": [],
      "name": "withdraw_stake",
      "outputs": [],
      "payable": false,
      "stateMutability": "nonpayable",
      "type": "function"
    },
    {
      "constant": false,
      "inputs": [],
      "name": "claim",
      "outputs": [],
      "payable": false,
      "stateMutability": "nonpayable",
      "type": "function"
    },
    {
      "constant": true,
      "inputs": [],
      "name": "staker_info",
      "outputs": [
        {
          "name": "weight",
          "type": "uint256"
        },
        {
          "name": "init",
          "type": "uint256"
        },
        {
          "name": "actual_block",
          "type": "uint256"
        },
        {
          "name": "_reward",
          "type": "uint256"
        }
      ],
      "payable": false,
      "stateMutability": "view",
      "type": "function"
    },
    {
      "constant": false,
      "inputs": [
        {
          "name": "_addr",
          "type": "address"
        }
      ],
      "name": "report_abuse",
      "outputs": [],
      "payable": false,
      "stateMutability": "nonpayable",
      "type": "function"
    },
    {
      "constant": true,
      "inputs": [
        {
          "name": "_addr",
          "type": "address"
        }
      ],
      "name": "getReward",
      "outputs": [
        {
          "name": "_reward",
          "type": "uint256"
        }
      ],
      "payable": false,
      "stateMutability": "view",
      "type": "function"
    },
    {
      "constant": true,
      "inputs": [
        {
          "name": "_addr",
          "type": "address"
        }
      ],
      "name": "getLastClaim",
      "outputs": [
        {
          "name": "",
          "type": "uint256"
        }
      ],
      "payable": false,
      "stateMutability": "view",
      "type": "function"
    },
    {
      "constant": true,
      "inputs": [
        {
          "name": "_addr",
          "type": "address"
        }
      ],
      "name": "getStake",
      "outputs": [
        {
          "name": "",
          "type": "uint256"
        }
      ],
      "payable": false,
      "stateMutability": "view",
      "type": "function"
    }
  ],
  "bytecode": "0x6080604052622398806006556303c26700600755600880546001600160a01b0319167374682fc32007af0b6118f259cbe7bccc2164160017905534801561004557600080fd5b5060405160208061164f8339810180604052602081101561006557600080fd5b5051600080546001600160a01b03191633178082556040516001600160a01b039190911691907f2da0f18c3d869cdc5baa95d5dfa6a6e8cb6db2bcd24c13c9410e1c686c9cb8ee908290a3600980546001600160a01b0319166001600160a01b0392909216919091179055611570806100df6000396000f3fe60806040526004361061015f5760003560e01c80639932ce71116100c0578063cd94885511610074578063e2d4056811610059578063e2d40568146103c6578063fb225c68146103db578063fda49eb4146104165761015f565b8063cd9488551461037e578063da84e29b146103935761015f565b8063c00007b0116100a5578063c00007b014610321578063c414af5914610354578063c5f956af146103695761015f565b80639932ce71146102d9578063aaee69d9146102ee5761015f565b80634fbdea4d1161011757806382e4eda4116100fc57806382e4eda4146102175780638778f4151461027557806396e4afa6146102a85761015f565b80634fbdea4d146101cf5780637a766460146101e45761015f565b80632c981d71116101485780632c981d7114610190578063373d6132146101a55780634e71d92d146101ba5761015f565b80631f288efb1461015f5780632505b1bc14610169575b61016761042b565b005b34801561017557600080fd5b5061017e610549565b60408051918252519081900360200190f35b34801561019c57600080fd5b5061017e61054f565b3480156101b157600080fd5b5061017e610555565b3480156101c657600080fd5b5061016761055b565b3480156101db57600080fd5b5061017e610689565b3480156101f057600080fd5b5061017e6004803603602081101561020757600080fd5b50356001600160a01b031661068f565b34801561022357600080fd5b5061024a6004803603602081101561023a57600080fd5b50356001600160a01b03166106aa565b6040805195865260208601949094528484019290925260608401526080830152519081900360a00190f35b34801561028157600080fd5b5061017e6004803603602081101561029857600080fd5b50356001600160a01b03166106d8565b3480156102b457600080fd5b506102bd6106f6565b604080516001600160a01b039092168252519081900360200190f35b3480156102e557600080fd5b50610167610705565b3480156102fa57600080fd5b506101676004803603602081101561031157600080fd5b50356001600160a01b03166107b3565b34801561032d57600080fd5b5061017e6004803603602081101561034457600080fd5b50356001600160a01b03166109e7565b34801561036057600080fd5b5061017e610b78565b34801561037557600080fd5b506102bd610b7e565b34801561038a57600080fd5b50610167610b8d565b34801561039f57600080fd5b50610167600480360360208110156103b657600080fd5b50356001600160a01b0316610d27565b3480156103d257600080fd5b5061017e610e2e565b3480156103e757600080fd5b506103f0610e34565b604080519485526020850193909352838301919091526060830152519081900360800190f35b34801561042257600080fd5b506102bd610e62565b6104383460006001610e71565b610440610fed565b33600090815260016020526040902054610460903463ffffffff61109016565b336000908152600160205260408082209283554260029093019290925560095482517f3a4b66f100000000000000000000000000000000000000000000000000000000815292516001600160a01b0390911692633a4b66f192349260048084019382900301818588803b1580156104d657600080fd5b505af11580156104ea573d6000803e3d6000fd5b505033600081815260016020908152604091829020548251938452349184019190915282820152426060830152517f949a8db76845fd137ed692e4a5b8de95cd6038978523b30ea532d711a93fbfa794509081900360800192509050a1565b60055481565b60065481565b60025481565b6006543360009081526001602052604090206002015442910111610687576105866000806000610e71565b61058e610fed565b33600090815260016020819052604082209081018054929055426002909101556004546105c1908263ffffffff61109016565b6004908155600954604080517faad3ec96000000000000000000000000000000000000000000000000000000008152339381019390935260248301849052516001600160a01b039091169163aad3ec9691604480830192600092919082900301818387803b15801561063257600080fd5b505af1158015610646573d6000803e3d6000fd5b5050604080513381526020810185905281517f47cee97cb7acd717b3c0aa1435d004cd5b3c8c57d70dbceb4e4458bbd60e39d49450908190039091019150a1505b565b60045481565b6001600160a01b031660009081526001602052604090205490565b6001602081905260009182526040909120805491810154600282015460038301546004909301549192909185565b6001600160a01b031660009081526001602052604090206002015490565b6009546001600160a01b031681565b6000546001600160a01b0316331461075157604051600160e51b62461bcd0281526004018080602001828103825260268152602001806114c76026913960400191505060405180910390fd5b600080546040516001600160a01b03909116907f2da0f18c3d869cdc5baa95d5dfa6a6e8cb6db2bcd24c13c9410e1c686c9cb8ee908390a3600080547fffffffffffffffffffffffff0000000000000000000000000000000000000000169055565b6001600160a01b0381166000908152600160205260409020546107d557600080fd5b6007546001600160a01b0382166000908152600160205260409020600201544291610806919063ffffffff61109016565b1061084557604051600160e51b62461bcd02815260040180806020018281038252602781526020018061147f6027913960400191505060405180910390fd5b6001600160a01b038116600090815260016020526040812054610869919081610e71565b610871610fed565b6001600160a01b03808216600081815260016020819052604080832091820180548354918590559284905560095482517ff3fef3a300000000000000000000000000000000000000000000000000000000815260048101969096526024860182905291519295909491169263f3fef3a39260448084019382900301818387803b1580156108fd57600080fd5b505af1158015610911573d6000803e3d6000fd5b5050600954600854604080517faad3ec960000000000000000000000000000000000000000000000000000000081526001600160a01b03928316600482015260248101889052905191909216935063aad3ec969250604480830192600092919082900301818387803b15801561098657600080fd5b505af115801561099a573d6000803e3d6000fd5b5050604080516001600160a01b03871681526020810185905281517f5a63f1ba543dd75fd2aa8dbd9da86cc185e5983fb3256c78c31b05e44203e1e69450908190039091019150a1505050565b60048054600954604080517f21ce7daf0000000000000000000000000000000000000000000000000000000081523094810194909452516000938493610a929390926001600160a01b03909116916321ce7daf916024808301926020929190829003018186803b158015610a5a57600080fd5b505afa158015610a6e573d6000803e3d6000fd5b505050506040513d6020811015610a8457600080fd5b50519063ffffffff61109016565b60055460025491925082039015610b54576000610ae4610ad5600254610ac9670de0b6b3a7640000866110d990919063ffffffff16565b9063ffffffff6110fe16565b6003549063ffffffff61109016565b6001600160a01b03861660009081526001602052604081206003015491925090610b1590839063ffffffff61114016565b6001600160a01b038716600090815260016020526040902054909150610b4f90670de0b6b3a764000090610ac9908463ffffffff6110d916565b945050505b50506001600160a01b03909116600090815260016020819052604090912001540190565b60035481565b6008546001600160a01b031681565b600654336000908152600160205260409020600201544291610bb5919063ffffffff61109016565b10610bf457604051600160e51b62461bcd0281526004018080602001828103825260308152602001806114ed6030913960400191505060405180910390fd5b33600090815260016020526040812054610c0f919081610e71565b610c17610fed565b33600090815260016020819052604082208054918101805484835593905542600290910155600454909190610c52908263ffffffff61109016565b6004908155600954604080517fdbca1b8f00000000000000000000000000000000000000000000000000000000815233938101939093526024830185905260448301849052516001600160a01b039091169163dbca1b8f91606480830192600092919082900301818387803b158015610cca57600080fd5b505af1158015610cde573d6000803e3d6000fd5b5050604080513381526020810186905280820185905290517f5f808ed47938c2c6ffcf1784b8a3171a0e8cb25d277b291b26475b303473bbb09350908190036060019150a15050565b6000546001600160a01b03163314610d7357604051600160e51b62461bcd0281526004018080602001828103825260268152602001806114c76026913960400191505060405180910390fd5b6001600160a01b038116610dbb57604051600160e51b62461bcd02815260040180806020018281038252602881526020018061151d6028913960400191505060405180910390fd5b600080546040516001600160a01b03808516939216917f2da0f18c3d869cdc5baa95d5dfa6a6e8cb6db2bcd24c13c9410e1c686c9cb8ee91a3600080547fffffffffffffffffffffffff0000000000000000000000000000000000000000166001600160a01b0392909216919091179055565b60075481565b3360008181526001602052604081208054600290910154909290914391610e5a906109e7565b905090919293565b6000546001600160a01b031681565b60048054600954604080517f21ce7daf000000000000000000000000000000000000000000000000000000008152309481019490945251600093610ee093926001600160a01b0316916321ce7daf91602480820192602092909190829003018186803b158015610a5a57600080fd5b90506000610ef96005548361114090919063ffffffff16565b600583905560025490915015610f3457600254610f2c90610ad590610ac984670de0b6b3a764000063ffffffff6110d916565b600355610f67565b600854610f50906001600160a01b03168263ffffffff61118216565b600454610f63908263ffffffff61109016565b6004555b828015610f745750600085115b15610f9457600254610f8c908663ffffffff61109016565b600255610fe6565b8315610fe65760408051808201909152601d81527f436f6c645374616b696e673a207374616b65206e6f7420656e6f7567680000006020820152600254610fe291869063ffffffff61127316565b6002555b5050505050565b33600090815260016020526040812060039081015490546110139163ffffffff61114016565b336000908152600160205260408120549192509061104590670de0b6b3a764000090610ac9908563ffffffff6110d916565b336000908152600160208190526040909120015490915061106c908263ffffffff61109016565b33600090815260016020819052604090912090810191909155600380549101555050565b60006110d283836040518060400160405280601b81526020017f536166654d6174683a206164646974696f6e206f766572666c6f77000000000081525061130d565b9392505050565b60006110d283836040518060600160405280602181526020016114a66021913961136e565b60006110d283836040518060400160405280601a81526020017f536166654d6174683a206469766973696f6e206279207a65726f0000000000008152506113dc565b60006110d283836040518060400160405280601f81526020017f536166654d6174683a207375627472616374696f6e20756e646572666c6f7700815250611273565b30318111156111db5760408051600160e51b62461bcd02815260206004820152601d60248201527f416464726573733a20696e73756666696369656e742062616c616e6365000000604482015290519081900360640190fd5b6040516000906001600160a01b0384169083908381818185875af1925050503d8060008114611226576040519150601f19603f3d011682016040523d82523d6000602084013e61122b565b606091505b505090508061126e57604051600160e51b62461bcd02815260040180806020018281038252603a815260200180611445603a913960400191505060405180910390fd5b505050565b6000818484111561130557604051600160e51b62461bcd0281526004018080602001828103825283818151815260200191508051906020019080838360005b838110156112ca5781810151838201526020016112b2565b50505050905090810190601f1680156112f75780820380516001836020036101000a031916815260200191505b509250505060405180910390fd5b505050900390565b6000838301828582101561136557604051600160e51b62461bcd0281526020600482018181528351602484015283519092839260449091019190850190808383600083156112ca5781810151838201526020016112b2565b50949350505050565b60008361137d575060006110d2565b8383028385828161138a57fe5b0414839061136557604051600160e51b62461bcd0281526020600482018181528351602484015283519092839260449091019190850190808383600083156112ca5781810151838201526020016112b2565b6000818361142e57604051600160e51b62461bcd0281526020600482018181528351602484015283519092839260449091019190850190808383600083156112ca5781810151838201526020016112b2565b50600083858161143a57fe5b049594505050505056fe416464726573733a20756e61626c6520746f2073656e642076616c75652c20726563697069656e74206d61792068617665207265766572746564436f6c645374616b696e675375623a2064656c6179206c657373207468616e2032207965617273536166654d6174683a206d756c7469706c69636174696f6e206f766572666c6f775472656173757265723a2063616c6c6572206973206e6f742074686520747265617375726572436f6c645374616b696e675375623a206d696e696d756d207374616b696e672074696d65206e6f7420726561636865645472656173757265723a206e657720747265617375726572206973207a65726f2061646472657373a165627a7a72305820bc0565d0d760ed1835a85b6eb0fa610bf394a4ba0d9077265a75b9cdd8c595990029",
  "source": "pragma solidity ^0.5.8;\n\nimport \"./utils/SafeMath.sol\";\nimport \"./utils/Address.sol\";\nimport \"./interfaces/IColdStakingMain.sol\";\nimport \"./interfaces/IColdStakingSub.sol\";\nimport \"./utils/Treasurer.sol\";\n\ncontract ColdStakingSub is Treasurer, IColdStakingSub\n{\n    using SafeMath for uint;\n    using Address for address;\n    using Address for address payable;\n\n    struct Staker {\n        uint stake;\n        uint reward;        \n        uint lastClaim;\n        uint lastWeightedBlockReward;\n        uint voteWithdrawalDeadline;\n    }\n    \n    mapping(address => Staker) public staker;\n    \n    \n    uint public stakedAmount;\n    uint public weightedBlockReward;\n    uint public totalClaimedReward;\n    uint public lastTotalReward;\n \n    uint public claim_delay = 27 days;\n    uint public max_delay = 365 * 2 days; \n\n    address payable public treasuryAddress = 0x74682Fc32007aF0b6118F259cBe7bCCC21641600;\n    \n    IColdStakingMain public coldStakingMain;\n\n    constructor(address _coldStakingMain) public {\n        coldStakingMain = IColdStakingMain(_coldStakingMain);\n    }\n    \n    function() external payable {\n        start_staking();\n    }\n\n    function stake_update(uint _deposit,uint _withdraw, bool _sign) internal {\n\n        uint newTotalReward = coldStakingMain.subContractReward(address(this)).add(totalClaimedReward);\n        uint intervalReward = newTotalReward.sub(lastTotalReward);\n        \n        lastTotalReward = newTotalReward;\n\n        if (stakedAmount!=0) weightedBlockReward = weightedBlockReward.add(intervalReward.mul(1 ether).div(stakedAmount));\n        else {\n            treasuryAddress.sendValue(intervalReward);\n            totalClaimedReward = totalClaimedReward.add(intervalReward);\n        }\n\n        if(_sign && _deposit > 0) stakedAmount = stakedAmount.add(_deposit);\n        else if(_withdraw > 0) stakedAmount = stakedAmount.sub(_withdraw,\"ColdStaking: stake not enough\");\n\n    }\n\n    function start_staking() public payable {\n        \n        stake_update(msg.value,0,true);\n        reward_update(); \n        \n        staker[msg.sender].stake = staker[msg.sender].stake.add(msg.value); \n        staker[msg.sender].lastClaim = block.timestamp;\n        \n        coldStakingMain.stake.value(msg.value)();\n        emit Staking(msg.sender,msg.value,staker[msg.sender].stake,block.timestamp);\n    }\n\n    function reward_update() internal {\n        uint stakerIntervalWeightedBlockReward = weightedBlockReward.sub(staker[msg.sender].lastWeightedBlockReward);\n        uint _reward = staker[msg.sender].stake.mul(stakerIntervalWeightedBlockReward).div(1 ether);\n        \n        staker[msg.sender].reward = staker[msg.sender].reward.add(_reward);\n        staker[msg.sender].lastWeightedBlockReward = weightedBlockReward;\n    }\n\n    function withdraw_stake() public \n    {\n        require(staker[msg.sender].lastClaim.add(claim_delay) < block.timestamp,\"ColdStakingSub: minimum staking time not reached\");\n            \n        stake_update(0,staker[msg.sender].stake,false);\n        reward_update();\n        \n        uint _stake = staker[msg.sender].stake;\n        uint _reward = staker[msg.sender].reward;\n\n        staker[msg.sender].stake = 0;\n        staker[msg.sender].reward = 0;\n        staker[msg.sender].lastClaim = block.timestamp;\n\n        totalClaimedReward = totalClaimedReward.add(_reward); \n        coldStakingMain.withdrawAndClaim(msg.sender,_stake,_reward);\n        emit WithdrawStake(msg.sender,_stake,_reward);\n    }\n\n    function claim() public {\n        if(staker[msg.sender].lastClaim + claim_delay <= block.timestamp) {\n            stake_update(0,0,false);\n            reward_update();\n\n            uint _reward = staker[msg.sender].reward;\n            \n            staker[msg.sender].reward = 0;\n            staker[msg.sender].lastClaim = block.timestamp;\n\n            totalClaimedReward = totalClaimedReward.add(_reward);\n            coldStakingMain.claim(msg.sender,_reward);\n            emit Claim(msg.sender, _reward);\n        }\n    }\n\n    function staker_info() public view returns(uint256 weight, uint256 init, uint256 actual_block,uint256 _reward)\n    {\n        weight = staker[msg.sender].stake;\n        init = staker[msg.sender].lastClaim;\n        actual_block = block.number;\n        _reward = getReward(msg.sender);\n\n    }\n    \n    function report_abuse(address _addr) public\n    {\n        require(staker[_addr].stake > 0);\n        require(staker[_addr].lastClaim.add(max_delay) < block.timestamp,\"ColdStakingSub: delay less than 2 years\");\n        \n        stake_update(0,staker[_addr].stake,false);\n        reward_update();\n\n        uint _reward = staker[_addr].reward;\n        uint _stake = staker[_addr].stake; \n\n        staker[_addr].reward = 0;\n        staker[_addr].stake = 0;\n\n        coldStakingMain.withdraw(_addr,_stake);\n        coldStakingMain.claim(address(treasuryAddress),_reward);\n        emit InactiveStaker(_addr,_stake);\n    }\n\n    function getReward(address _addr) public view returns(uint _reward) {\n        uint newTotalReward = coldStakingMain.subContractReward(address(this)).add(totalClaimedReward);\n        uint intervalReward = newTotalReward - lastTotalReward;\n\n        if (stakedAmount!=0) {\n            uint _weightedBlockReward = weightedBlockReward.add(intervalReward.mul(1 ether).div(stakedAmount));\n            uint _stakerIntervalWeightedBlockReward = _weightedBlockReward.sub(staker[_addr].lastWeightedBlockReward);\n            _reward = staker[_addr].stake.mul(_stakerIntervalWeightedBlockReward).div(1 ether);\n        } \n        _reward = staker[_addr].reward + _reward;\n    }\n    \n    function getLastClaim(address _addr) public view returns(uint) {\n        return staker[_addr].lastClaim;\n    }\n\n    function getStake(address _addr) public view returns(uint) {\n        return staker[_addr].stake;\n    }\n}\n",
  "sourcePath": "/home/faycal/Desktop/projects/callisto-contracts/contracts/ColdStakingSub.sol",
  "compiler": {
    "name": "solc",
    "version": "0.5.8+commit.23d335f2.Emscripten.clang"
  },
  "schemaVersion": "3.0.22",
  "updatedAt": "2020-02-23T11:15:37.517Z",
  "devdoc": {
    "methods": {}
  },
  "userdoc": {
    "methods": {}
  }
}