{
  "contractName": "TreasuryGovernance",
  "abi": [
    {
      "constant": true,
      "inputs": [],
      "name": "last_proposal",
      "outputs": [
        {
          "name": "",
          "type": "uint256"
        }
      ],
      "payable": false,
      "stateMutability": "view",
      "type": "function"
    },
    {
      "constant": true,
      "inputs": [
        {
          "name": "",
          "type": "bytes32"
        }
      ],
      "name": "proposals",
      "outputs": [
        {
          "name": "name",
          "type": "string"
        },
        {
          "name": "URL",
          "type": "string"
        },
        {
          "name": "hash",
          "type": "bytes32"
        },
        {
          "name": "start_epoch",
          "type": "uint256"
        },
        {
          "name": "end_epoch",
          "type": "uint256"
        },
        {
          "name": "payment_address",
          "type": "address"
        },
        {
          "name": "payment_amount",
          "type": "uint256"
        },
        {
          "name": "last_funded_epoch",
          "type": "uint256"
        },
        {
          "name": "votes_for",
          "type": "uint256"
        },
        {
          "name": "votes_against",
          "type": "uint256"
        },
        {
          "name": "votes_abstain",
          "type": "uint256"
        },
        {
          "name": "status",
          "type": "uint256"
        }
      ],
      "payable": false,
      "stateMutability": "view",
      "type": "function"
    },
    {
      "constant": true,
      "inputs": [],
      "name": "cold_staking_contract",
      "outputs": [
        {
          "name": "",
          "type": "address"
        }
      ],
      "payable": false,
      "stateMutability": "view",
      "type": "function"
    },
    {
      "constant": true,
      "inputs": [],
      "name": "epoch_length",
      "outputs": [
        {
          "name": "",
          "type": "uint256"
        }
      ],
      "payable": false,
      "stateMutability": "view",
      "type": "function"
    },
    {
      "constant": true,
      "inputs": [],
      "name": "proposal_threshold",
      "outputs": [
        {
          "name": "",
          "type": "uint256"
        }
      ],
      "payable": false,
      "stateMutability": "view",
      "type": "function"
    },
    {
      "constant": true,
      "inputs": [],
      "name": "start_timestamp",
      "outputs": [
        {
          "name": "",
          "type": "uint256"
        }
      ],
      "payable": false,
      "stateMutability": "view",
      "type": "function"
    },
    {
      "constant": true,
      "inputs": [],
      "name": "voting_threshold",
      "outputs": [
        {
          "name": "",
          "type": "uint256"
        }
      ],
      "payable": false,
      "stateMutability": "view",
      "type": "function"
    },
    {
      "constant": true,
      "inputs": [
        {
          "name": "",
          "type": "bytes32"
        },
        {
          "name": "",
          "type": "address"
        }
      ],
      "name": "votes",
      "outputs": [
        {
          "name": "vote_code",
          "type": "uint256"
        },
        {
          "name": "weight",
          "type": "uint256"
        }
      ],
      "payable": false,
      "stateMutability": "view",
      "type": "function"
    },
    {
      "constant": true,
      "inputs": [
        {
          "name": "",
          "type": "address"
        }
      ],
      "name": "voting_weight",
      "outputs": [
        {
          "name": "",
          "type": "uint256"
        }
      ],
      "payable": false,
      "stateMutability": "view",
      "type": "function"
    },
    {
      "constant": true,
      "inputs": [
        {
          "name": "",
          "type": "uint256"
        }
      ],
      "name": "proposal_names",
      "outputs": [
        {
          "name": "",
          "type": "bytes32"
        }
      ],
      "payable": false,
      "stateMutability": "view",
      "type": "function"
    },
    {
      "constant": true,
      "inputs": [],
      "name": "total_voting_weight",
      "outputs": [
        {
          "name": "",
          "type": "uint256"
        }
      ],
      "payable": false,
      "stateMutability": "view",
      "type": "function"
    },
    {
      "constant": true,
      "inputs": [],
      "name": "treasurer",
      "outputs": [
        {
          "name": "",
          "type": "address"
        }
      ],
      "payable": false,
      "stateMutability": "view",
      "type": "function"
    },
    {
      "constant": false,
      "inputs": [
        {
          "name": "_cold_staking_contract",
          "type": "address"
        }
      ],
      "name": "setColdStakingContract",
      "outputs": [],
      "payable": false,
      "stateMutability": "nonpayable",
      "type": "function"
    },
    {
      "constant": false,
      "inputs": [],
      "name": "become_voter",
      "outputs": [],
      "payable": false,
      "stateMutability": "nonpayable",
      "type": "function"
    },
    {
      "constant": false,
      "inputs": [],
      "name": "resign_voter",
      "outputs": [],
      "payable": false,
      "stateMutability": "nonpayable",
      "type": "function"
    },
    {
      "constant": false,
      "inputs": [
        {
          "name": "_who",
          "type": "address"
        },
        {
          "name": "_new_weight",
          "type": "uint256"
        }
      ],
      "name": "update_voter",
      "outputs": [],
      "payable": false,
      "stateMutability": "nonpayable",
      "type": "function"
    },
    {
      "constant": true,
      "inputs": [],
      "name": "get_current_epoch",
      "outputs": [
        {
          "name": "",
          "type": "uint256"
        }
      ],
      "payable": false,
      "stateMutability": "view",
      "type": "function"
    },
    {
      "constant": false,
      "inputs": [
        {
          "name": "_name",
          "type": "string"
        },
        {
          "name": "_url",
          "type": "string"
        },
        {
          "name": "_hash",
          "type": "bytes32"
        },
        {
          "name": "_start",
          "type": "uint256"
        },
        {
          "name": "_end",
          "type": "uint256"
        },
        {
          "name": "_destination",
          "type": "address"
        },
        {
          "name": "_funding",
          "type": "uint256"
        }
      ],
      "name": "submit_proposal",
      "outputs": [],
      "payable": true,
      "stateMutability": "payable",
      "type": "function"
    },
    {
      "constant": true,
      "inputs": [
        {
          "name": "_name",
          "type": "string"
        }
      ],
      "name": "is_votable_proposal",
      "outputs": [
        {
          "name": "",
          "type": "bool"
        }
      ],
      "payable": false,
      "stateMutability": "view",
      "type": "function"
    },
    {
      "constant": false,
      "inputs": [
        {
          "name": "_proposal_name",
          "type": "string"
        },
        {
          "name": "_vote_code",
          "type": "uint256"
        }
      ],
      "name": "cast_vote",
      "outputs": [],
      "payable": false,
      "stateMutability": "nonpayable",
      "type": "function"
    },
    {
      "constant": false,
      "inputs": [
        {
          "name": "_name",
          "type": "string"
        }
      ],
      "name": "evaluate_proposal",
      "outputs": [],
      "payable": false,
      "stateMutability": "nonpayable",
      "type": "function"
    },
    {
      "constant": false,
      "inputs": [
        {
          "name": "_proposal_name",
          "type": "string"
        }
      ],
      "name": "request_funding",
      "outputs": [],
      "payable": false,
      "stateMutability": "nonpayable",
      "type": "function"
    },
    {
      "constant": false,
      "inputs": [
        {
          "name": "_proposal_name",
          "type": "string"
        }
      ],
      "name": "reevaluate_multiepoch_proposal",
      "outputs": [],
      "payable": false,
      "stateMutability": "nonpayable",
      "type": "function"
    },
    {
      "constant": false,
      "inputs": [
        {
          "name": "_proposal_name",
          "type": "string"
        },
        {
          "name": "_voter",
          "type": "address"
        }
      ],
      "name": "reevaluate_vote_record",
      "outputs": [],
      "payable": false,
      "stateMutability": "nonpayable",
      "type": "function"
    },
    {
      "constant": false,
      "inputs": [
        {
          "name": "_name",
          "type": "string"
        }
      ],
      "name": "withdraw_proposal",
      "outputs": [],
      "payable": false,
      "stateMutability": "nonpayable",
      "type": "function"
    },
    {
      "constant": true,
      "inputs": [
        {
          "name": "_who",
          "type": "address"
        }
      ],
      "name": "is_voter",
      "outputs": [
        {
          "name": "",
          "type": "bool"
        }
      ],
      "payable": false,
      "stateMutability": "view",
      "type": "function"
    },
    {
      "constant": false,
      "inputs": [
        {
          "name": "_new_staking_contract",
          "type": "address"
        }
      ],
      "name": "set_staking_contract",
      "outputs": [],
      "payable": false,
      "stateMutability": "nonpayable",
      "type": "function"
    },
    {
      "constant": false,
      "inputs": [
        {
          "name": "_epoch_length",
          "type": "uint256"
        }
      ],
      "name": "set_epoch_length",
      "outputs": [],
      "payable": false,
      "stateMutability": "nonpayable",
      "type": "function"
    },
    {
      "constant": false,
      "inputs": [
        {
          "name": "_threshold",
          "type": "uint256"
        }
      ],
      "name": "set_proposal_threshold",
      "outputs": [],
      "payable": false,
      "stateMutability": "nonpayable",
      "type": "function"
    },
    {
      "constant": false,
      "inputs": [
        {
          "name": "_threshold",
          "type": "uint256"
        }
      ],
      "name": "set_voting_threshold",
      "outputs": [],
      "payable": false,
      "stateMutability": "nonpayable",
      "type": "function"
    }
  ],
  "bytecode": "0x6080604052622398806001554260025560006003819055681b1ae4d6e2ef5000006004556032600555600a55600b80546001600160a01b0319163317905534801561004957600080fd5b50611b76806100596000396000f3fe6080604052600436106101cd5760003560e01c80638c244317116100f7578063ddb7f0ee11610095578063ef1aee0711610064578063ef1aee0714610c2c578063fb407e1c14610c41578063fda49eb414610c56578063fe397c2e14610c6b576101cd565b8063ddb7f0ee146109e7578063dee293ac14610a9a578063e4285dec14610ac4578063e481ac9314610b77576101cd565b8063aed5e18e116100d1578063aed5e18e14610831578063bfe677dd1461085b578063c547a54014610870578063c76efb18146109bd576101cd565b80638c244317146106ee5780639386775a146107ac57806393be0d18146107fe576101cd565b80634231bfe11161016f57806363ebef761161013e57806363ebef76146105fc578063837a9bc714610611578063858ddae01461062657806387dd6608146106d9576101cd565b80634231bfe1146105755780634c51f5481461058a578063573705a6146105b45780635eb58564146105e7576101cd565b806335c84443116101ab57806335c844431461039157806336b14f7a1461044457806336d42d9a146104755780633e5f60e61461053c576101cd565b80630cf56f0e146101d25780631ca7c043146101f957806332ed5b121461022e575b600080fd5b3480156101de57600080fd5b506101e7610c9e565b60408051918252519081900360200190f35b34801561020557600080fd5b5061022c6004803603602081101561021c57600080fd5b50356001600160a01b0316610ca4565b005b34801561023a57600080fd5b506102586004803603602081101561025157600080fd5b5035610ce0565b6040518080602001806020018d81526020018c81526020018b81526020018a6001600160a01b03166001600160a01b0316815260200189815260200188815260200187815260200186815260200185815260200184815260200183810383528f818151815260200191508051906020019080838360005b838110156102e75781810151838201526020016102cf565b50505050905090810190601f1680156103145780820380516001836020036101000a031916815260200191505b5083810382528e818151815260200191508051906020019080838360005b8381101561034a578181015183820152602001610332565b50505050905090810190601f1680156103775780820380516001836020036101000a031916815260200191505b509e50505050505050505050505050505060405180910390f35b34801561039d57600080fd5b5061022c600480360360208110156103b457600080fd5b8101906020810181356401000000008111156103cf57600080fd5b8201836020820111156103e157600080fd5b8035906020019184600183028401116401000000008311171561040357600080fd5b91908080601f016020809104026020016040519081016040528093929190818152602001838380828437600092019190915250929550610e88945050505050565b34801561045057600080fd5b50610459610ed9565b604080516001600160a01b039092168252519081900360200190f35b34801561048157600080fd5b506105286004803603602081101561049857600080fd5b8101906020810181356401000000008111156104b357600080fd5b8201836020820111156104c557600080fd5b803590602001918460018302840111640100000000831117156104e757600080fd5b91908080601f016020809104026020016040519081016040528093929190818152602001838380828437600092019190915250929550610ee8945050505050565b604080519115158252519081900360200190f35b34801561054857600080fd5b5061022c6004803603604081101561055f57600080fd5b506001600160a01b038135169060200135610f2f565b34801561058157600080fd5b506101e7610fd3565b34801561059657600080fd5b5061022c600480360360208110156105ad57600080fd5b5035610fd9565b3480156105c057600080fd5b50610528600480360360208110156105d757600080fd5b50356001600160a01b0316610ff2565b3480156105f357600080fd5b506101e761100f565b34801561060857600080fd5b506101e7611015565b34801561061d57600080fd5b506101e761101b565b34801561063257600080fd5b5061022c6004803603602081101561064957600080fd5b81019060208101813564010000000081111561066457600080fd5b82018360208201111561067657600080fd5b8035906020019184600183028401116401000000008311171561069857600080fd5b91908080601f016020809104026020016040519081016040528093929190818152602001838380828437600092019190915250929550611033945050505050565b3480156106e557600080fd5b506101e761106c565b3480156106fa57600080fd5b5061022c6004803603604081101561071157600080fd5b81019060208101813564010000000081111561072c57600080fd5b82018360208201111561073e57600080fd5b8035906020019184600183028401116401000000008311171561076057600080fd5b91908080601f016020809104026020016040519081016040528093929190818152602001838380828437600092019190915250929550505090356001600160a01b031691506110729050565b3480156107b857600080fd5b506107e5600480360360408110156107cf57600080fd5b50803590602001356001600160a01b03166111c9565b6040805192835260208301919091528051918290030190f35b34801561080a57600080fd5b506101e76004803603602081101561082157600080fd5b50356001600160a01b03166111ed565b34801561083d57600080fd5b5061022c6004803603602081101561085457600080fd5b50356111ff565b34801561086757600080fd5b5061022c611218565b61022c600480360360e081101561088657600080fd5b8101906020810181356401000000008111156108a157600080fd5b8201836020820111156108b357600080fd5b803590602001918460018302840111640100000000831117156108d557600080fd5b91908080601f016020809104026020016040519081016040528093929190818152602001838380828437600092019190915250929594936020810193503591505064010000000081111561092857600080fd5b82018360208201111561093a57600080fd5b8035906020019184600183028401116401000000008311171561095c57600080fd5b91908080601f016020809104026020016040519081016040528093929190818152602001838380828437600092019190915250929550508235935050506020810135906040810135906001600160a01b0360608201351690608001356112e1565b3480156109c957600080fd5b506101e7600480360360208110156109e057600080fd5b5035611429565b3480156109f357600080fd5b5061022c60048036036020811015610a0a57600080fd5b810190602081018135640100000000811115610a2557600080fd5b820183602082011115610a3757600080fd5b80359060200191846001830284011164010000000083111715610a5957600080fd5b91908080601f01602080910402602001604051908101604052809392919081815260200183838082843760009201919091525092955061143b945050505050565b348015610aa657600080fd5b5061022c60048036036020811015610abd57600080fd5b503561155a565b348015610ad057600080fd5b5061022c60048036036020811015610ae757600080fd5b810190602081018135640100000000811115610b0257600080fd5b820183602082011115610b1457600080fd5b80359060200191846001830284011164010000000083111715610b3657600080fd5b91908080601f016020809104026020016040519081016040528093929190818152602001838380828437600092019190915250929550611573945050505050565b348015610b8357600080fd5b5061022c60048036036040811015610b9a57600080fd5b810190602081018135640100000000811115610bb557600080fd5b820183602082011115610bc757600080fd5b80359060200191846001830284011164010000000083111715610be957600080fd5b91908080601f01602080910402602001604051908101604052809392919081815260200183838082843760009201919091525092955050913592506115c5915050565b348015610c3857600080fd5b506101e76117c1565b348015610c4d57600080fd5b5061022c6117c7565b348015610c6257600080fd5b506104596117fe565b348015610c7757600080fd5b5061022c60048036036020811015610c8e57600080fd5b50356001600160a01b031661180d565b600a5481565b6000805473ffffffffffffffffffffffffffffffffffffffff19166001600160a01b0383811691909117909155600b54163314610cdd57fe5b50565b60076020908152600091825260409182902080548351601f60027fffffffffffffffffffffffffffffffffffffffffffffffffffffffffffffffff6101006001861615020190931692909204918201849004840281018401909452808452909291839190830182828015610d955780601f10610d6a57610100808354040283529160200191610d95565b820191906000526020600020905b815481529060010190602001808311610d7857829003601f168201915b505050505090806001018054600181600116156101000203166002900480601f016020809104026020016040519081016040528092919081815260200182805460018160011615610100020316600290048015610e335780601f10610e0857610100808354040283529160200191610e33565b820191906000526020600020905b815481529060010190602001808311610e1657829003601f168201915b50505060028401546003850154600486015460058701546006880154600789015460088a015460098b0154600a8c0154600b909c01549a9b979a9699509497506001600160a01b03909316959194909391908c565b610e9133610ff2565b610e9a57600080fd5b80516020820120610ea961101b565b600082815260076020819052604090912001541415610ed5576000818152600760205260408120600b01555b5050565b6000546001600160a01b031681565b80516020820120600090610efa61101b565b600082815260076020526040902060030154148015610f2857506000818152600760205260409020600b0154155b9392505050565b6000546001600160a01b03163314610f4657600080fd5b6001600160a01b038216600090815260066020526040902054811015610f91576001600160a01b03821660009081526006602052604090205460038054918390039091039055610fb7565b6001600160a01b0382166000908152600660205260409020546003805491830390910190555b6001600160a01b03909116600090815260066020526040902055565b60015481565b6004819055600b546001600160a01b03163314610cdd57fe5b6001600160a01b0316600090815260066020526040902054151590565b60045481565b60025481565b600060015460025442038161102c57fe5b0490505b90565b8051602080830191909120600081815260079092526040909120600b01546110635761105e8261143b565b610ed5565b610ed58261183c565b60055481565b61107b33610ff2565b61108457600080fd5b8151602080840191909120600081815260079092526040909120600b0154156110ac57600080fd5b60008181526008602090815260408083206001600160a01b03861684529091529020546110d9848461193d565b80611114576001600160a01b03831660009081526006602090815260408083205485845260079092529091206008018054909101905561118e565b8060011415611153576001600160a01b03831660009081526006602090815260408083205485845260079092529091206009018054909101905561118e565b806002141561118e576001600160a01b0383166000908152600660209081526040808320548584526007909252909120600a01805490910190555b6001600160a01b0392909216600081815260066020908152604080832054948352600882528083209383529290522060018101919091555550565b60086020908152600092835260408084209091529082529020805460019091015482565b60066020526000908152604090205481565b6005819055600b546001600160a01b03163314610cdd57fe5b336000908152600660205260409020541561123257600080fd5b60008054604080517f7a76646000000000000000000000000000000000000000000000000000000000815233600482015290516001600160a01b0390921691637a76646091602480820192602092909190829003018186803b15801561129757600080fd5b505afa1580156112ab573d6000803e3d6000fd5b505050506040513d60208110156112c157600080fd5b505133600090815260066020526040902081905560038054909101905550565b865160208801206001600160a01b0383166112fb57600080fd5b6113056000611030565b6000828152600760205260409020600501546001600160a01b0390811691161461132e57600080fd5b60045434101561133d57600080fd5b8461134661101b565b1061135057600080fd5b84841161135c57600080fd5b6000818152600760209081526040909120895161137b928b0190611ab2565b50600081815260076020908152604090912088516113a1926001909201918a0190611ab2565b50600081815260076020908152604080832060028101999099556003890197909755600488019590955560058701805473ffffffffffffffffffffffffffffffffffffffff19166001600160a01b0395909516949094179093556006860191909155600b909401819055600a8054825260099092529190912091909155805460010190555050565b60096020526000908152604090205481565b8051602082012061144a61101b565b6000828152600760205260409020600301541061146657600080fd5b61146e61101b565b600082815260076020526040902060040154101561148b57600080fd5b6000818152600760205260409020600b0154156114a757600080fd5b600081815260076020526040902060088101546009820154600a90920154600554600354919093019091019160649102048110156114fb575060009081526007602052604090206003600b90910155610cdd565b60008281526007602052604090206009810154600890910154111561153e5760008281526007602052604090206001600b909101556115398361183c565b611555565b60008281526007602052604090206002600b909101555b505050565b6001819055600b546001600160a01b03163314610cdd57fe5b8051602082012061158333611030565b6000828152600760205260409020600501546001600160a01b039081169116146115ac57600080fd5b60009081526007602052604090206003600b9091015550565b6115ce33610ff2565b6115d757600080fd5b815160208301206115e661101b565b6000828152600760205260409020600301541480611635575061160761101b565b60008281526007602052604090206003015410801561163557506000818152600760205260409020600b0154155b61163e57600080fd5b60008181526008602090815260408083203384529091529020600101541561166a5761166a833361193d565b8161169c5733600090815260066020908152604080832054848452600790925290912060080180549091019055611704565b81600114156116d25733600090815260066020908152604080832054848452600790925290912060090180549091019055611704565b81600214156101cd57336000908152600660209081526040808320548484526007909252909120600a01805490910190555b336000818152600660209081526040808320548584526008835281842085855290925282206001810191909155849055546001600160a01b031690630c03ed529061174d61101b565b60015402600254016040518363ffffffff1660e01b815260040180836001600160a01b03166001600160a01b0316815260200182815260200192505050600060405180830381600087803b1580156117a457600080fd5b505af11580156117b8573d6000803e3d6000fd5b50505050505050565b60035481565b336000908152600660205260409020546117e057600080fd5b33600090815260066020526040812080546003805491909103905555565b600b546001600160a01b031681565b6000805473ffffffffffffffffffffffffffffffffffffffff19166001600160a01b0392909216919091179055565b8051602080830191909120600081815260079092526040909120600b015460011461186357fe5b61186b61101b565b600082815260076020526040902060040154111561188557fe5b61188d61101b565b60008281526007602081905260409091200154106118a757fe5b6000818152600760208190526040822001546118c161101b565b600084815260076020526040808220600581015460069091015491519490930394506001600160a01b039092169291840280156108fc02929091818181858888f19350505050158015611918573d6000803e3d6000fd5b5061192161101b565b6000928352600760208190526040909320909201919091555050565b815160208084019190912060008181526008835260408082206001600160a01b0386168352909352919091206001015461197357fe5b60008181526008602090815260408083206001600160a01b03861684529091529020546119d95760008181526008602081815260408084206001600160a01b03871685528252808420600101548585526007909252909220018054919091039055611a82565b60008181526008602090815260408083206001600160a01b038616845290915290205460011415611a455760008181526008602090815260408083206001600160a01b038616845282528083206001015484845260079092529091206009018054919091039055611a82565b60008181526008602090815260408083206001600160a01b03861684528252808320600101548484526007909252909120600a0180549190910390555b60009081526008602090815260408083206001600160a01b03949094168352929052908120600181018290555550565b828054600181600116156101000203166002900490600052602060002090601f016020900481019282601f10611af357805160ff1916838001178555611b20565b82800160010185558215611b20579182015b82811115611b20578251825591602001919060010190611b05565b50611b2c929150611b30565b5090565b61103091905b80821115611b2c5760008155600101611b3656fea165627a7a72305820607c073502ee2215373f2501cbd35e1be348bfec13ecb2e4895043b1b6a983d40029",
  "source": "pragma solidity ^0.5.8;\n\nimport \"./utils/SafeMath.sol\";\nimport \"./interfaces/IColdStakingVoting.sol\";\nimport \"./utils/Address.sol\";\n\ncontract TreasuryGovernance {\n    \n    // TODO: Update calculations with SafeMath functions.\n\n    using SafeMath for uint;\n    using Address for address;\n    using Address for address payable;\n    \n    struct Proposal\n    {\n        // Based on IOHK Treasury proposal system.\n        string  name;\n        string  URL;\n        bytes32 hash;        // Hash of the proposal description text,\n                             // serves for proposal integrity verification.\n        uint    start_epoch; // Number of the epoch when proposal voting begins.\n        uint    end_epoch;   // Number of the epoch when proposal funding ends.\n        // NOTE: If a proposal is intended to be a one-time payment then \n        //       it must have `start_epoch` = `i` and `end_epoch` = `i + 1` because\n        //       the proposal will be paid in the next epoch after the voting epoch ends.\n        \n        address payable payment_address;\n        uint    payment_amount; // Amount of payment per epoch.\n        // NOTE: If a proposal is intended to be paid in multiple epochs then\n        //       it will reveive (`payment_amount` * epochs count) funds.\n        uint    last_funded_epoch; // Number of the epoch in which the proposal was last funded.\n        \n        uint votes_for;\n        uint votes_against;\n        uint votes_abstain;\n        \n        uint status;\n        \n        // STATUS:\n        // 0 - voting\n        // 1 - accepted/ awaiting payment\n        // 2 - declined\n        // 3 - withdrawn\n        \n        // Collateral tx id is not necessary.\n        // Proposal sublission tx requires `proposal_threshold` to be paid.\n    }\n    \n    struct Vote\n    {\n        uint    vote_code; // 0 - for, 1 - against, 2 - abstain\n        uint    weight;\n    }\n    \n    // ------------------------------------------------------------ //\n    \n    IColdStakingVoting public cold_staking_contract; // Staking contract address and ABI.\n\n    function setColdStakingContract(address _cold_staking_contract) public {\n      cold_staking_contract = IColdStakingVoting(_cold_staking_contract);\n    }\n\n    \n    uint public epoch_length        = 27 days; // Voting epoch length.\n    uint public start_timestamp     = now;\n    \n    uint public total_voting_weight = 0; // This variable preserves the total amount of staked funds which participate in voting.\n    uint public proposal_threshold  = 500 ether; // The amount of funds that will be held by voting contract during the proposal consideration/voting.\n    uint public voting_threshold    = 50; // Percentage of votes which is required to consider that there are enough votes for the proposal. \n                                          // If a proposal was not voted enough then it will be rejected automatically.\n    \n    mapping(address => uint)     public voting_weight; // Each voters weight. Calculated and updated on each Cold Staked deposit change.\n    mapping(bytes32 => Proposal) public proposals; // Use `bytes32` keccak256 hash of proposal name to identify a proposal entity.\n    mapping(bytes32 => mapping(address => Vote))     public votes;\n    mapping(uint    => bytes32)  public proposal_names;\n    \n    uint public last_proposal = 0;\n\n\n    // Cold Staker can become a voter by executing this funcion.\n    // Voting contract must read the weight of the staker\n    // and update the total voting weight.\n    function become_voter() public\n    {\n        require(voting_weight[msg.sender] == 0);\n        uint _amount = cold_staking_contract.getStake(msg.sender);\n        voting_weight[msg.sender] = _amount;\n        total_voting_weight += _amount;\n    }\n    \n    // Voter can resign from his voting rights.\n    // In this case, his voting weight will be subtracted from total voting weight.\n    // This person can become voter again by calling the `become_voter` function.\n    function resign_voter() public\n    {\n        require(voting_weight[msg.sender] != 0);\n        \n        total_voting_weight -= voting_weight[msg.sender];\n        voting_weight[msg.sender] = 0;\n    }\n    \n    \n    // Staking Contract MUST call this function on each staking deposit update (on withdrawals and deposits).\n    function update_voter(address _who, uint _new_weight) public only_staking_contract()\n    {\n        // If the voting weight of a given address decreases\n        // subtract the delta from `total_voting_weight`.\n        if(voting_weight[_who] > _new_weight)\n        {\n            total_voting_weight -= (voting_weight[_who] - _new_weight);\n        }\n        \n        // Otherwise the weight did not change or increases\n        // we need to increase the total_voting_weight by delta.\n        else\n        {\n            total_voting_weight += (_new_weight - voting_weight[_who]);\n        }\n        voting_weight[_who] = _new_weight;\n    }\n    \n    // Returns the id of current Treasury Epoch.\n    function get_current_epoch() public view returns (uint)\n    {\n        return ((block.timestamp - start_timestamp) / epoch_length);\n    }\n    \n    function submit_proposal(string memory _name, string memory _url, bytes32 _hash, uint _start, uint _end, address payable _destination, uint _funding) public payable\n    {   \n        bytes32 name_hash = keccak256(bytes(_name));\n\n        require(_destination != address(0x0)); // Address of a newly submitted proposal must not be 0x0.\n        require(proposals[name_hash].payment_address == address(0x0).toPayable()); // Check whether a proposal exists (assuming that a proposal with address 0x0 does not exist).\n        require(msg.value >= proposal_threshold);\n        require(get_current_epoch() < _start);\n        require(_end > _start);\n        \n        proposals[name_hash].name            = _name;\n        proposals[name_hash].URL             = _url;\n        proposals[name_hash].hash            = _hash;\n        proposals[name_hash].start_epoch     = _start;\n        proposals[name_hash].end_epoch       = _end;\n        proposals[name_hash].payment_address = _destination;\n        proposals[name_hash].payment_amount  = _funding;\n        proposals[name_hash].status          = 0;\n        proposal_names[last_proposal]        = name_hash;\n        last_proposal++;\n    }\n    \n    function is_votable_proposal(string memory _name) public view returns (bool)\n    {\n        bytes32 name_hash = keccak256(bytes(_name));\n        return (proposals[name_hash].start_epoch == get_current_epoch() && proposals[name_hash].status == 0);\n    }\n    \n    function cast_vote(string memory _proposal_name, uint _vote_code) public only_voter\n    {\n        // Vote encodings:\n        // 0 - for\n        // 1 - against\n        // 2 - abstain\n        \n        // Check whether proposal is submitted for first voting\n        // OR a multiepoch proposal is undergoing a re-evaluation.\n        bytes32 proposal_name_hash = keccak256(bytes(_proposal_name));\n        require(proposals[proposal_name_hash].start_epoch == get_current_epoch() ||\n        (proposals[proposal_name_hash].start_epoch < get_current_epoch() && proposals[proposal_name_hash].status == 0) );\n        \n        // Check whether msg.sender has already voted on this proposal\n        // clear his vote first if so.\n        if(votes[proposal_name_hash][msg.sender].weight != 0)\n        {\n            clear_vote(_proposal_name, msg.sender);\n        }\n        \n        if(_vote_code == 0)\n        {\n            proposals[proposal_name_hash].votes_for += voting_weight[msg.sender];\n        }\n        else if (_vote_code == 1)\n        {\n            proposals[proposal_name_hash].votes_against += voting_weight[msg.sender];\n        }\n        else if (_vote_code == 2)\n        {\n            proposals[proposal_name_hash].votes_abstain += voting_weight[msg.sender];\n        }\n        else\n        {\n            revert();\n        }\n        \n        // Record voter, code and weight to prevent multiple votings from single address.\n        votes[proposal_name_hash][msg.sender].weight    = voting_weight[msg.sender];\n        votes[proposal_name_hash][msg.sender].vote_code = _vote_code;\n        cold_staking_contract.vote_casted( msg.sender, (start_timestamp + epoch_length * get_current_epoch()) );\n    }\n    \n    function evaluate_proposal(string  memory _name) public\n    {\n        bytes32 name_hash = keccak256(bytes(_name));\n        require(proposals[name_hash].start_epoch < get_current_epoch());\n        require(proposals[name_hash].end_epoch >= get_current_epoch());\n        require(proposals[name_hash].status == 0);\n        \n        uint _total_votes = proposals[name_hash].votes_abstain + proposals[name_hash].votes_against + proposals[name_hash].votes_for;\n        if ( _total_votes < ((total_voting_weight * voting_threshold)/100) )\n        {\n            // Proposal was not voted enough.\n            proposals[name_hash].status = 3;\n            return;\n        }\n        \n        if (proposals[name_hash].votes_for > proposals[name_hash].votes_against)\n        {\n            // Proposal is accepted if \"FOR\" votes weight > \"AGAINST\"\n            proposals[name_hash].status = 1;\n            \n            // If the proposal is accepted then send the first payment immediately.\n            fund_proposal(_name);\n        }\n        else\n        { \n            // Assign `rejected` status.\n            proposals[name_hash].status = 2;\n        }\n    }\n    \n    \n   function fund_proposal(string  memory _name) internal\n   {\n       // Checking conditions first.\n       // Proposal must be `accepted` and it must not be expired.\n       bytes32 name_hash = keccak256(bytes(_name));\n\n       assert(proposals[name_hash].status == 1);\n       assert(proposals[name_hash].end_epoch <= get_current_epoch());\n       assert(proposals[name_hash].last_funded_epoch < get_current_epoch());\n       \n       uint epoch_delta = get_current_epoch() - proposals[name_hash].last_funded_epoch;\n       \n       proposals[name_hash].payment_address.transfer( (proposals[name_hash].payment_amount * epoch_delta) ); // Send payment * unpaid epochs count.\n       proposals[name_hash].last_funded_epoch = get_current_epoch(); // Modify the last payment epoch.\n   }\n   \n   function clear_vote(string  memory _proposal_name, address _voter) internal\n   {\n       bytes32 proposal_name_hash = keccak256(bytes(_proposal_name));\n       // IMPORTANT: Voters weight could change since the moment of proposal voting.\n       // `votes[proposal_name_hash][_voter].weight` is not necessarily equal to `voting_weight[_voter]`\n       \n       // Check if _voter has a record of _proposal voting.\n       assert(votes[proposal_name_hash][_voter].weight != 0);\n       \n       if(votes[proposal_name_hash][_voter].vote_code == 0)\n       {\n           // If _voter casted a vote FOR then reduce the weight of FOR votes.\n           proposals[proposal_name_hash].votes_for -= votes[proposal_name_hash][_voter].weight;\n       }\n       else if(votes[proposal_name_hash][_voter].vote_code == 1)\n       {\n           // If _voter casted a vote AGAINST then reduce the weight of AGAINST votes.\n           proposals[proposal_name_hash].votes_against -= votes[proposal_name_hash][_voter].weight;\n       }\n       else\n       {\n           // Assume that _voter casted ABSTAIN vote.\n           proposals[proposal_name_hash].votes_abstain -= votes[proposal_name_hash][_voter].weight;\n       }\n       \n       // Zero out _voter's weight and voting record entry.\n       votes[proposal_name_hash][_voter].weight    = 0;\n       votes[proposal_name_hash][_voter].vote_code = 0;\n   }\n   \n   // Anyone can request a funding for accepted proposal.\n   function request_funding(string memory _proposal_name) public\n   {\n       bytes32 proposal_name_hash = keccak256(bytes(_proposal_name));\n       if (proposals[proposal_name_hash].status == 0)\n       {\n           // If proposal has `votable` status then it must be re-evaluated. This may happen in case of multiepoch proposal.\n           evaluate_proposal(_proposal_name); // Automatically funding proposal at the end of evaluation if proposal is `accepted`.\n       }\n       else\n       {\n           fund_proposal(_proposal_name); // Pay proposal if it does not require re-evaluation.\n       }\n   }\n   \n   function reevaluate_multiepoch_proposal(string memory _proposal_name) public only_voter\n   {\n       // Each voter can request a re-evaluation of already-accepted proposal if the proposal was already paid at current epoch.\n       // Allows to re-evaluate each voting record manually.\n       bytes32 proposal_name_hash = keccak256(bytes(_proposal_name));\n       if (proposals[proposal_name_hash].last_funded_epoch == get_current_epoch())\n       {\n           proposals[proposal_name_hash].status = 0; // Assign `votable` status. Preserves voting records from the previous voting session.\n       }\n   }\n    \n    // Manually re-evaluates specified voting record.\n    // This may be necessary to re-evaluate cold staker's weight\n    // if it changes after the last vote record of the cold staker.\n    function reevaluate_vote_record(string memory _proposal_name, address _voter) public only_voter\n    {\n        bytes32 proposal_name_hash = keccak256(bytes(_proposal_name));\n        /*uint _delta;\n        if(votes[proposal_name_hash][_voter].weight > voting_weight[_voter])\n        {\n            // Decrease the corresponding amount of vote records of the proposal if voter's weight decreases.\n            _delta = votes[proposal_name_hash][_voter].weight - voting_weight[_voter];\n            \n            if(votes[proposal_name_hash][_voter].vote_code == 0)\n            {\n                proposals[proposal_name_hash].votes_for \n            }\n        }*/\n        \n        require(proposals[proposal_name_hash].status == 0); // Allow re-evaluation of `votable` proposals only.\n        uint _vote_code = votes[proposal_name_hash][_voter].vote_code; // Preserve the decision from the previous voting session.\n        \n        clear_vote(_proposal_name, _voter); // Clear the previous vote.\n        \n        // Cas a vote on _voter's behalf depending on previous voting session decision (FOR, AGAINST, ABSTAIN).\n        if(_vote_code == 0)\n        {\n            proposals[proposal_name_hash].votes_for += voting_weight[_voter];\n        }\n        else if (_vote_code == 1)\n        {\n            proposals[proposal_name_hash].votes_against += voting_weight[_voter];\n        }\n        else if (_vote_code == 2)\n        {\n            proposals[proposal_name_hash].votes_abstain += voting_weight[_voter];\n        }\n        \n        votes[proposal_name_hash][_voter].weight    = voting_weight[_voter];\n        votes[proposal_name_hash][_voter].vote_code = _vote_code;\n    }\n    \n    function withdraw_proposal(string  memory _name) public \n    {\n        bytes32 name_hash = keccak256(bytes(_name));\n        require(proposals[name_hash].payment_address == msg.sender.toPayable());\n        \n        proposals[name_hash].status = 3;\n    }\n    \n    function is_voter(address _who) public view returns (bool) \n    {\n        return voting_weight[_who] > 0;\n    } \n    \n    modifier only_staking_contract()\n    {\n        require(msg.sender == address(cold_staking_contract));\n        _;\n    }\n    \n    modifier only_voter\n    {\n        require(is_voter(msg.sender));\n        _;\n    }\n    \n    \n    /* Commented out getter functions - prone to compiler mistakes\n    \n    \n    // Getter functions:\n    // NOTE: Solidity 0.4.25 compiler does not support enough stack depth\n    // Thats why getter functions were separated into _meta_info and _votes_info getters\n    // to avoid compiler stack-depth-related errors.\n    \n    function get_proposal_meta_info(string memory _name) public view returns(\n                string  URL,\n                bytes32 hash,\n                uint    start_epoch,\n                uint    end_epoch,\n                address payment_address,\n                uint    payment_amount,\n                uint    last_funded_epoch\n                )\n    {\n        bytes32 name_hash = keccak256(bytes(_name));\n        return(\n            proposals[name_hash].URL,\n            proposals[name_hash].hash,\n            proposals[name_hash].start_epoch,\n            proposals[name_hash].end_epoch,\n            proposals[name_hash].payment_address,\n            proposals[name_hash].payment_amount,\n            proposals[name_hash].last_funded_epoch\n            );\n    }\n    \n    function get_proposal_votes_info(string memory _name) public view returns(\n                uint votes_for,\n                uint votes_against,\n                uint votes_abstain,\n                uint status\n                )\n    {\n        bytes32 name_hash = keccak256(bytes(_name));\n        return(\n            proposals[name_hash].votes_for,\n            proposals[name_hash].votes_against,\n            proposals[name_hash].votes_abstain,\n            proposals[name_hash].status\n            );\n    }\n    \n    end of commenting getter functions */\n    \n    // DEBUGGING FUNCTIONS\n    /*-------------------------------------------------------*/\n    \n    address public treasurer = msg.sender;\n    \n    modifier only_treasurer\n    {\n        _;\n        assert(msg.sender == treasurer);\n    }\n    function set_staking_contract(address _new_staking_contract) public only_treasurer\n    {\n        cold_staking_contract = IColdStakingVoting(_new_staking_contract);\n    }\n    \n    // Epoch length is set in seconds.\n    function set_epoch_length(uint _epoch_length) public only_treasurer\n    {\n        epoch_length = _epoch_length;\n    }\n    \n    function set_proposal_threshold(uint _threshold) public only_treasurer\n    {\n        proposal_threshold = _threshold;\n    }\n    \n    // Voting threshold is set in percents.\n    function set_voting_threshold(uint _threshold) public only_treasurer\n    {\n        voting_threshold = _threshold;\n    }\n    \n    /*-------------------------------------------------------*/\n    // END DEBUGGING FUNCTIONS\n}\n",
  "sourcePath": "/home/faycal/Desktop/projects/callisto-contracts/contracts/TreasuryGovernance.sol",
  "compiler": {
    "name": "solc",
    "version": "0.5.8+commit.23d335f2.Emscripten.clang"
  },
  "schemaVersion": "3.0.22",
  "updatedAt": "2020-02-23T11:15:37.528Z",
  "devdoc": {
    "methods": {}
  },
  "userdoc": {
    "methods": {}
  }
}